Candidate 0000412HERMY B. ALMONTE                                  0000001000007500
Candidate 0000413JIM PROLA                                         0000002000007500
Candidate 0000099Write-In                                          0000003000007510
Contest   0000075Member, City Council, Dist. 6 - San Leandro (RCV) 0000075000000000
Precinct  0000001200100                                            0000001000000000
Precinct  0000002200200                                            0000002000000000
Precinct  0000003200300                                            0000003000000000
Precinct  0000004200600                                            0000004000000000
Precinct  0000005200700                                            0000005000000000
Precinct  0000006200800                                            0000006000000000
Precinct  0000007201000                                            0000007000000000
Precinct  0000008201100                                            0000008000000000
Precinct  0000009201300                                            0000009000000000
Precinct  0000010201400                                            0000010000000000
Precinct  0000011201410                                            0000011000000000
Precinct  0000012201500                                            0000012000000000
Precinct  0000013201700                                            0000013000000000
Precinct  0000014201800                                            0000014000000000
Precinct  0000015201900                                            0000015000000000
Precinct  0000016202110                                            0000016000000000
Precinct  0000017202310                                            0000017000000000
Precinct  0000018202400                                            0000018000000000
Precinct  0000019202410                                            0000019000000000
Precinct  0000020202500                                            0000020000000000
Precinct  0000021202510                                            0000021000000000
Precinct  0000022202520                                            0000022000000000
Precinct  0000023202620                                            0000023000000000
Precinct  0000024202710                                            0000024000000000
Precinct  0000025202900                                            0000025000000000
Precinct  0000026203100                                            0000026000000000
Precinct  0000027203200                                            0000027000000000
Precinct  0000028203300                                            0000028000000000
Precinct  0000029203400                                            0000029000000000
Precinct  0000030203500                                            0000030000000000
Precinct  0000031203800                                            0000031000000000
Precinct  0000032204000                                            0000032000000000
Precinct  0000033204100                                            0000033000000000
Precinct  0000034204210                                            0000034000000000
Precinct  0000035204220                                            0000035000000000
Precinct  0000036204300                                            0000036000000000
Precinct  0000037204310                                            0000037000000000
Precinct  0000038204600                                            0000038000000000
Precinct  0000039204900                                            0000039000000000
Precinct  0000040205000                                            0000040000000000
Precinct  0000041205100                                            0000041000000000
Precinct  0000042205200                                            0000042000000000
Precinct  0000043205500                                            0000043000000000
Precinct  0000044205600                                            0000044000000000
Precinct  0000045205700                                            0000045000000000
Precinct  0000046205800                                            0000046000000000
Precinct  0000047205900                                            0000047000000000
Precinct  0000048206000                                            0000048000000000
Precinct  0000049206100                                            0000049000000000
Precinct  0000050206200                                            0000050000000000
Precinct  0000051206400                                            0000051000000000
Precinct  0000052206500                                            0000052000000000
Precinct  0000053206600                                            0000053000000000
Precinct  0000054206700                                            0000054000000000
Precinct  0000055207000                                            0000055000000000
Precinct  0000056207100                                            0000056000000000
Precinct  0000057207200                                            0000057000000000
Precinct  0000058207300                                            0000058000000000
Precinct  0000059207500                                            0000059000000000
Precinct  0000060207600                                            0000060000000000
Precinct  0000061207700                                            0000061000000000
Precinct  0000062208000                                            0000062000000000
Precinct  0000063208010                                            0000063000000000
Precinct  0000064208100                                            0000064000000000
Precinct  0000065208110                                            0000065000000000
Precinct  0000066208200                                            0000066000000000
Precinct  0000067208210                                            0000067000000000
Precinct  0000068208300                                            0000068000000000
Precinct  0000069208310                                            0000069000000000
Precinct  0000070208400                                            0000070000000000
Precinct  0000071208500                                            0000071000000000
Precinct  0000072208510                                            0000072000000000
Precinct  0000073208600                                            0000073000000000
Precinct  0000074208610                                            0000074000000000
Precinct  0000075208700                                            0000075000000000
Precinct  0000076208710                                            0000076000000000
Precinct  0000077208800                                            0000077000000000
Precinct  0000078208810                                            0000078000000000
Precinct  0000079208900                                            0000079000000000
Precinct  0000080208910                                            0000080000000000
Precinct  0000081209000                                            0000081000000000
Precinct  0000082209010                                            0000082000000000
Precinct  0000083209100                                            0000083000000000
Precinct  0000084209110                                            0000084000000000
Precinct  0000085209200                                            0000085000000000
Precinct  0000086209300                                            0000086000000000
Precinct  0000087209310                                            0000087000000000
Precinct  0000088209400                                            0000088000000000
Precinct  0000089209410                                            0000089000000000
Precinct  0000090209510                                            0000090000000000
Precinct  0000091209600                                            0000091000000000
Precinct  0000092209610                                            0000092000000000
Precinct  0000093209700                                            0000093000000000
Precinct  0000094209710                                            0000094000000000
Precinct  0000095209800                                            0000095000000000
Precinct  0000096209900                                            0000096000000000
Precinct  0000097213100                                            0000097000000000
Precinct  0000098213300                                            0000098000000000
Precinct  0000099213400                                            0000099000000000
Precinct  0000100213500                                            0000100000000000
Precinct  0000101213600                                            0000101000000000
Precinct  0000102213700                                            0000102000000000
Precinct  0000103213800                                            0000103000000000
Precinct  0000104213900                                            0000104000000000
Precinct  0000105214100                                            0000105000000000
Precinct  0000106214200                                            0000106000000000
Precinct  0000107214300                                            0000107000000000
Precinct  0000108214400                                            0000108000000000
Precinct  0000109214500                                            0000109000000000
Precinct  0000110214600                                            0000110000000000
Precinct  0000111214800                                            0000111000000000
Precinct  0000112215100                                            0000112000000000
Precinct  0000113215120                                            0000113000000000
Precinct  0000114215200                                            0000114000000000
Precinct  0000115215300                                            0000115000000000
Precinct  0000116215500                                            0000116000000000
Precinct  0000117215610                                            0000117000000000
Precinct  0000118215700                                            0000118000000000
Precinct  0000119215800                                            0000119000000000
Precinct  0000120215900                                            0000120000000000
Precinct  0000121223000                                            0000121000000000
Precinct  0000122223010                                            0000122000000000
Precinct  0000123223200                                            0000123000000000
Precinct  0000124223300                                            0000124000000000
Precinct  0000125223400                                            0000125000000000
Precinct  0000126224000                                            0000126000000000
Precinct  0000127224200                                            0000127000000000
Precinct  0000128224400                                            0000128000000000
Precinct  0000129224500                                            0000129000000000
Precinct  0000130224600                                            0000130000000000
Precinct  0000131224700                                            0000131000000000
Precinct  0000132224800                                            0000132000000000
Precinct  0000133225000                                            0000133000000000
Precinct  0000134225100                                            0000134000000000
Precinct  0000135225200                                            0000135000000000
Precinct  0000136225400                                            0000136000000000
Precinct  0000137225600                                            0000137000000000
Precinct  0000138225700                                            0000138000000000
Precinct  0000139225710                                            0000139000000000
Precinct  0000140225810                                            0000140000000000
Precinct  0000141225900                                            0000141000000000
Precinct  0000142225910                                            0000142000000000
Precinct  0000143226100                                            0000143000000000
Precinct  0000144226200                                            0000144000000000
Precinct  0000145226300                                            0000145000000000
Precinct  0000146226400                                            0000146000000000
Precinct  0000147244000                                            0000147000000000
Precinct  0000148244100                                            0000148000000000
Precinct  0000149244200                                            0000149000000000
Precinct  0000150244300                                            0000150000000000
Precinct  0000151244400                                            0000151000000000
Precinct  0000152244500                                            0000152000000000
Precinct  0000153244600                                            0000153000000000
Precinct  0000154244700                                            0000154000000000
Precinct  0000155244800                                            0000155000000000
Precinct  0000156244900                                            0000156000000000
Precinct  0000157245000                                            0000157000000000
Precinct  0000158245100                                            0000158000000000
Precinct  0000159245200                                            0000159000000000
Precinct  0000160260100                                            0000160000000000
Precinct  0000161260300                                            0000161000000000
Precinct  0000162260400                                            0000162000000000
Precinct  0000163260610                                            0000163000000000
Precinct  0000164260800                                            0000164000000000
Precinct  0000165260900                                            0000165000000000
Precinct  0000166261000                                            0000166000000000
Precinct  0000167261300                                            0000167000000000
Precinct  0000168261400                                            0000168000000000
Precinct  0000169261600                                            0000169000000000
Precinct  0000170261700                                            0000170000000000
Precinct  0000171262000                                            0000171000000000
Precinct  0000172262100                                            0000172000000000
Precinct  0000173280100                                            0000173000000000
Precinct  0000174280500                                            0000174000000000
Precinct  0000175280700                                            0000175000000000
Precinct  0000176281000                                            0000176000000000
Precinct  0000177281300                                            0000177000000000
Precinct  0000178281600                                            0000178000000000
Precinct  0000179300000                                            0000179000000000
Precinct  0000180300100                                            0000180000000000
Precinct  0000181300110                                            0000181000000000
Precinct  0000182300120                                            0000182000000000
Precinct  0000183300140                                            0000183000000000
Precinct  0000184300150                                            0000184000000000
Precinct  0000185300170                                            0000185000000000
Precinct  0000186300180                                            0000186000000000
Precinct  0000187300210                                            0000187000000000
Precinct  0000188300300                                            0000188000000000
Precinct  0000189300400                                            0000189000000000
Precinct  0000190301100                                            0000190000000000
Precinct  0000191301200                                            0000191000000000
Precinct  0000192301400                                            0000192000000000
Precinct  0000193301520                                            0000193000000000
Precinct  0000194301800                                            0000194000000000
Precinct  0000195301900                                            0000195000000000
Precinct  0000196302000                                            0000196000000000
Precinct  0000197302100                                            0000197000000000
Precinct  0000198302200                                            0000198000000000
Precinct  0000199302400                                            0000199000000000
Precinct  0000200302500                                            0000200000000000
Precinct  0000201302510                                            0000201000000000
Precinct  0000202302700                                            0000202000000000
Precinct  0000203303000                                            0000203000000000
Precinct  0000204303300                                            0000204000000000
Precinct  0000205303400                                            0000205000000000
Precinct  0000206303500                                            0000206000000000
Precinct  0000207303600                                            0000207000000000
Precinct  0000208303800                                            0000208000000000
Precinct  0000209304000                                            0000209000000000
Precinct  0000210304120                                            0000210000000000
Precinct  0000211304200                                            0000211000000000
Precinct  0000212304500                                            0000212000000000
Precinct  0000213304600                                            0000213000000000
Precinct  0000214304700                                            0000214000000000
Precinct  0000215304800                                            0000215000000000
Precinct  0000216304900                                            0000216000000000
Precinct  0000217305000                                            0000217000000000
Precinct  0000218305010                                            0000218000000000
Precinct  0000219305100                                            0000219000000000
Precinct  0000220305400                                            0000220000000000
Precinct  0000221305410                                            0000221000000000
Precinct  0000222305600                                            0000222000000000
Precinct  0000223305700                                            0000223000000000
Precinct  0000224310000                                            0000224000000000
Precinct  0000225310100                                            0000225000000000
Precinct  0000226310200                                            0000226000000000
Precinct  0000227310300                                            0000227000000000
Precinct  0000228310400                                            0000228000000000
Precinct  0000229310500                                            0000229000000000
Precinct  0000230310600                                            0000230000000000
Precinct  0000231310700                                            0000231000000000
Precinct  0000232310900                                            0000232000000000
Precinct  0000233311100                                            0000233000000000
Precinct  0000234311200                                            0000234000000000
Precinct  0000235311400                                            0000235000000000
Precinct  0000236311510                                            0000236000000000
Precinct  0000237311700                                            0000237000000000
Precinct  0000238323000                                            0000238000000000
Precinct  0000239323200                                            0000239000000000
Precinct  0000240325100                                            0000240000000000
Precinct  0000241325200                                            0000241000000000
Precinct  0000242325300                                            0000242000000000
Precinct  0000243325400                                            0000243000000000
Precinct  0000244325500                                            0000244000000000
Precinct  0000245325510                                            0000245000000000
Precinct  0000246325600                                            0000246000000000
Precinct  0000247325700                                            0000247000000000
Precinct  0000248325800                                            0000248000000000
Precinct  0000249333100                                            0000249000000000
Precinct  0000250333200                                            0000250000000000
Precinct  0000251333400                                            0000251000000000
Precinct  0000252333410                                            0000252000000000
Precinct  0000253333500                                            0000253000000000
Precinct  0000254333510                                            0000254000000000
Precinct  0000255333600                                            0000255000000000
Precinct  0000256333800                                            0000256000000000
Precinct  0000257333900                                            0000257000000000
Precinct  0000258334000                                            0000258000000000
Precinct  0000259334100                                            0000259000000000
Precinct  0000260334600                                            0000260000000000
Precinct  0000261334700                                            0000261000000000
Precinct  0000262335000                                            0000262000000000
Precinct  0000263335100                                            0000263000000000
Precinct  0000264335200                                            0000264000000000
Precinct  0000265335300                                            0000265000000000
Precinct  0000266335400                                            0000266000000000
Precinct  0000267335500                                            0000267000000000
Precinct  0000268335700                                            0000268000000000
Precinct  0000269335710                                            0000269000000000
Precinct  0000270335810                                            0000270000000000
Precinct  0000271335900                                            0000271000000000
Precinct  0000272336100                                            0000272000000000
Precinct  0000273336200                                            0000273000000000
Precinct  0000274336400                                            0000274000000000
Precinct  0000275336500                                            0000275000000000
Precinct  0000276336600                                            0000276000000000
Precinct  0000277336710                                            0000277000000000
Precinct  0000278336900                                            0000278000000000
Precinct  0000279337000                                            0000279000000000
Precinct  0000280337100                                            0000280000000000
Precinct  0000281337110                                            0000281000000000
Precinct  0000282337200                                            0000282000000000
Precinct  0000283344000                                            0000283000000000
Precinct  0000284344010                                            0000284000000000
Precinct  0000285344100                                            0000285000000000
Precinct  0000286344200                                            0000286000000000
Precinct  0000287344400                                            0000287000000000
Precinct  0000288344500                                            0000288000000000
Precinct  0000289344600                                            0000289000000000
Precinct  0000290344700                                            0000290000000000
Precinct  0000291344800                                            0000291000000000
Precinct  0000292344900                                            0000292000000000
Precinct  0000293345000                                            0000293000000000
Precinct  0000294345100                                            0000294000000000
Precinct  0000295345200                                            0000295000000000
Precinct  0000296345310                                            0000296000000000
Precinct  0000297345400                                            0000297000000000
Precinct  0000298345500                                            0000298000000000
Precinct  0000299345600                                            0000299000000000
Precinct  0000300345700                                            0000300000000000
Precinct  0000301345800                                            0000301000000000
Precinct  0000302345900                                            0000302000000000
Precinct  0000303346000                                            0000303000000000
Precinct  0000304346100                                            0000304000000000
Precinct  0000305346200                                            0000305000000000
Precinct  0000306347100                                            0000306000000000
Precinct  0000307347200                                            0000307000000000
Precinct  0000308347300                                            0000308000000000
Precinct  0000309353300                                            0000309000000000
Precinct  0000310353310                                            0000310000000000
Precinct  0000311353400                                            0000311000000000
Precinct  0000312353500                                            0000312000000000
Precinct  0000313353600                                            0000313000000000
Precinct  0000314353800                                            0000314000000000
Precinct  0000315353900                                            0000315000000000
Precinct  0000316354000                                            0000316000000000
Precinct  0000317354100                                            0000317000000000
Precinct  0000318354110                                            0000318000000000
Precinct  0000319354300                                            0000319000000000
Precinct  0000320354400                                            0000320000000000
Precinct  0000321354500                                            0000321000000000
Precinct  0000322354700                                            0000322000000000
Precinct  0000323354900                                            0000323000000000
Precinct  0000324354910                                            0000324000000000
Precinct  0000325355000                                            0000325000000000
Precinct  0000326355100                                            0000326000000000
Precinct  0000327356000                                            0000327000000000
Precinct  0000328356200                                            0000328000000000
Precinct  0000329356210                                            0000329000000000
Precinct  0000330356500                                            0000330000000000
Precinct  0000331361100                                            0000331000000000
Precinct  0000332361130                                            0000332000000000
Precinct  0000333361200                                            0000333000000000
Precinct  0000334361300                                            0000334000000000
Precinct  0000335361500                                            0000335000000000
Precinct  0000336362100                                            0000336000000000
Precinct  0000337362110                                            0000337000000000
Precinct  0000338362300                                            0000338000000000
Precinct  0000339362500                                            0000339000000000
Precinct  0000340362510                                            0000340000000000
Precinct  0000341362600                                            0000341000000000
Precinct  0000342362800                                            0000342000000000
Precinct  0000343362900                                            0000343000000000
Precinct  0000344363000                                            0000344000000000
Precinct  0000345363100                                            0000345000000000
Precinct  0000346363200                                            0000346000000000
Precinct  0000347363310                                            0000347000000000
Precinct  0000348363600                                            0000348000000000
Precinct  0000349364200                                            0000349000000000
Precinct  0000350364300                                            0000350000000000
Precinct  0000351364310                                            0000351000000000
Precinct  0000352364400                                            0000352000000000
Precinct  0000353364510                                            0000353000000000
Precinct  0000354364600                                            0000354000000000
Precinct  0000355364700                                            0000355000000000
Precinct  0000356364800                                            0000356000000000
Precinct  0000357364900                                            0000357000000000
Precinct  0000358365000                                            0000358000000000
Precinct  0000359365200                                            0000359000000000
Precinct  0000360373100                                            0000360000000000
Precinct  0000361373400                                            0000361000000000
Precinct  0000362373500                                            0000362000000000
Precinct  0000363373900                                            0000363000000000
Precinct  0000364380200                                            0000364000000000
Precinct  0000365380300                                            0000365000000000
Precinct  0000366380400                                            0000366000000000
Precinct  0000367380600                                            0000367000000000
Precinct  0000368380700                                            0000368000000000
Precinct  0000369400100                                            0000369000000000
Precinct  0000370400200                                            0000370000000000
Precinct  0000371400300                                            0000371000000000
Precinct  0000372400400                                            0000372000000000
Precinct  0000373400500                                            0000373000000000
Precinct  0000374400600                                            0000374000000000
Precinct  0000375400700                                            0000375000000000
Precinct  0000376400800                                            0000376000000000
Precinct  0000377400900                                            0000377000000000
Precinct  0000378401100                                            0000378000000000
Precinct  0000379410100                                            0000379000000000
Precinct  0000380410300                                            0000380000000000
Precinct  0000381410400                                            0000381000000000
Precinct  0000382410500                                            0000382000000000
Precinct  0000383410600                                            0000383000000000
Precinct  0000384415000                                            0000384000000000
Precinct  0000385415200                                            0000385000000000
Precinct  0000386415300                                            0000386000000000
Precinct  0000387415500                                            0000387000000000
Precinct  0000388415600                                            0000388000000000
Precinct  0000389415800                                            0000389000000000
Precinct  0000390415900                                            0000390000000000
Precinct  0000391420500                                            0000391000000000
Precinct  0000392420600                                            0000392000000000
Precinct  0000393420700                                            0000393000000000
Precinct  0000394420900                                            0000394000000000
Precinct  0000395421000                                            0000395000000000
Precinct  0000396421100                                            0000396000000000
Precinct  0000397421400                                            0000397000000000
Precinct  0000398421510                                            0000398000000000
Precinct  0000399421700                                            0000399000000000
Precinct  0000400421900                                            0000400000000000
Precinct  0000401422000                                            0000401000000000
Precinct  0000402422100                                            0000402000000000
Precinct  0000403422300                                            0000403000000000
Precinct  0000404422600                                            0000404000000000
Precinct  0000405422700                                            0000405000000000
Precinct  0000406422810                                            0000406000000000
Precinct  0000407422900                                            0000407000000000
Precinct  0000408422910                                            0000408000000000
Precinct  0000409422920                                            0000409000000000
Precinct  0000410423000                                            0000410000000000
Precinct  0000411423400                                            0000411000000000
Precinct  0000412423500                                            0000412000000000
Precinct  0000413423600                                            0000413000000000
Precinct  0000414423610                                            0000414000000000
Precinct  0000415424000                                            0000415000000000
Precinct  0000416424100                                            0000416000000000
Precinct  0000417424300                                            0000417000000000
Precinct  0000418424400                                            0000418000000000
Precinct  0000419430100                                            0000419000000000
Precinct  0000420430600                                            0000420000000000
Precinct  0000421430700                                            0000421000000000
Precinct  0000422430900                                            0000422000000000
Precinct  0000423431100                                            0000423000000000
Precinct  0000424431800                                            0000424000000000
Precinct  0000425432000                                            0000425000000000
Precinct  0000426432110                                            0000426000000000
Precinct  0000427432200                                            0000427000000000
Precinct  0000428432300                                            0000428000000000
Precinct  0000429432400                                            0000429000000000
Precinct  0000430432600                                            0000430000000000
Precinct  0000431432700                                            0000431000000000
Precinct  0000432432810                                            0000432000000000
Precinct  0000433432900                                            0000433000000000
Precinct  0000434433100                                            0000434000000000
Precinct  0000435433400                                            0000435000000000
Precinct  0000436433500                                            0000436000000000
Precinct  0000437433610                                            0000437000000000
Precinct  0000438433700                                            0000438000000000
Precinct  0000439433900                                            0000439000000000
Precinct  0000440440100                                            0000440000000000
Precinct  0000441440300                                            0000441000000000
Precinct  0000442440400                                            0000442000000000
Precinct  0000443440610                                            0000443000000000
Precinct  0000444440800                                            0000444000000000
Precinct  0000445441100                                            0000445000000000
Precinct  0000446441300                                            0000446000000000
Precinct  0000447442100                                            0000447000000000
Precinct  0000448442600                                            0000448000000000
Precinct  0000449442700                                            0000449000000000
Precinct  0000450443000                                            0000450000000000
Precinct  0000451443100                                            0000451000000000
Precinct  0000452443300                                            0000452000000000
Precinct  0000453443400                                            0000453000000000
Precinct  0000454443500                                            0000454000000000
Precinct  0000455447200                                            0000455000000000
Precinct  0000456447600                                            0000456000000000
Precinct  0000457450300                                            0000457000000000
Precinct  0000458450400                                            0000458000000000
Precinct  0000459450610                                            0000459000000000
Precinct  0000460450800                                            0000460000000000
Precinct  0000461451000                                            0000461000000000
Precinct  0000462451510                                            0000462000000000
Precinct  0000463451600                                            0000463000000000
Precinct  0000464451700                                            0000464000000000
Precinct  0000465452100                                            0000465000000000
Precinct  0000466452200                                            0000466000000000
Precinct  0000467452400                                            0000467000000000
Precinct  0000468452500                                            0000468000000000
Precinct  0000469453100                                            0000469000000000
Precinct  0000470453300                                            0000470000000000
Precinct  0000471453400                                            0000471000000000
Precinct  0000472453500                                            0000472000000000
Precinct  0000473453900                                            0000473000000000
Precinct  0000474453920                                            0000474000000000
Precinct  0000475454100                                            0000475000000000
Precinct  0000476454500                                            0000476000000000
Precinct  0000477455000                                            0000477000000000
Precinct  0000478455100                                            0000478000000000
Precinct  0000479455300                                            0000479000000000
Precinct  0000480455400                                            0000480000000000
Precinct  0000481455500                                            0000481000000000
Precinct  0000482455700                                            0000482000000000
Precinct  0000483455900                                            0000483000000000
Precinct  0000484456200                                            0000484000000000
Precinct  0000485456500                                            0000485000000000
Precinct  0000486456600                                            0000486000000000
Precinct  0000487456900                                            0000487000000000
Precinct  0000488457100                                            0000488000000000
Precinct  0000489457300                                            0000489000000000
Precinct  0000490457400                                            0000490000000000
Precinct  0000491457500                                            0000491000000000
Precinct  0000492457700                                            0000492000000000
Precinct  0000493457900                                            0000493000000000
Precinct  0000494458200                                            0000494000000000
Precinct  0000495458300                                            0000495000000000
Precinct  0000496458500                                            0000496000000000
Precinct  0000497458800                                            0000497000000000
Precinct  0000498458900                                            0000498000000000
Precinct  0000499470400                                            0000499000000000
Precinct  0000500470600                                            0000500000000000
Precinct  0000501470900                                            0000501000000000
Precinct  0000502471800                                            0000502000000000
Precinct  0000503471900                                            0000503000000000
Precinct  0000504472000                                            0000504000000000
Precinct  0000505472200                                            0000505000000000
Precinct  0000506472300                                            0000506000000000
Precinct  0000507472400                                            0000507000000000
Precinct  0000508472500                                            0000508000000000
Precinct  0000509473300                                            0000509000000000
Precinct  0000510473400                                            0000510000000000
Precinct  0000511473500                                            0000511000000000
Precinct  0000512473600                                            0000512000000000
Precinct  0000513473800                                            0000513000000000
Precinct  0000514473900                                            0000514000000000
Precinct  0000515474010                                            0000515000000000
Precinct  0000516474020                                            0000516000000000
Precinct  0000517474300                                            0000517000000000
Precinct  0000518474500                                            0000518000000000
Precinct  0000519474600                                            0000519000000000
Precinct  0000520474700                                            0000520000000000
Precinct  0000521474900                                            0000521000000000
Precinct  0000522475000                                            0000522000000000
Precinct  0000523475100                                            0000523000000000
Precinct  0000524475200                                            0000524000000000
Precinct  0000525475500                                            0000525000000000
Precinct  0000526475520                                            0000526000000000
Precinct  0000527475540                                            0000527000000000
Precinct  0000528476100                                            0000528000000000
Precinct  0000529476110                                            0000529000000000
Precinct  0000530481200                                            0000530000000000
Precinct  0000531481410                                            0000531000000000
Precinct  0000532481500                                            0000532000000000
Precinct  0000533481800                                            0000533000000000
Precinct  0000534483000                                            0000534000000000
Precinct  0000535491000                                            0000535000000000
Precinct  0000536491100                                            0000536000000000
Precinct  0000537491200                                            0000537000000000
Precinct  0000538491300                                            0000538000000000
Precinct  0000539491500                                            0000539000000000
Precinct  0000540500100                                            0000540000000000
Precinct  0000541500110                                            0000541000000000
Precinct  0000542500120                                            0000542000000000
Precinct  0000543500130                                            0000543000000000
Precinct  0000544500140                                            0000544000000000
Precinct  0000545500200                                            0000545000000000
Precinct  0000546500210                                            0000546000000000
Precinct  0000547500230                                            0000547000000000
Precinct  0000548500300                                            0000548000000000
Precinct  0000549500310                                            0000549000000000
Precinct  0000550500320                                            0000550000000000
Precinct  0000551500340                                            0000551000000000
Precinct  0000552500400                                            0000552000000000
Precinct  0000553500410                                            0000553000000000
Precinct  0000554500500                                            0000554000000000
Precinct  0000555500600                                            0000555000000000
Precinct  0000556500700                                            0000556000000000
Precinct  0000557500910                                            0000557000000000
Precinct  0000558501000                                            0000558000000000
Precinct  0000559501200                                            0000559000000000
Precinct  0000560501300                                            0000560000000000
Precinct  0000561501400                                            0000561000000000
Precinct  0000562501410                                            0000562000000000
Precinct  0000563501600                                            0000563000000000
Precinct  0000564501610                                            0000564000000000
Precinct  0000565501620                                            0000565000000000
Precinct  0000566501630                                            0000566000000000
Precinct  0000567501640                                            0000567000000000
Precinct  0000568501800                                            0000568000000000
Precinct  0000569501830                                            0000569000000000
Precinct  0000570501840                                            0000570000000000
Precinct  0000571501910                                            0000571000000000
Precinct  0000572502000                                            0000572000000000
Precinct  0000573502010                                            0000573000000000
Precinct  0000574502020                                            0000574000000000
Precinct  0000575502030                                            0000575000000000
Precinct  0000576502100                                            0000576000000000
Precinct  0000577502200                                            0000577000000000
Precinct  0000578502210                                            0000578000000000
Precinct  0000579502220                                            0000579000000000
Precinct  0000580502400                                            0000580000000000
Precinct  0000581502410                                            0000581000000000
Precinct  0000582502500                                            0000582000000000
Precinct  0000583502600                                            0000583000000000
Precinct  0000584502710                                            0000584000000000
Precinct  0000585502720                                            0000585000000000
Precinct  0000586502740                                            0000586000000000
Precinct  0000587502800                                            0000587000000000
Precinct  0000588502900                                            0000588000000000
Precinct  0000589520110                                            0000589000000000
Precinct  0000590520210                                            0000590000000000
Precinct  0000591520220                                            0000591000000000
Precinct  0000592520230                                            0000592000000000
Precinct  0000593520240                                            0000593000000000
Precinct  0000594520300                                            0000594000000000
Precinct  0000595520310                                            0000595000000000
Precinct  0000596520320                                            0000596000000000
Precinct  0000597520400                                            0000597000000000
Precinct  0000598520420                                            0000598000000000
Precinct  0000599520500                                            0000599000000000
Precinct  0000600520600                                            0000600000000000
Precinct  0000601520610                                            0000601000000000
Precinct  0000602520630                                            0000602000000000
Precinct  0000603520700                                            0000603000000000
Precinct  0000604520710                                            0000604000000000
Precinct  0000605520810                                            0000605000000000
Precinct  0000606520820                                            0000606000000000
Precinct  0000607520840                                            0000607000000000
Precinct  0000608520860                                            0000608000000000
Precinct  0000609520870                                            0000609000000000
Precinct  0000610521100                                            0000610000000000
Precinct  0000611521110                                            0000611000000000
Precinct  0000612521300                                            0000612000000000
Precinct  0000613521500                                            0000613000000000
Precinct  0000614522000                                            0000614000000000
Precinct  0000615522020                                            0000615000000000
Precinct  0000616522110                                            0000616000000000
Precinct  0000617522120                                            0000617000000000
Precinct  0000618522130                                            0000618000000000
Precinct  0000619522140                                            0000619000000000
Precinct  0000620522150                                            0000620000000000
Precinct  0000621522200                                            0000621000000000
Precinct  0000622522400                                            0000622000000000
Precinct  0000623523110                                            0000623000000000
Precinct  0000624523300                                            0000624000000000
Precinct  0000625523700                                            0000625000000000
Precinct  0000626523710                                            0000626000000000
Precinct  0000627523720                                            0000627000000000
Precinct  0000628523800                                            0000628000000000
Precinct  0000629540300                                            0000629000000000
Precinct  0000630540500                                            0000630000000000
Precinct  0000631540600                                            0000631000000000
Precinct  0000632540700                                            0000632000000000
Precinct  0000633540800                                            0000633000000000
Precinct  0000634541100                                            0000634000000000
Precinct  0000635542000                                            0000635000000000
Precinct  0000636543000                                            0000636000000000
Precinct  0000637543300                                            0000637000000000
Precinct  0000638544400                                            0000638000000000
Precinct  0000639545000                                            0000639000000000
Precinct  0000640546000                                            0000640000000000
Precinct  0000641546100                                            0000641000000000
Precinct  0000642546600                                            0000642000000000
Precinct  0000643547700                                            0000643000000000
Precinct  0000644547740                                            0000644000000000
Precinct  0000645547750                                            0000645000000000
Precinct  0000646547780                                            0000646000000000
Precinct  0000647547790                                            0000647000000000
Precinct  0000648821100                                            0000648000000000
Precinct  0000649821110                                            0000649000000000
Precinct  0000650821140                                            0000650000000000
Precinct  0000651821200                                            0000651000000000
Precinct  0000652821210                                            0000652000000000
Precinct  0000653821400                                            0000653000000000
Precinct  0000654821500                                            0000654000000000
Precinct  0000655821600                                            0000655000000000
Precinct  0000656821710                                            0000656000000000
Precinct  0000657821730                                            0000657000000000
Precinct  0000658821800                                            0000658000000000
Precinct  0000659821900                                            0000659000000000
Precinct  0000660821910                                            0000660000000000
Precinct  0000661822000                                            0000661000000000
Precinct  0000662822010                                            0000662000000000
Precinct  0000663822200                                            0000663000000000
Precinct  0000664823000                                            0000664000000000
Precinct  0000665823100                                            0000665000000000
Precinct  0000666823200                                            0000666000000000
Precinct  0000667823400                                            0000667000000000
Precinct  0000668823500                                            0000668000000000
Precinct  0000669823510                                            0000669000000000
Precinct  0000670823600                                            0000670000000000
Precinct  0000671823610                                            0000671000000000
Precinct  0000672823700                                            0000672000000000
Precinct  0000673823710                                            0000673000000000
Precinct  0000674823720                                            0000674000000000
Precinct  0000675823730                                            0000675000000000
Precinct  0000676823800                                            0000676000000000
Precinct  0000677823810                                            0000677000000000
Precinct  0000678823900                                            0000678000000000
Precinct  0000679830100                                            0000679000000000
Precinct  0000680830200                                            0000680000000000
Precinct  0000681830210                                            0000681000000000
Precinct  0000682830300                                            0000682000000000
Precinct  0000683830500                                            0000683000000000
Precinct  0000684830700                                            0000684000000000
Precinct  0000685831000                                            0000685000000000
Precinct  0000686831100                                            0000686000000000
Precinct  0000687831200                                            0000687000000000
Precinct  0000688831210                                            0000688000000000
Precinct  0000689831230                                            0000689000000000
Precinct  0000690831300                                            0000690000000000
Precinct  0000691831400                                            0000691000000000
Precinct  0000692831410                                            0000692000000000
Precinct  0000693831500                                            0000693000000000
Precinct  0000694831510                                            0000694000000000
Precinct  0000695831610                                            0000695000000000
Precinct  0000696831700                                            0000696000000000
Precinct  0000697831710                                            0000697000000000
Precinct  0000698831810                                            0000698000000000
Precinct  0000699831830                                            0000699000000000
Precinct  0000700831900                                            0000700000000000
Precinct  0000701831920                                            0000701000000000
Precinct  0000702832000                                            0000702000000000
Precinct  0000703832010                                            0000703000000000
Precinct  0000704832200                                            0000704000000000
Precinct  0000705832210                                            0000705000000000
Precinct  0000706832300                                            0000706000000000
Precinct  0000707832500                                            0000707000000000
Precinct  0000708832510                                            0000708000000000
Precinct  0000709832600                                            0000709000000000
Precinct  0000710832620                                            0000710000000000
Precinct  0000711832800                                            0000711000000000
Precinct  0000712832810                                            0000712000000000
Precinct  0000713832900                                            0000713000000000
Precinct  0000714833000                                            0000714000000000
Precinct  0000715833100                                            0000715000000000
Precinct  0000716833200                                            0000716000000000
Precinct  0000717833210                                            0000717000000000
Precinct  0000718833300                                            0000718000000000
Precinct  0000719833310                                            0000719000000000
Precinct  0000720833400                                            0000720000000000
Precinct  0000721833500                                            0000721000000000
Precinct  0000722833610                                            0000722000000000
Precinct  0000723833700                                            0000723000000000
Precinct  0000724833710                                            0000724000000000
Precinct  0000725834000                                            0000725000000000
Precinct  0000726834200                                            0000726000000000
Precinct  0000727834400                                            0000727000000000
Precinct  0000728834600                                            0000728000000000
Precinct  0000729834700                                            0000729000000000
Precinct  0000730835000                                            0000730000000000
Precinct  0000731835100                                            0000731000000000
Precinct  0000732835300                                            0000732000000000
Precinct  0000733835310                                            0000733000000000
Precinct  0000734835500                                            0000734000000000
Precinct  0000735835600                                            0000735000000000
Precinct  0000736835700                                            0000736000000000
Precinct  0000737835730                                            0000737000000000
Precinct  0000738835800                                            0000738000000000
Precinct  0000739835820                                            0000739000000000
Precinct  0000740835900                                            0000740000000000
Precinct  0000741836000                                            0000741000000000
Precinct  0000742836110                                            0000742000000000
Precinct  0000743836200                                            0000743000000000
Precinct  0000744836210                                            0000744000000000
Precinct  0000745836400                                            0000745000000000
Precinct  0000746836500                                            0000746000000000
Precinct  0000747836600                                            0000747000000000
Precinct  0000748837000                                            0000748000000000
Precinct  0000749837100                                            0000749000000000
Precinct  0000750837200                                            0000750000000000
Precinct  0000751837300                                            0000751000000000
Precinct  0000752837400                                            0000752000000000
Precinct  0000753837500                                            0000753000000000
Precinct  0000754837600                                            0000754000000000
Precinct  0000755837700                                            0000755000000000
Precinct  0000756837710                                            0000756000000000
Precinct  0000757837800                                            0000757000000000
Precinct  0000758837900                                            0000758000000000
Precinct  0000759838000                                            0000759000000000
Precinct  0000760838110                                            0000760000000000
Precinct  0000761838300                                            0000761000000000
Precinct  0000762838500                                            0000762000000000
Precinct  0000763838600                                            0000763000000000
Precinct  0000764838700                                            0000764000000000
Precinct  0000765839530                                            0000765000000000
Precinct  0000766850300                                            0000766000000000
Precinct  0000767850320                                            0000767000000000
Precinct  0000768850330                                            0000768000000000
Precinct  0000769850400                                            0000769000000000
Precinct  0000770850410                                            0000770000000000
Precinct  0000771850500                                            0000771000000000
Precinct  0000772850600                                            0000772000000000
Precinct  0000773850800                                            0000773000000000
Precinct  0000774850810                                            0000774000000000
Precinct  0000775850900                                            0000775000000000
Precinct  0000776851000                                            0000776000000000
Precinct  0000777851200                                            0000777000000000
Precinct  0000778851300                                            0000778000000000
Precinct  0000779851500                                            0000779000000000
Precinct  0000780851510                                            0000780000000000
Precinct  0000781851520                                            0000781000000000
Precinct  0000782851600                                            0000782000000000
Precinct  0000783851700                                            0000783000000000
Precinct  0000784851800                                            0000784000000000
Precinct  0000785852010                                            0000785000000000
Precinct  0000786852100                                            0000786000000000
Precinct  0000787866800                                            0000787000000000
Precinct  00007889203900                                           0000788000000000
Precinct  00007899205550                                           0000789000000000
Precinct  00007909207610                                           0000790000000000
Precinct  00007919207620                                           0000791000000000
Precinct  00007929209910                                           0000792000000000
Precinct  00007939213000                                           0000793000000000
Precinct  00007949215630                                           0000794000000000
Precinct  00007959215810                                           0000795000000000
Precinct  00007969223100                                           0000796000000000
Precinct  00007979223110                                           0000797000000000
Precinct  00007989224300                                           0000798000000000
Precinct  00007999224420                                           0000799000000000
Precinct  00008009224430                                           0000800000000000
Precinct  00008019224710                                           0000801000000000
Precinct  00008029224810                                           0000802000000000
Precinct  00008039224910                                           0000803000000000
Precinct  00008049225500                                           0000804000000000
Precinct  00008059244110                                           0000805000000000
Precinct  00008069244910                                           0000806000000000
Precinct  00008079325000                                           0000807000000000
Precinct  00008089333300                                           0000808000000000
Precinct  00008099333310                                           0000809000000000
Precinct  00008109333420                                           0000810000000000
Precinct  00008119333610                                           0000811000000000
Precinct  00008129333910                                           0000812000000000
Precinct  00008139333920                                           0000813000000000
Precinct  00008149333930                                           0000814000000000
Precinct  00008159334510                                           0000815000000000
Precinct  00008169335110                                           0000816000000000
Precinct  00008179335600                                           0000817000000000
Precinct  00008189335800                                           0000818000000000
Precinct  00008199335910                                           0000819000000000
Precinct  00008209336300                                           0000820000000000
Precinct  00008219336810                                           0000821000000000
Precinct  00008229336910                                           0000822000000000
Precinct  00008239345300                                           0000823000000000
Precinct  00008249345710                                           0000824000000000
Precinct  00008259347110                                           0000825000000000
Precinct  00008269347210                                           0000826000000000
Precinct  00008279355210                                           0000827000000000
Precinct  00008289356400                                           0000828000000000
Precinct  00008299360900                                           0000829000000000
Precinct  00008309361000                                           0000830000000000
Precinct  00008319361210                                           0000831000000000
Precinct  00008329361400                                           0000832000000000
Precinct  00008339362000                                           0000833000000000
Precinct  00008349362210                                           0000834000000000
Precinct  00008359364020                                           0000835000000000
Precinct  00008369364030                                           0000836000000000
Precinct  00008379364210                                           0000837000000000
Precinct  00008389364320                                           0000838000000000
Precinct  00008399364330                                           0000839000000000
Precinct  00008409373000                                           0000840000000000
Precinct  00008419373010                                           0000841000000000
Precinct  00008429373020                                           0000842000000000
Precinct  00008439373030                                           0000843000000000
Precinct  00008449394000                                           0000844000000000
Precinct  00008459394100                                           0000845000000000
Precinct  00008469394200                                           0000846000000000
Precinct  00008479416220                                           0000847000000000
Precinct  00008489420010                                           0000848000000000
Precinct  00008499420020                                           0000849000000000
Precinct  00008509420030                                           0000850000000000
Precinct  00008519420040                                           0000851000000000
Precinct  00008529420050                                           0000852000000000
Precinct  00008539420200                                           0000853000000000
Precinct  00008549420210                                           0000854000000000
Precinct  00008559420220                                           0000855000000000
Precinct  00008569420230                                           0000856000000000
Precinct  00008579420240                                           0000857000000000
Precinct  00008589420250                                           0000858000000000
Precinct  00008599420300                                           0000859000000000
Precinct  00008609420310                                           0000860000000000
Precinct  00008619420320                                           0000861000000000
Precinct  00008629420610                                           0000862000000000
Precinct  00008639420800                                           0000863000000000
Precinct  00008649422930                                           0000864000000000
Precinct  00008659422940                                           0000865000000000
Precinct  00008669423620                                           0000866000000000
Precinct  00008679423700                                           0000867000000000
Precinct  00008689423800                                           0000868000000000
Precinct  00008699423810                                           0000869000000000
Precinct  00008709424200                                           0000870000000000
Precinct  00008719430010                                           0000871000000000
Precinct  00008729430020                                           0000872000000000
Precinct  00008739430110                                           0000873000000000
Precinct  00008749430120                                           0000874000000000
Precinct  00008759430130                                           0000875000000000
Precinct  00008769430140                                           0000876000000000
Precinct  00008779430150                                           0000877000000000
Precinct  00008789430160                                           0000878000000000
Precinct  00008799430410                                           0000879000000000
Precinct  00008809430420                                           0000880000000000
Precinct  00008819430500                                           0000881000000000
Precinct  00008829430510                                           0000882000000000
Precinct  00008839430710                                           0000883000000000
Precinct  00008849430720                                           0000884000000000
Precinct  00008859430800                                           0000885000000000
Precinct  00008869430820                                           0000886000000000
Precinct  00008879430870                                           0000887000000000
Precinct  00008889431110                                           0000888000000000
Precinct  00008899431200                                           0000889000000000
Precinct  00008909431210                                           0000890000000000
Precinct  00008919431300                                           0000891000000000
Precinct  00008929431310                                           0000892000000000
Precinct  00008939431400                                           0000893000000000
Precinct  00008949431500                                           0000894000000000
Precinct  00008959431610                                           0000895000000000
Precinct  00008969431620                                           0000896000000000
Precinct  00008979431700                                           0000897000000000
Precinct  00008989431900                                           0000898000000000
Precinct  00008999432910                                           0000899000000000
Precinct  00009009433630                                           0000900000000000
Precinct  00009019438120                                           0000901000000000
Precinct  00009029438140                                           0000902000000000
Precinct  00009039438500                                           0000903000000000
Precinct  00009049442610                                           0000904000000000
Precinct  00009059442800                                           0000905000000000
Precinct  00009069442820                                           0000906000000000
Precinct  00009079443110                                           0000907000000000
Precinct  00009089443600                                           0000908000000000
Precinct  00009099443700                                           0000909000000000
Precinct  00009109443710                                           0000910000000000
Precinct  00009119443720                                           0000911000000000
Precinct  00009129443800                                           0000912000000000
Precinct  00009139447010                                           0000913000000000
Precinct  00009149447020                                           0000914000000000
Precinct  00009159447040                                           0000915000000000
Precinct  00009169447100                                           0000916000000000
Precinct  00009179447120                                           0000917000000000
Precinct  00009189447210                                           0000918000000000
Precinct  00009199447220                                           0000919000000000
Precinct  00009209447300                                           0000920000000000
Precinct  00009219447510                                           0000921000000000
Precinct  00009229447620                                           0000922000000000
Precinct  00009239447700                                           0000923000000000
Precinct  00009249447710                                           0000924000000000
Precinct  00009259447720                                           0000925000000000
Precinct  00009269450920                                           0000926000000000
Precinct  00009279450930                                           0000927000000000
Precinct  00009289451500                                           0000928000000000
Precinct  00009299452000                                           0000929000000000
Precinct  00009309454220                                           0000930000000000
Precinct  00009319454230                                           0000931000000000
Precinct  00009329454600                                           0000932000000000
Precinct  00009339454700                                           0000933000000000
Precinct  00009349454800                                           0000934000000000
Precinct  00009359455010                                           0000935000000000
Precinct  00009369455200                                           0000936000000000
Precinct  00009379455210                                           0000937000000000
Precinct  00009389455410                                           0000938000000000
Precinct  00009399456610                                           0000939000000000
Precinct  00009409458920                                           0000940000000000
Precinct  00009419464000                                           0000941000000000
Precinct  00009429464010                                           0000942000000000
Precinct  00009439464030                                           0000943000000000
Precinct  00009449464100                                           0000944000000000
Precinct  00009459464300                                           0000945000000000
Precinct  00009469464310                                           0000946000000000
Precinct  00009479464320                                           0000947000000000
Precinct  00009489464500                                           0000948000000000
Precinct  00009499464600                                           0000949000000000
Precinct  00009509464700                                           0000950000000000
Precinct  00009519464710                                           0000951000000000
Precinct  00009529470100                                           0000952000000000
Precinct  00009539470310                                           0000953000000000
Precinct  00009549470700                                           0000954000000000
Precinct  00009559475010                                           0000955000000000
Precinct  00009569475300                                           0000956000000000
Precinct  00009579475600                                           0000957000000000
Precinct  00009589476120                                           0000958000000000
Precinct  00009599480010                                           0000959000000000
Precinct  00009609481110                                           0000960000000000
Precinct  00009619481310                                           0000961000000000
Precinct  00009629481430                                           0000962000000000
Precinct  00009639481520                                           0000963000000000
Precinct  00009649481540                                           0000964000000000
Precinct  00009659481810                                           0000965000000000
Precinct  00009669481900                                           0000966000000000
Precinct  00009679481910                                           0000967000000000
Precinct  00009689482000                                           0000968000000000
Precinct  00009699482010                                           0000969000000000
Precinct  00009709482020                                           0000970000000000
Precinct  00009719484000                                           0000971000000000
Precinct  00009729484010                                           0000972000000000
Precinct  00009739490040                                           0000973000000000
Precinct  00009749490100                                           0000974000000000
Precinct  00009759490120                                           0000975000000000
Precinct  00009769490200                                           0000976000000000
Precinct  00009779490300                                           0000977000000000
Precinct  00009789491010                                           0000978000000000
Precinct  00009799491020                                           0000979000000000
Precinct  00009809491040                                           0000980000000000
Precinct  00009819491050                                           0000981000000000
Precinct  00009829491080                                           0000982000000000
Precinct  00009839491410                                           0000983000000000
Precinct  00009849491600                                           0000984000000000
Precinct  00009859491610                                           0000985000000000
Precinct  00009869491630                                           0000986000000000
Precinct  00009879492000                                           0000987000000000
Precinct  00009889492040                                           0000988000000000
Precinct  00009899492120                                           0000989000000000
Precinct  00009909498200                                           0000990000000000
Precinct  00009919498220                                           0000991000000000
Precinct  00009929498300                                           0000992000000000
Precinct  00009939498320                                           0000993000000000
Precinct  00009949499010                                           0000994000000000
Precinct  00009959500220                                           0000995000000000
Precinct  00009969500510                                           0000996000000000
Precinct  00009979501710                                           0000997000000000
Precinct  00009989502910                                           0000998000000000
Precinct  00009999502920                                           0000999000000000
Precinct  00010009510100                                           0001000000000000
Precinct  00010019510110                                           0001001000000000
Precinct  00010029510120                                           0001002000000000
Precinct  00010039510140                                           0001003000000000
Precinct  00010049510150                                           0001004000000000
Precinct  00010059510300                                           0001005000000000
Precinct  00010069510320                                           0001006000000000
Precinct  00010079510410                                           0001007000000000
Precinct  00010089510500                                           0001008000000000
Precinct  00010099510610                                           0001009000000000
Precinct  00010109510700                                           0001010000000000
Precinct  00010119510720                                           0001011000000000
Precinct  00010129510730                                           0001012000000000
Precinct  00010139510810                                           0001013000000000
Precinct  00010149510840                                           0001014000000000
Precinct  00010159510890                                           0001015000000000
Precinct  00010169510910                                           0001016000000000
Precinct  00010179510920                                           0001017000000000
Precinct  00010189510950                                           0001018000000000
Precinct  00010199510960                                           0001019000000000
Precinct  00010209510970                                           0001020000000000
Precinct  00010219510980                                           0001021000000000
Precinct  00010229510990                                           0001022000000000
Precinct  00010239511000                                           0001023000000000
Precinct  00010249520250                                           0001024000000000
Precinct  00010259520720                                           0001025000000000
Precinct  00010269520730                                           0001026000000000
Precinct  00010279521700                                           0001027000000000
Precinct  00010289522160                                           0001028000000000
Precinct  00010299523100                                           0001029000000000
Precinct  00010309523120                                           0001030000000000
Precinct  00010319530200                                           0001031000000000
Precinct  00010329532000                                           0001032000000000
Precinct  00010339532100                                           0001033000000000
Precinct  00010349532200                                           0001034000000000
Precinct  00010359532400                                           0001035000000000
Precinct  00010369535000                                           0001036000000000
Precinct  00010379535020                                           0001037000000000
Precinct  00010389535030                                           0001038000000000
Precinct  00010399535040                                           0001039000000000
Precinct  00010409535050                                           0001040000000000
Precinct  00010419535060                                           0001041000000000
Precinct  00010429535070                                           0001042000000000
Precinct  00010439535090                                           0001043000000000
Precinct  00010449535200                                           0001044000000000
Precinct  00010459535300                                           0001045000000000
Precinct  00010469535400                                           0001046000000000
Precinct  00010479535500                                           0001047000000000
Precinct  00010489535600                                           0001048000000000
Precinct  00010499535700                                           0001049000000000
Precinct  00010509535900                                           0001050000000000
Precinct  00010519540400                                           0001051000000000
Precinct  00010529547710                                           0001052000000000
Precinct  00010539547720                                           0001053000000000
Precinct  00010549547770                                           0001054000000000
Precinct  00010559810900                                           0001055000000000
Precinct  00010569815120                                           0001056000000000
Precinct  00010579819020                                           0001057000000000
Precinct  00010589821010                                           0001058000000000
Precinct  00010599821020                                           0001059000000000
Precinct  00010609821310                                           0001060000000000
Precinct  00010619821720                                           0001061000000000
Precinct  00010629822020                                           0001062000000000
Precinct  00010639823030                                           0001063000000000
Precinct  00010649823040                                           0001064000000000
Precinct  00010659831220                                           0001065000000000
Precinct  00010669834020                                           0001066000000000
Precinct  00010679837020                                           0001067000000000
Precinct  00010689837410                                           0001068000000000
Precinct  00010699839000                                           0001069000000000
Precinct  00010709839030                                           0001070000000000
Precinct  00010719839060                                           0001071000000000
Precinct  00010729839120                                           0001072000000000
Precinct  00010739839200                                           0001073000000000
Precinct  00010749839210                                           0001074000000000
Precinct  00010759839220                                           0001075000000000
Precinct  00010769839230                                           0001076000000000
Precinct  00010779839240                                           0001077000000000
Precinct  00010789839300                                           0001078000000000
Precinct  00010799839310                                           0001079000000000
Precinct  00010809839330                                           0001080000000000
Precinct  00010819839360                                           0001081000000000
Precinct  00010829839400                                           0001082000000000
Precinct  00010839839500                                           0001083000000000
Precinct  00010849839510                                           0001084000000000
Precinct  00010859866820                                           0001085000000000
Precinct  00010869866900                                           0001086000000000
Precinct  00010879866910                                           0001087000000000
Precinct  00010889866920                                           0001088000000000
Precinct  00010899866930                                           0001089000000000
Precinct  00010909867100                                           0001090000000000
Precinct  00010919867200                                           0001091000000000
Precinct  00010929867320                                           0001092000000000
Precinct  00010939870000                                           0001093000000000
Precinct  00010949870010                                           0001094000000000
Precinct  00010959870100                                           0001095000000000
Precinct  00010969870110                                           0001096000000000
Precinct  00010979870150                                           0001097000000000
Precinct  00010989880200                                           0001098000000000
Precinct  00010999880400                                           0001099000000000
Precinct  00011009880500                                           0001100000000000
Tally Type0000001Election Day - Insight                            0000001000000000
Tally Type0000002Election Day - 400C                               0000002000000000
Tally Type0000003Vote by Mail - 400C                               0000003000000000
Tally Type0000004Provisional - 400C                                0000004000000000
Tally Type0000005Election Day - Edge                               0000005000000000
Tally Type0000006MVBM - 400C                                       0000006000000000
Tally Type0000007Election Day - External                           0000007000000000
