Candidate 0000403PATRICIA KERNIGHAN                                0000001000003500
Candidate 0000404JENNIFER S. PAE                                   0000002000003500
Candidate 0000078Write-In                                          0000003000003510
Contest   0000035Member, City Council, District 2 - Oakland (RCV)  0000085000000000
Precinct  0000002200100                                            0000001000000000
Precinct  0000003200200                                            0000002000000000
Precinct  0000004200300                                            0000003000000000
Precinct  0000005200600                                            0000004000000000
Precinct  0000006200700                                            0000005000000000
Precinct  0000007200800                                            0000006000000000
Precinct  0000008201000                                            0000007000000000
Precinct  0000009201100                                            0000008000000000
Precinct  0000010201300                                            0000009000000000
Precinct  0000011201400                                            0000010000000000
Precinct  0000012201410                                            0000011000000000
Precinct  0000013201500                                            0000012000000000
Precinct  0000014201700                                            0000013000000000
Precinct  0000015201900                                            0000014000000000
Precinct  0000016202010                                            0000015000000000
Precinct  0000017202110                                            0000016000000000
Precinct  0000018202400                                            0000017000000000
Precinct  0000019202410                                            0000018000000000
Precinct  0000020202500                                            0000019000000000
Precinct  0000021202510                                            0000020000000000
Precinct  0000022202520                                            0000021000000000
Precinct  0000023202540                                            0000022000000000
Precinct  0000024202600                                            0000023000000000
Precinct  0000025202620                                            0000024000000000
Precinct  0000026202710                                            0000025000000000
Precinct  0000027202900                                            0000026000000000
Precinct  0000028203100                                            0000027000000000
Precinct  0000029203200                                            0000028000000000
Precinct  0000030203300                                            0000029000000000
Precinct  0000031203400                                            0000030000000000
Precinct  0000032203500                                            0000031000000000
Precinct  0000033203800                                            0000032000000000
Precinct  0000034204000                                            0000033000000000
Precinct  0000035204100                                            0000034000000000
Precinct  0000036204210                                            0000035000000000
Precinct  0000037204220                                            0000036000000000
Precinct  0000038204300                                            0000037000000000
Precinct  0000039204310                                            0000038000000000
Precinct  0000040204510                                            0000039000000000
Precinct  0000041204600                                            0000040000000000
Precinct  0000042204800                                            0000041000000000
Precinct  0000043204900                                            0000042000000000
Precinct  0000044204910                                            0000043000000000
Precinct  0000045205000                                            0000044000000000
Precinct  0000046205100                                            0000045000000000
Precinct  0000047205200                                            0000046000000000
Precinct  0000048205500                                            0000047000000000
Precinct  0000049205600                                            0000048000000000
Precinct  0000050205700                                            0000049000000000
Precinct  0000051205800                                            0000050000000000
Precinct  0000052205900                                            0000051000000000
Precinct  0000053206000                                            0000052000000000
Precinct  0000054206100                                            0000053000000000
Precinct  0000055206200                                            0000054000000000
Precinct  0000056206400                                            0000055000000000
Precinct  0000057206700                                            0000056000000000
Precinct  0000058206800                                            0000057000000000
Precinct  0000059207000                                            0000058000000000
Precinct  0000060207100                                            0000059000000000
Precinct  0000061207200                                            0000060000000000
Precinct  0000062207300                                            0000061000000000
Precinct  0000063207500                                            0000062000000000
Precinct  0000064207600                                            0000063000000000
Precinct  0000065207700                                            0000064000000000
Precinct  0000066208000                                            0000065000000000
Precinct  0000067208010                                            0000066000000000
Precinct  0000068208100                                            0000067000000000
Precinct  0000069208110                                            0000068000000000
Precinct  0000070208200                                            0000069000000000
Precinct  0000071208210                                            0000070000000000
Precinct  0000072208300                                            0000071000000000
Precinct  0000073208310                                            0000072000000000
Precinct  0000074208400                                            0000073000000000
Precinct  0000075208500                                            0000074000000000
Precinct  0000076208510                                            0000075000000000
Precinct  0000077208600                                            0000076000000000
Precinct  0000078208610                                            0000077000000000
Precinct  0000079208700                                            0000078000000000
Precinct  0000080208710                                            0000079000000000
Precinct  0000081208800                                            0000080000000000
Precinct  0000082208810                                            0000081000000000
Precinct  0000083208900                                            0000082000000000
Precinct  0000084208910                                            0000083000000000
Precinct  0000085209000                                            0000084000000000
Precinct  0000086209010                                            0000085000000000
Precinct  0000087209100                                            0000086000000000
Precinct  0000088209110                                            0000087000000000
Precinct  0000089209200                                            0000088000000000
Precinct  0000090209300                                            0000089000000000
Precinct  0000091209310                                            0000090000000000
Precinct  0000092209400                                            0000091000000000
Precinct  0000093209410                                            0000092000000000
Precinct  0000094209510                                            0000093000000000
Precinct  0000095209600                                            0000094000000000
Precinct  0000096209610                                            0000095000000000
Precinct  0000097209700                                            0000096000000000
Precinct  0000098209710                                            0000097000000000
Precinct  0000099209800                                            0000098000000000
Precinct  0000100209900                                            0000099000000000
Precinct  0000101213100                                            0000100000000000
Precinct  0000102213300                                            0000101000000000
Precinct  0000103213400                                            0000102000000000
Precinct  0000104213500                                            0000103000000000
Precinct  0000105213600                                            0000104000000000
Precinct  0000106213700                                            0000105000000000
Precinct  0000107213800                                            0000106000000000
Precinct  0000108213900                                            0000107000000000
Precinct  0000109214100                                            0000108000000000
Precinct  0000110214200                                            0000109000000000
Precinct  0000111214300                                            0000110000000000
Precinct  0000112214400                                            0000111000000000
Precinct  0000113214500                                            0000112000000000
Precinct  0000114214600                                            0000113000000000
Precinct  0000115214800                                            0000114000000000
Precinct  0000116215100                                            0000115000000000
Precinct  0000117215120                                            0000116000000000
Precinct  0000118215200                                            0000117000000000
Precinct  0000119215300                                            0000118000000000
Precinct  0000120215500                                            0000119000000000
Precinct  0000121215600                                            0000120000000000
Precinct  0000122215610                                            0000121000000000
Precinct  0000123215700                                            0000122000000000
Precinct  0000124215800                                            0000123000000000
Precinct  0000125223000                                            0000124000000000
Precinct  0000126223010                                            0000125000000000
Precinct  0000127223200                                            0000126000000000
Precinct  0000128223300                                            0000127000000000
Precinct  0000129223400                                            0000128000000000
Precinct  0000130224000                                            0000129000000000
Precinct  0000131224200                                            0000130000000000
Precinct  0000132224300                                            0000131000000000
Precinct  0000133224500                                            0000132000000000
Precinct  0000134224600                                            0000133000000000
Precinct  0000135224700                                            0000134000000000
Precinct  0000136224800                                            0000135000000000
Precinct  0000137225000                                            0000136000000000
Precinct  0000138225100                                            0000137000000000
Precinct  0000139225200                                            0000138000000000
Precinct  0000140225400                                            0000139000000000
Precinct  0000141225600                                            0000140000000000
Precinct  0000142225700                                            0000141000000000
Precinct  0000143225710                                            0000142000000000
Precinct  0000144225810                                            0000143000000000
Precinct  0000145225900                                            0000144000000000
Precinct  0000146225910                                            0000145000000000
Precinct  0000147226100                                            0000146000000000
Precinct  0000148226200                                            0000147000000000
Precinct  0000149226300                                            0000148000000000
Precinct  0000150226400                                            0000149000000000
Precinct  0000151244000                                            0000150000000000
Precinct  0000152244100                                            0000151000000000
Precinct  0000153244200                                            0000152000000000
Precinct  0000154244300                                            0000153000000000
Precinct  0000155244400                                            0000154000000000
Precinct  0000156244500                                            0000155000000000
Precinct  0000157244600                                            0000156000000000
Precinct  0000158244700                                            0000157000000000
Precinct  0000159244800                                            0000158000000000
Precinct  0000160244900                                            0000159000000000
Precinct  0000161245000                                            0000160000000000
Precinct  0000162245100                                            0000161000000000
Precinct  0000163245200                                            0000162000000000
Precinct  0000164260100                                            0000163000000000
Precinct  0000165260300                                            0000164000000000
Precinct  0000166260400                                            0000165000000000
Precinct  0000167260610                                            0000166000000000
Precinct  0000168260800                                            0000167000000000
Precinct  0000169260900                                            0000168000000000
Precinct  0000170261000                                            0000169000000000
Precinct  0000171261300                                            0000170000000000
Precinct  0000172261400                                            0000171000000000
Precinct  0000173261600                                            0000172000000000
Precinct  0000174261700                                            0000173000000000
Precinct  0000175262000                                            0000174000000000
Precinct  0000176262100                                            0000175000000000
Precinct  0000177280100                                            0000176000000000
Precinct  0000178280500                                            0000177000000000
Precinct  0000179280700                                            0000178000000000
Precinct  0000180281000                                            0000179000000000
Precinct  0000181281300                                            0000180000000000
Precinct  0000182281600                                            0000181000000000
Precinct  0000183300000                                            0000182000000000
Precinct  0000184300100                                            0000183000000000
Precinct  0000185300110                                            0000184000000000
Precinct  0000186300120                                            0000185000000000
Precinct  0000187300130                                            0000186000000000
Precinct  0000188300140                                            0000187000000000
Precinct  0000189300150                                            0000188000000000
Precinct  0000190300170                                            0000189000000000
Precinct  0000191300180                                            0000190000000000
Precinct  0000192300200                                            0000191000000000
Precinct  0000193300210                                            0000192000000000
Precinct  0000194300300                                            0000193000000000
Precinct  0000195300400                                            0000194000000000
Precinct  0000196300800                                            0000195000000000
Precinct  0000197301100                                            0000196000000000
Precinct  0000198301200                                            0000197000000000
Precinct  0000199301400                                            0000198000000000
Precinct  0000200301520                                            0000199000000000
Precinct  0000201301800                                            0000200000000000
Precinct  0000202301900                                            0000201000000000
Precinct  0000203302000                                            0000202000000000
Precinct  0000204302100                                            0000203000000000
Precinct  0000205302200                                            0000204000000000
Precinct  0000206302400                                            0000205000000000
Precinct  0000207302500                                            0000206000000000
Precinct  0000208302510                                            0000207000000000
Precinct  0000209302700                                            0000208000000000
Precinct  0000210303000                                            0000209000000000
Precinct  0000211303300                                            0000210000000000
Precinct  0000212303400                                            0000211000000000
Precinct  0000213303500                                            0000212000000000
Precinct  0000214303600                                            0000213000000000
Precinct  0000215303800                                            0000214000000000
Precinct  0000216304000                                            0000215000000000
Precinct  0000217304120                                            0000216000000000
Precinct  0000218304200                                            0000217000000000
Precinct  0000219304500                                            0000218000000000
Precinct  0000220304600                                            0000219000000000
Precinct  0000221304700                                            0000220000000000
Precinct  0000222304800                                            0000221000000000
Precinct  0000223304900                                            0000222000000000
Precinct  0000224305000                                            0000223000000000
Precinct  0000225305010                                            0000224000000000
Precinct  0000226305100                                            0000225000000000
Precinct  0000227305400                                            0000226000000000
Precinct  0000228305410                                            0000227000000000
Precinct  0000229305600                                            0000228000000000
Precinct  0000230305700                                            0000229000000000
Precinct  0000231310000                                            0000230000000000
Precinct  0000232310100                                            0000231000000000
Precinct  0000233310200                                            0000232000000000
Precinct  0000234310300                                            0000233000000000
Precinct  0000235310400                                            0000234000000000
Precinct  0000236310500                                            0000235000000000
Precinct  0000237310600                                            0000236000000000
Precinct  0000238310700                                            0000237000000000
Precinct  0000239310900                                            0000238000000000
Precinct  0000240311100                                            0000239000000000
Precinct  0000241311200                                            0000240000000000
Precinct  0000242311400                                            0000241000000000
Precinct  0000243311510                                            0000242000000000
Precinct  0000244311700                                            0000243000000000
Precinct  0000245323000                                            0000244000000000
Precinct  0000246323200                                            0000245000000000
Precinct  0000247325000                                            0000246000000000
Precinct  0000248325100                                            0000247000000000
Precinct  0000249325200                                            0000248000000000
Precinct  0000250325300                                            0000249000000000
Precinct  0000251325400                                            0000250000000000
Precinct  0000252325500                                            0000251000000000
Precinct  0000253325510                                            0000252000000000
Precinct  0000254325600                                            0000253000000000
Precinct  0000255325700                                            0000254000000000
Precinct  0000256325800                                            0000255000000000
Precinct  0000257333100                                            0000256000000000
Precinct  0000258333200                                            0000257000000000
Precinct  0000259333400                                            0000258000000000
Precinct  0000260333410                                            0000259000000000
Precinct  0000261333500                                            0000260000000000
Precinct  0000262333510                                            0000261000000000
Precinct  0000263333600                                            0000262000000000
Precinct  0000264333800                                            0000263000000000
Precinct  0000265333900                                            0000264000000000
Precinct  0000266334000                                            0000265000000000
Precinct  0000267334100                                            0000266000000000
Precinct  0000268334600                                            0000267000000000
Precinct  0000269334700                                            0000268000000000
Precinct  0000270335000                                            0000269000000000
Precinct  0000271335100                                            0000270000000000
Precinct  0000272335200                                            0000271000000000
Precinct  0000273335300                                            0000272000000000
Precinct  0000274335400                                            0000273000000000
Precinct  0000275335500                                            0000274000000000
Precinct  0000276335600                                            0000275000000000
Precinct  0000277335700                                            0000276000000000
Precinct  0000278335800                                            0000277000000000
Precinct  0000279335900                                            0000278000000000
Precinct  0000280336100                                            0000279000000000
Precinct  0000281336200                                            0000280000000000
Precinct  0000282336400                                            0000281000000000
Precinct  0000283336500                                            0000282000000000
Precinct  0000284336600                                            0000283000000000
Precinct  0000285336710                                            0000284000000000
Precinct  0000286336900                                            0000285000000000
Precinct  0000287337000                                            0000286000000000
Precinct  0000288337100                                            0000287000000000
Precinct  0000289337110                                            0000288000000000
Precinct  0000290344000                                            0000289000000000
Precinct  0000291344010                                            0000290000000000
Precinct  0000292344100                                            0000291000000000
Precinct  0000293344200                                            0000292000000000
Precinct  0000294344300                                            0000293000000000
Precinct  0000295344400                                            0000294000000000
Precinct  0000296344500                                            0000295000000000
Precinct  0000297344600                                            0000296000000000
Precinct  0000298344700                                            0000297000000000
Precinct  0000299344800                                            0000298000000000
Precinct  0000300344900                                            0000299000000000
Precinct  0000301345000                                            0000300000000000
Precinct  0000302345100                                            0000301000000000
Precinct  0000303345200                                            0000302000000000
Precinct  0000304345310                                            0000303000000000
Precinct  0000305345400                                            0000304000000000
Precinct  0000306345500                                            0000305000000000
Precinct  0000307345600                                            0000306000000000
Precinct  0000308345700                                            0000307000000000
Precinct  0000309345800                                            0000308000000000
Precinct  0000310345900                                            0000309000000000
Precinct  0000311346000                                            0000310000000000
Precinct  0000312346100                                            0000311000000000
Precinct  0000313346200                                            0000312000000000
Precinct  0000314347100                                            0000313000000000
Precinct  0000315347200                                            0000314000000000
Precinct  0000316347300                                            0000315000000000
Precinct  0000317353300                                            0000316000000000
Precinct  0000318353310                                            0000317000000000
Precinct  0000319353400                                            0000318000000000
Precinct  0000320353500                                            0000319000000000
Precinct  0000321353600                                            0000320000000000
Precinct  0000322353800                                            0000321000000000
Precinct  0000323353900                                            0000322000000000
Precinct  0000324354000                                            0000323000000000
Precinct  0000325354100                                            0000324000000000
Precinct  0000326354110                                            0000325000000000
Precinct  0000327354300                                            0000326000000000
Precinct  0000328354400                                            0000327000000000
Precinct  0000329354500                                            0000328000000000
Precinct  0000330354700                                            0000329000000000
Precinct  0000331354900                                            0000330000000000
Precinct  0000332354910                                            0000331000000000
Precinct  0000333355100                                            0000332000000000
Precinct  0000334356000                                            0000333000000000
Precinct  0000335356200                                            0000334000000000
Precinct  0000336356210                                            0000335000000000
Precinct  0000337356500                                            0000336000000000
Precinct  0000338361100                                            0000337000000000
Precinct  0000339361110                                            0000338000000000
Precinct  0000340361200                                            0000339000000000
Precinct  0000341361400                                            0000340000000000
Precinct  0000342362000                                            0000341000000000
Precinct  0000343362100                                            0000342000000000
Precinct  0000344362110                                            0000343000000000
Precinct  0000345362300                                            0000344000000000
Precinct  0000346362510                                            0000345000000000
Precinct  0000347362600                                            0000346000000000
Precinct  0000348362800                                            0000347000000000
Precinct  0000349362900                                            0000348000000000
Precinct  0000350363000                                            0000349000000000
Precinct  0000351363100                                            0000350000000000
Precinct  0000352363200                                            0000351000000000
Precinct  0000353363310                                            0000352000000000
Precinct  0000354363600                                            0000353000000000
Precinct  0000355364200                                            0000354000000000
Precinct  0000356364300                                            0000355000000000
Precinct  0000357364310                                            0000356000000000
Precinct  0000358364400                                            0000357000000000
Precinct  0000359364510                                            0000358000000000
Precinct  0000360364600                                            0000359000000000
Precinct  0000361364700                                            0000360000000000
Precinct  0000362364800                                            0000361000000000
Precinct  0000363364900                                            0000362000000000
Precinct  0000364365000                                            0000363000000000
Precinct  0000365365200                                            0000364000000000
Precinct  0000366373100                                            0000365000000000
Precinct  0000367373400                                            0000366000000000
Precinct  0000368373500                                            0000367000000000
Precinct  0000369373900                                            0000368000000000
Precinct  0000370380200                                            0000369000000000
Precinct  0000371380300                                            0000370000000000
Precinct  0000372380400                                            0000371000000000
Precinct  0000373380600                                            0000372000000000
Precinct  0000374380700                                            0000373000000000
Precinct  0000375400100                                            0000374000000000
Precinct  0000376400200                                            0000375000000000
Precinct  0000377400300                                            0000376000000000
Precinct  0000378400400                                            0000377000000000
Precinct  0000379400500                                            0000378000000000
Precinct  0000380400600                                            0000379000000000
Precinct  0000381400700                                            0000380000000000
Precinct  0000382400800                                            0000381000000000
Precinct  0000383400900                                            0000382000000000
Precinct  0000384401100                                            0000383000000000
Precinct  0000385410100                                            0000384000000000
Precinct  0000386410110                                            0000385000000000
Precinct  0000387410300                                            0000386000000000
Precinct  0000388410400                                            0000387000000000
Precinct  0000389410500                                            0000388000000000
Precinct  0000390410600                                            0000389000000000
Precinct  0000391415000                                            0000390000000000
Precinct  0000392415200                                            0000391000000000
Precinct  0000393415300                                            0000392000000000
Precinct  0000394415500                                            0000393000000000
Precinct  0000395415600                                            0000394000000000
Precinct  0000396415800                                            0000395000000000
Precinct  0000397415900                                            0000396000000000
Precinct  0000398420500                                            0000397000000000
Precinct  0000399420600                                            0000398000000000
Precinct  0000400420900                                            0000399000000000
Precinct  0000401421000                                            0000400000000000
Precinct  0000402421100                                            0000401000000000
Precinct  0000403421400                                            0000402000000000
Precinct  0000404421510                                            0000403000000000
Precinct  0000405421700                                            0000404000000000
Precinct  0000406421900                                            0000405000000000
Precinct  0000407422000                                            0000406000000000
Precinct  0000408422100                                            0000407000000000
Precinct  0000409422300                                            0000408000000000
Precinct  0000410422600                                            0000409000000000
Precinct  0000411422700                                            0000410000000000
Precinct  0000412422810                                            0000411000000000
Precinct  0000413422900                                            0000412000000000
Precinct  0000414422910                                            0000413000000000
Precinct  0000415422920                                            0000414000000000
Precinct  0000416423000                                            0000415000000000
Precinct  0000417423400                                            0000416000000000
Precinct  0000418423600                                            0000417000000000
Precinct  0000419423610                                            0000418000000000
Precinct  0000420424000                                            0000419000000000
Precinct  0000421424300                                            0000420000000000
Precinct  0000422424400                                            0000421000000000
Precinct  0000423430100                                            0000422000000000
Precinct  0000424430600                                            0000423000000000
Precinct  0000425430700                                            0000424000000000
Precinct  0000426430900                                            0000425000000000
Precinct  0000427431100                                            0000426000000000
Precinct  0000428431800                                            0000427000000000
Precinct  0000429432000                                            0000428000000000
Precinct  0000430432110                                            0000429000000000
Precinct  0000431432200                                            0000430000000000
Precinct  0000432432300                                            0000431000000000
Precinct  0000433432400                                            0000432000000000
Precinct  0000434432600                                            0000433000000000
Precinct  0000435432700                                            0000434000000000
Precinct  0000436432810                                            0000435000000000
Precinct  0000437432900                                            0000436000000000
Precinct  0000438433100                                            0000437000000000
Precinct  0000439433400                                            0000438000000000
Precinct  0000440433500                                            0000439000000000
Precinct  0000441433610                                            0000440000000000
Precinct  0000442433700                                            0000441000000000
Precinct  0000443433900                                            0000442000000000
Precinct  0000444440100                                            0000443000000000
Precinct  0000445440300                                            0000444000000000
Precinct  0000446440400                                            0000445000000000
Precinct  0000447440610                                            0000446000000000
Precinct  0000448440800                                            0000447000000000
Precinct  0000449441100                                            0000448000000000
Precinct  0000450441300                                            0000449000000000
Precinct  0000451442100                                            0000450000000000
Precinct  0000452442600                                            0000451000000000
Precinct  0000453442700                                            0000452000000000
Precinct  0000454442800                                            0000453000000000
Precinct  0000455443000                                            0000454000000000
Precinct  0000456443100                                            0000455000000000
Precinct  0000457443300                                            0000456000000000
Precinct  0000458443400                                            0000457000000000
Precinct  0000459443500                                            0000458000000000
Precinct  0000460447200                                            0000459000000000
Precinct  0000461447600                                            0000460000000000
Precinct  0000462450300                                            0000461000000000
Precinct  0000463450400                                            0000462000000000
Precinct  0000464450610                                            0000463000000000
Precinct  0000465450800                                            0000464000000000
Precinct  0000466451000                                            0000465000000000
Precinct  0000467451510                                            0000466000000000
Precinct  0000468451600                                            0000467000000000
Precinct  0000469451700                                            0000468000000000
Precinct  0000470452100                                            0000469000000000
Precinct  0000471452200                                            0000470000000000
Precinct  0000472452400                                            0000471000000000
Precinct  0000473452500                                            0000472000000000
Precinct  0000474453100                                            0000473000000000
Precinct  0000475453400                                            0000474000000000
Precinct  0000476453500                                            0000475000000000
Precinct  0000477453900                                            0000476000000000
Precinct  0000478453920                                            0000477000000000
Precinct  0000479454100                                            0000478000000000
Precinct  0000480454500                                            0000479000000000
Precinct  0000481455000                                            0000480000000000
Precinct  0000482455100                                            0000481000000000
Precinct  0000483455300                                            0000482000000000
Precinct  0000484455400                                            0000483000000000
Precinct  0000485455500                                            0000484000000000
Precinct  0000486455700                                            0000485000000000
Precinct  0000487455900                                            0000486000000000
Precinct  0000488456200                                            0000487000000000
Precinct  0000489456500                                            0000488000000000
Precinct  0000490456600                                            0000489000000000
Precinct  0000491456900                                            0000490000000000
Precinct  0000492457100                                            0000491000000000
Precinct  0000493457300                                            0000492000000000
Precinct  0000494457400                                            0000493000000000
Precinct  0000495457500                                            0000494000000000
Precinct  0000496457700                                            0000495000000000
Precinct  0000497457900                                            0000496000000000
Precinct  0000498458200                                            0000497000000000
Precinct  0000499458300                                            0000498000000000
Precinct  0000500458500                                            0000499000000000
Precinct  0000501458800                                            0000500000000000
Precinct  0000502470400                                            0000501000000000
Precinct  0000503470600                                            0000502000000000
Precinct  0000504470900                                            0000503000000000
Precinct  0000505471800                                            0000504000000000
Precinct  0000506471900                                            0000505000000000
Precinct  0000507472000                                            0000506000000000
Precinct  0000508472200                                            0000507000000000
Precinct  0000509472300                                            0000508000000000
Precinct  0000510472400                                            0000509000000000
Precinct  0000511472500                                            0000510000000000
Precinct  0000512473300                                            0000511000000000
Precinct  0000513473400                                            0000512000000000
Precinct  0000514473500                                            0000513000000000
Precinct  0000515473600                                            0000514000000000
Precinct  0000516473800                                            0000515000000000
Precinct  0000517473900                                            0000516000000000
Precinct  0000518474010                                            0000517000000000
Precinct  0000519474020                                            0000518000000000
Precinct  0000520474300                                            0000519000000000
Precinct  0000521474500                                            0000520000000000
Precinct  0000522474600                                            0000521000000000
Precinct  0000523474700                                            0000522000000000
Precinct  0000524474900                                            0000523000000000
Precinct  0000525475000                                            0000524000000000
Precinct  0000526475100                                            0000525000000000
Precinct  0000527475200                                            0000526000000000
Precinct  0000528475500                                            0000527000000000
Precinct  0000529475520                                            0000528000000000
Precinct  0000530475540                                            0000529000000000
Precinct  0000531476100                                            0000530000000000
Precinct  0000532476110                                            0000531000000000
Precinct  0000533481200                                            0000532000000000
Precinct  0000534481410                                            0000533000000000
Precinct  0000535481500                                            0000534000000000
Precinct  0000536481800                                            0000535000000000
Precinct  0000537483000                                            0000536000000000
Precinct  0000538491000                                            0000537000000000
Precinct  0000539491100                                            0000538000000000
Precinct  0000540491200                                            0000539000000000
Precinct  0000541491300                                            0000540000000000
Precinct  0000542491500                                            0000541000000000
Precinct  0000543500100                                            0000542000000000
Precinct  0000544500110                                            0000543000000000
Precinct  0000545500120                                            0000544000000000
Precinct  0000546500130                                            0000545000000000
Precinct  0000547500140                                            0000546000000000
Precinct  0000548500200                                            0000547000000000
Precinct  0000549500210                                            0000548000000000
Precinct  0000550500230                                            0000549000000000
Precinct  0000551500300                                            0000550000000000
Precinct  0000552500310                                            0000551000000000
Precinct  0000553500320                                            0000552000000000
Precinct  0000554500340                                            0000553000000000
Precinct  0000555500400                                            0000554000000000
Precinct  0000556500410                                            0000555000000000
Precinct  0000557500500                                            0000556000000000
Precinct  0000558500600                                            0000557000000000
Precinct  0000559500700                                            0000558000000000
Precinct  0000560500910                                            0000559000000000
Precinct  0000561501000                                            0000560000000000
Precinct  0000562501200                                            0000561000000000
Precinct  0000563501300                                            0000562000000000
Precinct  0000564501400                                            0000563000000000
Precinct  0000565501410                                            0000564000000000
Precinct  0000566501600                                            0000565000000000
Precinct  0000567501610                                            0000566000000000
Precinct  0000568501620                                            0000567000000000
Precinct  0000569501630                                            0000568000000000
Precinct  0000570501640                                            0000569000000000
Precinct  0000571501800                                            0000570000000000
Precinct  0000572501830                                            0000571000000000
Precinct  0000573501840                                            0000572000000000
Precinct  0000574501910                                            0000573000000000
Precinct  0000575502000                                            0000574000000000
Precinct  0000576502010                                            0000575000000000
Precinct  0000577502020                                            0000576000000000
Precinct  0000578502030                                            0000577000000000
Precinct  0000579502100                                            0000578000000000
Precinct  0000580502200                                            0000579000000000
Precinct  0000581502210                                            0000580000000000
Precinct  0000582502220                                            0000581000000000
Precinct  0000583502400                                            0000582000000000
Precinct  0000584502410                                            0000583000000000
Precinct  0000585502500                                            0000584000000000
Precinct  0000586502600                                            0000585000000000
Precinct  0000587502710                                            0000586000000000
Precinct  0000588502720                                            0000587000000000
Precinct  0000589502740                                            0000588000000000
Precinct  0000590502800                                            0000589000000000
Precinct  0000591502900                                            0000590000000000
Precinct  0000592510300                                            0000591000000000
Precinct  0000593520110                                            0000592000000000
Precinct  0000594520210                                            0000593000000000
Precinct  0000595520220                                            0000594000000000
Precinct  0000596520230                                            0000595000000000
Precinct  0000597520240                                            0000596000000000
Precinct  0000598520300                                            0000597000000000
Precinct  0000599520310                                            0000598000000000
Precinct  0000600520320                                            0000599000000000
Precinct  0000601520400                                            0000600000000000
Precinct  0000602520420                                            0000601000000000
Precinct  0000603520500                                            0000602000000000
Precinct  0000604520600                                            0000603000000000
Precinct  0000605520610                                            0000604000000000
Precinct  0000606520630                                            0000605000000000
Precinct  0000607520700                                            0000606000000000
Precinct  0000608520710                                            0000607000000000
Precinct  0000609520810                                            0000608000000000
Precinct  0000610520820                                            0000609000000000
Precinct  0000611520840                                            0000610000000000
Precinct  0000612520860                                            0000611000000000
Precinct  0000613520870                                            0000612000000000
Precinct  0000614521100                                            0000613000000000
Precinct  0000615521300                                            0000614000000000
Precinct  0000616521310                                            0000615000000000
Precinct  0000617521500                                            0000616000000000
Precinct  0000618522000                                            0000617000000000
Precinct  0000619522020                                            0000618000000000
Precinct  0000620522110                                            0000619000000000
Precinct  0000621522120                                            0000620000000000
Precinct  0000622522130                                            0000621000000000
Precinct  0000623522140                                            0000622000000000
Precinct  0000624522150                                            0000623000000000
Precinct  0000625522200                                            0000624000000000
Precinct  0000626522400                                            0000625000000000
Precinct  0000627523110                                            0000626000000000
Precinct  0000628523300                                            0000627000000000
Precinct  0000629523700                                            0000628000000000
Precinct  0000630523710                                            0000629000000000
Precinct  0000631523720                                            0000630000000000
Precinct  0000632523800                                            0000631000000000
Precinct  0000633540300                                            0000632000000000
Precinct  0000634540500                                            0000633000000000
Precinct  0000635540600                                            0000634000000000
Precinct  0000636540700                                            0000635000000000
Precinct  0000637540800                                            0000636000000000
Precinct  0000638541100                                            0000637000000000
Precinct  0000639542000                                            0000638000000000
Precinct  0000640543000                                            0000639000000000
Precinct  0000641543300                                            0000640000000000
Precinct  0000642544400                                            0000641000000000
Precinct  0000643545000                                            0000642000000000
Precinct  0000644546000                                            0000643000000000
Precinct  0000645546100                                            0000644000000000
Precinct  0000646546600                                            0000645000000000
Precinct  0000647547700                                            0000646000000000
Precinct  0000648547750                                            0000647000000000
Precinct  0000649547780                                            0000648000000000
Precinct  0000650821100                                            0000649000000000
Precinct  0000651821110                                            0000650000000000
Precinct  0000652821200                                            0000651000000000
Precinct  0000653821210                                            0000652000000000
Precinct  0000654821400                                            0000653000000000
Precinct  0000655821500                                            0000654000000000
Precinct  0000656821600                                            0000655000000000
Precinct  0000657821710                                            0000656000000000
Precinct  0000658821730                                            0000657000000000
Precinct  0000659821800                                            0000658000000000
Precinct  0000660821900                                            0000659000000000
Precinct  0000661821910                                            0000660000000000
Precinct  0000662822000                                            0000661000000000
Precinct  0000663822010                                            0000662000000000
Precinct  0000664822200                                            0000663000000000
Precinct  0000665823000                                            0000664000000000
Precinct  0000666823100                                            0000665000000000
Precinct  0000667823200                                            0000666000000000
Precinct  0000668823400                                            0000667000000000
Precinct  0000669823500                                            0000668000000000
Precinct  0000670823510                                            0000669000000000
Precinct  0000671823600                                            0000670000000000
Precinct  0000672823610                                            0000671000000000
Precinct  0000673823700                                            0000672000000000
Precinct  0000674823710                                            0000673000000000
Precinct  0000675823720                                            0000674000000000
Precinct  0000676823730                                            0000675000000000
Precinct  0000677823800                                            0000676000000000
Precinct  0000678823810                                            0000677000000000
Precinct  0000679823900                                            0000678000000000
Precinct  0000680830100                                            0000679000000000
Precinct  0000681830200                                            0000680000000000
Precinct  0000682830210                                            0000681000000000
Precinct  0000683830300                                            0000682000000000
Precinct  0000684830500                                            0000683000000000
Precinct  0000685830700                                            0000684000000000
Precinct  0000686831000                                            0000685000000000
Precinct  0000687831200                                            0000686000000000
Precinct  0000688831210                                            0000687000000000
Precinct  0000689831230                                            0000688000000000
Precinct  0000690831300                                            0000689000000000
Precinct  0000691831400                                            0000690000000000
Precinct  0000692831410                                            0000691000000000
Precinct  0000693831500                                            0000692000000000
Precinct  0000694831510                                            0000693000000000
Precinct  0000695831610                                            0000694000000000
Precinct  0000696831700                                            0000695000000000
Precinct  0000697831710                                            0000696000000000
Precinct  0000698831810                                            0000697000000000
Precinct  0000699831830                                            0000698000000000
Precinct  0000700831900                                            0000699000000000
Precinct  0000701831920                                            0000700000000000
Precinct  0000702832000                                            0000701000000000
Precinct  0000703832010                                            0000702000000000
Precinct  0000704832200                                            0000703000000000
Precinct  0000705832210                                            0000704000000000
Precinct  0000706832300                                            0000705000000000
Precinct  0000707832500                                            0000706000000000
Precinct  0000708832510                                            0000707000000000
Precinct  0000709832710                                            0000708000000000
Precinct  0000710832800                                            0000709000000000
Precinct  0000711832810                                            0000710000000000
Precinct  0000712832900                                            0000711000000000
Precinct  0000713833000                                            0000712000000000
Precinct  0000714833100                                            0000713000000000
Precinct  0000715833200                                            0000714000000000
Precinct  0000716833210                                            0000715000000000
Precinct  0000717833300                                            0000716000000000
Precinct  0000718833310                                            0000717000000000
Precinct  0000719833400                                            0000718000000000
Precinct  0000720833500                                            0000719000000000
Precinct  0000721833610                                            0000720000000000
Precinct  0000722833700                                            0000721000000000
Precinct  0000723833710                                            0000722000000000
Precinct  0000724834000                                            0000723000000000
Precinct  0000725834200                                            0000724000000000
Precinct  0000726834400                                            0000725000000000
Precinct  0000727834600                                            0000726000000000
Precinct  0000728834700                                            0000727000000000
Precinct  0000729835000                                            0000728000000000
Precinct  0000730835100                                            0000729000000000
Precinct  0000731835300                                            0000730000000000
Precinct  0000732835310                                            0000731000000000
Precinct  0000733835400                                            0000732000000000
Precinct  0000734835500                                            0000733000000000
Precinct  0000735835610                                            0000734000000000
Precinct  0000736835700                                            0000735000000000
Precinct  0000737835800                                            0000736000000000
Precinct  0000738835820                                            0000737000000000
Precinct  0000739835900                                            0000738000000000
Precinct  0000740836000                                            0000739000000000
Precinct  0000741836100                                            0000740000000000
Precinct  0000742836110                                            0000741000000000
Precinct  0000743836200                                            0000742000000000
Precinct  0000744836400                                            0000743000000000
Precinct  0000745836500                                            0000744000000000
Precinct  0000746836600                                            0000745000000000
Precinct  0000747837000                                            0000746000000000
Precinct  0000748837100                                            0000747000000000
Precinct  0000749837200                                            0000748000000000
Precinct  0000750837300                                            0000749000000000
Precinct  0000751837400                                            0000750000000000
Precinct  0000752837500                                            0000751000000000
Precinct  0000753837600                                            0000752000000000
Precinct  0000754837700                                            0000753000000000
Precinct  0000755837710                                            0000754000000000
Precinct  0000756837800                                            0000755000000000
Precinct  0000757837900                                            0000756000000000
Precinct  0000758838000                                            0000757000000000
Precinct  0000759838110                                            0000758000000000
Precinct  0000760838300                                            0000759000000000
Precinct  0000761838500                                            0000760000000000
Precinct  0000762838600                                            0000761000000000
Precinct  0000763838700                                            0000762000000000
Precinct  0000764839530                                            0000763000000000
Precinct  0000765850300                                            0000764000000000
Precinct  0000766850320                                            0000765000000000
Precinct  0000767850330                                            0000766000000000
Precinct  0000768850400                                            0000767000000000
Precinct  0000769850410                                            0000768000000000
Precinct  0000770850500                                            0000769000000000
Precinct  0000771850600                                            0000770000000000
Precinct  0000772850800                                            0000771000000000
Precinct  0000773850810                                            0000772000000000
Precinct  0000774850900                                            0000773000000000
Precinct  0000775851000                                            0000774000000000
Precinct  0000776851200                                            0000775000000000
Precinct  0000777851300                                            0000776000000000
Precinct  0000778851500                                            0000777000000000
Precinct  0000779851510                                            0000778000000000
Precinct  0000780851520                                            0000779000000000
Precinct  0000781851600                                            0000780000000000
Precinct  0000782851700                                            0000781000000000
Precinct  0000783851800                                            0000782000000000
Precinct  0000784852010                                            0000783000000000
Precinct  0000785852100                                            0000784000000000
Precinct  0000786866800                                            0000785000000000
Precinct  00007879213000                                           0000786000000000
Precinct  00007889215910                                           0000787000000000
Precinct  00007899223100                                           0000788000000000
Precinct  00007909223110                                           0000789000000000
Precinct  00007919224420                                           0000790000000000
Precinct  00007929224710                                           0000791000000000
Precinct  00007939224910                                           0000792000000000
Precinct  00007949225500                                           0000793000000000
Precinct  00007959244110                                           0000794000000000
Precinct  00007969325920                                           0000795000000000
Precinct  00007979333300                                           0000796000000000
Precinct  00007989333910                                           0000797000000000
Precinct  00007999333920                                           0000798000000000
Precinct  00008009334510                                           0000799000000000
Precinct  00008019336810                                           0000800000000000
Precinct  00008029336910                                           0000801000000000
Precinct  00008039336920                                           0000802000000000
Precinct  00008049345300                                           0000803000000000
Precinct  00008059345710                                           0000804000000000
Precinct  00008069355210                                           0000805000000000
Precinct  00008079356400                                           0000806000000000
Precinct  00008089360900                                           0000807000000000
Precinct  00008099361000                                           0000808000000000
Precinct  00008109361210                                           0000809000000000
Precinct  00008119364020                                           0000810000000000
Precinct  00008129373000                                           0000811000000000
Precinct  00008139373010                                           0000812000000000
Precinct  00008149373020                                           0000813000000000
Precinct  00008159394000                                           0000814000000000
Precinct  00008169394100                                           0000815000000000
Precinct  00008179394200                                           0000816000000000
Precinct  00008189416220                                           0000817000000000
Precinct  00008199420030                                           0000818000000000
Precinct  00008209420040                                           0000819000000000
Precinct  00008219420050                                           0000820000000000
Precinct  00008229420200                                           0000821000000000
Precinct  00008239420210                                           0000822000000000
Precinct  00008249420220                                           0000823000000000
Precinct  00008259420230                                           0000824000000000
Precinct  00008269420240                                           0000825000000000
Precinct  00008279420250                                           0000826000000000
Precinct  00008289420300                                           0000827000000000
Precinct  00008299420310                                           0000828000000000
Precinct  00008309420320                                           0000829000000000
Precinct  00008319420800                                           0000830000000000
Precinct  00008329422930                                           0000831000000000
Precinct  00008339423620                                           0000832000000000
Precinct  00008349423700                                           0000833000000000
Precinct  00008359423800                                           0000834000000000
Precinct  00008369423810                                           0000835000000000
Precinct  00008379424200                                           0000836000000000
Precinct  00008389430010                                           0000837000000000
Precinct  00008399430020                                           0000838000000000
Precinct  00008409430110                                           0000839000000000
Precinct  00008419430160                                           0000840000000000
Precinct  00008429430410                                           0000841000000000
Precinct  00008439430420                                           0000842000000000
Precinct  00008449430500                                           0000843000000000
Precinct  00008459430510                                           0000844000000000
Precinct  00008469430710                                           0000845000000000
Precinct  00008479430720                                           0000846000000000
Precinct  00008489430800                                           0000847000000000
Precinct  00008499430820                                           0000848000000000
Precinct  00008509430830                                           0000849000000000
Precinct  00008519431110                                           0000850000000000
Precinct  00008529431120                                           0000851000000000
Precinct  00008539431200                                           0000852000000000
Precinct  00008549431210                                           0000853000000000
Precinct  00008559431300                                           0000854000000000
Precinct  00008569431400                                           0000855000000000
Precinct  00008579431500                                           0000856000000000
Precinct  00008589431610                                           0000857000000000
Precinct  00008599431620                                           0000858000000000
Precinct  00008609431700                                           0000859000000000
Precinct  00008619431900                                           0000860000000000
Precinct  00008629433620                                           0000861000000000
Precinct  00008639433630                                           0000862000000000
Precinct  00008649438120                                           0000863000000000
Precinct  00008659438140                                           0000864000000000
Precinct  00008669438500                                           0000865000000000
Precinct  00008679443700                                           0000866000000000
Precinct  00008689443710                                           0000867000000000
Precinct  00008699443720                                           0000868000000000
Precinct  00008709443800                                           0000869000000000
Precinct  00008719447010                                           0000870000000000
Precinct  00008729447020                                           0000871000000000
Precinct  00008739447100                                           0000872000000000
Precinct  00008749447210                                           0000873000000000
Precinct  00008759447220                                           0000874000000000
Precinct  00008769447300                                           0000875000000000
Precinct  00008779447310                                           0000876000000000
Precinct  00008789447410                                           0000877000000000
Precinct  00008799447510                                           0000878000000000
Precinct  00008809447700                                           0000879000000000
Precinct  00008819447720                                           0000880000000000
Precinct  00008829447730                                           0000881000000000
Precinct  00008839450910                                           0000882000000000
Precinct  00008849453200                                           0000883000000000
Precinct  00008859454220                                           0000884000000000
Precinct  00008869454530                                           0000885000000000
Precinct  00008879454540                                           0000886000000000
Precinct  00008889454600                                           0000887000000000
Precinct  00008899454700                                           0000888000000000
Precinct  00008909454800                                           0000889000000000
Precinct  00008919456610                                           0000890000000000
Precinct  00008929464000                                           0000891000000000
Precinct  00008939464010                                           0000892000000000
Precinct  00008949464210                                           0000893000000000
Precinct  00008959464300                                           0000894000000000
Precinct  00008969464500                                           0000895000000000
Precinct  00008979464600                                           0000896000000000
Precinct  00008989464620                                           0000897000000000
Precinct  00008999464630                                           0000898000000000
Precinct  00009009464640                                           0000899000000000
Precinct  00009019464700                                           0000900000000000
Precinct  00009029470100                                           0000901000000000
Precinct  00009039470110                                           0000902000000000
Precinct  00009049470310                                           0000903000000000
Precinct  00009059470700                                           0000904000000000
Precinct  00009069472920                                           0000905000000000
Precinct  00009079473910                                           0000906000000000
Precinct  00009089475210                                           0000907000000000
Precinct  00009099475300                                           0000908000000000
Precinct  00009109475530                                           0000909000000000
Precinct  00009119481100                                           0000910000000000
Precinct  00009129481110                                           0000911000000000
Precinct  00009139481310                                           0000912000000000
Precinct  00009149481420                                           0000913000000000
Precinct  00009159481430                                           0000914000000000
Precinct  00009169481520                                           0000915000000000
Precinct  00009179481530                                           0000916000000000
Precinct  00009189481540                                           0000917000000000
Precinct  00009199481810                                           0000918000000000
Precinct  00009209481900                                           0000919000000000
Precinct  00009219481910                                           0000920000000000
Precinct  00009229482010                                           0000921000000000
Precinct  00009239482030                                           0000922000000000
Precinct  00009249484000                                           0000923000000000
Precinct  00009259490020                                           0000924000000000
Precinct  00009269490040                                           0000925000000000
Precinct  00009279490100                                           0000926000000000
Precinct  00009289490200                                           0000927000000000
Precinct  00009299490210                                           0000928000000000
Precinct  00009309490300                                           0000929000000000
Precinct  00009319491010                                           0000930000000000
Precinct  00009329491020                                           0000931000000000
Precinct  00009339491050                                           0000932000000000
Precinct  00009349491080                                           0000933000000000
Precinct  00009359491410                                           0000934000000000
Precinct  00009369491600                                           0000935000000000
Precinct  00009379491610                                           0000936000000000
Precinct  00009389491630                                           0000937000000000
Precinct  00009399492000                                           0000938000000000
Precinct  00009409492010                                           0000939000000000
Precinct  00009419492020                                           0000940000000000
Precinct  00009429492040                                           0000941000000000
Precinct  00009439492100                                           0000942000000000
Precinct  00009449492120                                           0000943000000000
Precinct  00009459498100                                           0000944000000000
Precinct  00009469498200                                           0000945000000000
Precinct  00009479499000                                           0000946000000000
Precinct  00009489499010                                           0000947000000000
Precinct  00009499500220                                           0000948000000000
Precinct  00009509501710                                           0000949000000000
Precinct  00009519502910                                           0000950000000000
Precinct  00009529502920                                           0000951000000000
Precinct  00009539510100                                           0000952000000000
Precinct  00009549510110                                           0000953000000000
Precinct  00009559510120                                           0000954000000000
Precinct  00009569510310                                           0000955000000000
Precinct  00009579510320                                           0000956000000000
Precinct  00009589510400                                           0000957000000000
Precinct  00009599510410                                           0000958000000000
Precinct  00009609510500                                           0000959000000000
Precinct  00009619510610                                           0000960000000000
Precinct  00009629510700                                           0000961000000000
Precinct  00009639510710                                           0000962000000000
Precinct  00009649510720                                           0000963000000000
Precinct  00009659510730                                           0000964000000000
Precinct  00009669510800                                           0000965000000000
Precinct  00009679510830                                           0000966000000000
Precinct  00009689510840                                           0000967000000000
Precinct  00009699510910                                           0000968000000000
Precinct  00009709511000                                           0000969000000000
Precinct  00009719511010                                           0000970000000000
Precinct  00009729520250                                           0000971000000000
Precinct  00009739520720                                           0000972000000000
Precinct  00009749520730                                           0000973000000000
Precinct  00009759521700                                           0000974000000000
Precinct  00009769522160                                           0000975000000000
Precinct  00009779523100                                           0000976000000000
Precinct  00009789530100                                           0000977000000000
Precinct  00009799530200                                           0000978000000000
Precinct  00009809532000                                           0000979000000000
Precinct  00009819532100                                           0000980000000000
Precinct  00009829532200                                           0000981000000000
Precinct  00009839532400                                           0000982000000000
Precinct  00009849535000                                           0000983000000000
Precinct  00009859535010                                           0000984000000000
Precinct  00009869535020                                           0000985000000000
Precinct  00009879535030                                           0000986000000000
Precinct  00009889535040                                           0000987000000000
Precinct  00009899535060                                           0000988000000000
Precinct  00009909535200                                           0000989000000000
Precinct  00009919535300                                           0000990000000000
Precinct  00009929535400                                           0000991000000000
Precinct  00009939535500                                           0000992000000000
Precinct  00009949535600                                           0000993000000000
Precinct  00009959535700                                           0000994000000000
Precinct  00009969535800                                           0000995000000000
Precinct  00009979535900                                           0000996000000000
Precinct  00009989540400                                           0000997000000000
Precinct  00009999547710                                           0000998000000000
Precinct  00010009547720                                           0000999000000000
Precinct  00010019810900                                           0001000000000000
Precinct  00010029815090                                           0001001000000000
Precinct  00010039815100                                           0001002000000000
Precinct  00010049815120                                           0001003000000000
Precinct  00010059815130                                           0001004000000000
Precinct  00010069815140                                           0001005000000000
Precinct  00010079819010                                           0001006000000000
Precinct  00010089819020                                           0001007000000000
Precinct  00010099819110                                           0001008000000000
Precinct  00010109820000                                           0001009000000000
Precinct  00010119821310                                           0001010000000000
Precinct  00010129822020                                           0001011000000000
Precinct  00010139823020                                           0001012000000000
Precinct  00010149823030                                           0001013000000000
Precinct  00010159831220                                           0001014000000000
Precinct  00010169834020                                           0001015000000000
Precinct  00010179837050                                           0001016000000000
Precinct  00010189839000                                           0001017000000000
Precinct  00010199839060                                           0001018000000000
Precinct  00010209839100                                           0001019000000000
Precinct  00010219839210                                           0001020000000000
Precinct  00010229839220                                           0001021000000000
Precinct  00010239839300                                           0001022000000000
Precinct  00010249839400                                           0001023000000000
Precinct  00010259839510                                           0001024000000000
Precinct  00010269866810                                           0001025000000000
Precinct  00010279866820                                           0001026000000000
Precinct  00010289866830                                           0001027000000000
Precinct  00010299866840                                           0001028000000000
Precinct  00010309866850                                           0001029000000000
Precinct  00010319866920                                           0001030000000000
Precinct  00010329867100                                           0001031000000000
Precinct  00010339867110                                           0001032000000000
Precinct  00010349867200                                           0001033000000000
Precinct  00010359867300                                           0001034000000000
Precinct  00010369867310                                           0001035000000000
Precinct  00010379867400                                           0001036000000000
Precinct  00010389870000                                           0001037000000000
Precinct  00010399870010                                           0001038000000000
Precinct  00010409870100                                           0001039000000000
Precinct  00010419870110                                           0001040000000000
Precinct  00010429870120                                           0001041000000000
Precinct  00010439870150                                           0001042000000000
Precinct  00010449870300                                           0001043000000000
Precinct  00010459880100                                           0001044000000000
Precinct  00010469880210                                           0001045000000000
Precinct  00010479880300                                           0001046000000000
Precinct  00010489880310                                           0001047000000000
Precinct  00010499880400                                           0001048000000000
Precinct  00010509880410                                           0001049000000000
Precinct  00010519880500                                           0001050000000000
Tally Type0000001Election Day - Insight                            0000001000000000
Tally Type0000002Election Day - 400C                               0000002000000000
Tally Type0000003Vote by Mail - 400C                               0000003000000000
Tally Type0000004Provisional - 400C                                0000004000000000
Tally Type0000005Election Day - Edge                               0000005000000000
Tally Type0000006MVBM - 400C                                       0000006000000000
Tally Type0000007Election Day - External                           0000007000000000
