Candidate 0000142SCOTT WIENER                                      0000001000001000
Candidate 0000143REBECCA PROZAN                                    0000002000001000
Candidate 0000144RAFAEL MANDELMAN                                  0000003000001000
Candidate 0000145BILL HEMENGER                                     0000004000001000
Candidate 0000022WRITE-IN                                          0000005000001010
Contest   0000010Board of Supervisors, District 8                  0000036000000000
Precinct  0000002PCT 1101                                          0000001000000000
Precinct  0000003PCT 1102                                          0000002000000000
Precinct  0000004PCT 1103                                          0000003000000000
Precinct  0000005PCT 1104                                          0000004000000000
Precinct  0000006PCT 1105                                          0000005000000000
Precinct  0000007PCT 1106                                          0000006000000000
Precinct  0000008PCT 1107                                          0000007000000000
Precinct  0000009PCT 1108                                          0000008000000000
Precinct  0000010PCT 1109                                          0000009000000000
Precinct  0000011PCT 1111                                          0000010000000000
Precinct  0000012PCT 1112                                          0000011000000000
Precinct  0000013PCT 1113                                          0000012000000000
Precinct  0000014PCT 1114                                          0000013000000000
Precinct  0000015PCT 1115                                          0000014000000000
Precinct  0000016PCT 1116                                          0000015000000000
Precinct  0000017PCT 1117                                          0000016000000000
Precinct  0000018PCT 1118                                          0000017000000000
Precinct  0000019PCT 1119                                          0000018000000000
Precinct  0000020PCT 1121                                          0000019000000000
Precinct  0000021PCT 1122                                          0000020000000000
Precinct  0000022PCT 1123                                          0000021000000000
Precinct  0000023PCT 1124                                          0000022000000000
Precinct  0000024PCT 1125                                          0000023000000000
Precinct  0000025PCT 1126                                          0000024000000000
Precinct  0000026PCT 1127                                          0000025000000000
Precinct  0000027PCT 1128                                          0000026000000000
Precinct  0000028PCT 1129                                          0000027000000000
Precinct  0000029PCT 1131                                          0000028000000000
Precinct  0000030PCT 1132 MAIL BALLOT                              0000029000000000
Precinct  0000031PCT 1133                                          0000030000000000
Precinct  0000032PCT 1134                                          0000031000000000
Precinct  0000033PCT 1135                                          0000032000000000
Precinct  0000034PCT 1136                                          0000033000000000
Precinct  0000035PCT 1137                                          0000034000000000
Precinct  0000036PCT 1138                                          0000035000000000
Precinct  0000037PCT 1139                                          0000036000000000
Precinct  0000038PCT 1141                                          0000037000000000
Precinct  0000039PCT 1142                                          0000038000000000
Precinct  0000040PCT 1143                                          0000039000000000
Precinct  0000041PCT 1144                                          0000040000000000
Precinct  0000042PCT 1145                                          0000041000000000
Precinct  0000043PCT 1146                                          0000042000000000
Precinct  0000044PCT 1147                                          0000043000000000
Precinct  0000045PCT 2001                                          0000044000000000
Precinct  0000046PCT 2002                                          0000045000000000
Precinct  0000047PCT 2003                                          0000046000000000
Precinct  0000048PCT 2004                                          0000047000000000
Precinct  0000049PCT 2005                                          0000048000000000
Precinct  0000050PCT 2006                                          0000049000000000
Precinct  0000051PCT 2007                                          0000050000000000
Precinct  0000052PCT 2008                                          0000051000000000
Precinct  0000053PCT 2009 MAIL BALLOT                              0000052000000000
Precinct  0000054PCT 2011                                          0000053000000000
Precinct  0000055PCT 2013/2012                                     0000054000000000
Precinct  0000056PCT 2014                                          0000055000000000
Precinct  0000057PCT 2015                                          0000056000000000
Precinct  0000058PCT 2016                                          0000057000000000
Precinct  0000059PCT 2017                                          0000058000000000
Precinct  0000060PCT 2018                                          0000059000000000
Precinct  0000061PCT 2019                                          0000060000000000
Precinct  0000062PCT 2101                                          0000061000000000
Precinct  0000063PCT 2102                                          0000062000000000
Precinct  0000064PCT 2103                                          0000063000000000
Precinct  0000065PCT 2104                                          0000064000000000
Precinct  0000066PCT 2105                                          0000065000000000
Precinct  0000067PCT 2106                                          0000066000000000
Precinct  0000068PCT 2107                                          0000067000000000
Precinct  0000069PCT 2108                                          0000068000000000
Precinct  0000070PCT 2109                                          0000069000000000
Precinct  0000071PCT 2111                                          0000070000000000
Precinct  0000072PCT 2112                                          0000071000000000
Precinct  0000073PCT 2113                                          0000072000000000
Precinct  0000074PCT 2114                                          0000073000000000
Precinct  0000075PCT 2115                                          0000074000000000
Precinct  0000076PCT 2116                                          0000075000000000
Precinct  0000077PCT 2117                                          0000076000000000
Precinct  0000078PCT 2118                                          0000077000000000
Precinct  0000079PCT 2119                                          0000078000000000
Precinct  0000080PCT 2121                                          0000079000000000
Precinct  0000081PCT 2122                                          0000080000000000
Precinct  0000082PCT 2123                                          0000081000000000
Precinct  0000083PCT 2124                                          0000082000000000
Precinct  0000084PCT 2125                                          0000083000000000
Precinct  0000085PCT 2126                                          0000084000000000
Precinct  0000086PCT 2127                                          0000085000000000
Precinct  0000087PCT 2128                                          0000086000000000
Precinct  0000088PCT 2129                                          0000087000000000
Precinct  0000089PCT 2131                                          0000088000000000
Precinct  0000090PCT 2132                                          0000089000000000
Precinct  0000091PCT 2133                                          0000090000000000
Precinct  0000092PCT 2134                                          0000091000000000
Precinct  0000093PCT 2135                                          0000092000000000
Precinct  0000094PCT 2136                                          0000093000000000
Precinct  0000095PCT 2137                                          0000094000000000
Precinct  0000096PCT 2138                                          0000095000000000
Precinct  0000097PCT 2139                                          0000096000000000
Precinct  0000098PCT 2141                                          0000097000000000
Precinct  0000099PCT 2142                                          0000098000000000
Precinct  0000100PCT 2143                                          0000099000000000
Precinct  0000101PCT 2144                                          0000100000000000
Precinct  0000102PCT 2145                                          0000101000000000
Precinct  0000103PCT 2146                                          0000102000000000
Precinct  0000104PCT 2147                                          0000103000000000
Precinct  0000105PCT 2148                                          0000104000000000
Precinct  0000106PCT 2149                                          0000105000000000
Precinct  0000107PCT 2150                                          0000106000000000
Precinct  0000108PCT 2151                                          0000107000000000
Precinct  0000109PCT 2152 MAIL BALLOT                              0000108000000000
Precinct  0000110PCT 2200                                          0000109000000000
Precinct  0000111PCT 2201                                          0000110000000000
Precinct  0000112PCT 2202                                          0000111000000000
Precinct  0000113PCT 2203                                          0000112000000000
Precinct  0000114PCT 2204                                          0000113000000000
Precinct  0000115PCT 2205                                          0000114000000000
Precinct  0000116PCT 2206                                          0000115000000000
Precinct  0000117PCT 2207                                          0000116000000000
Precinct  0000118PCT 2208                                          0000117000000000
Precinct  0000119PCT 2209                                          0000118000000000
Precinct  0000120PCT 2211                                          0000119000000000
Precinct  0000121PCT 2212                                          0000120000000000
Precinct  0000122PCT 2213                                          0000121000000000
Precinct  0000123PCT 2214                                          0000122000000000
Precinct  0000124PCT 2215                                          0000123000000000
Precinct  0000125PCT 2216 MAIL BALLOT                              0000124000000000
Precinct  0000126PCT 2217                                          0000125000000000
Precinct  0000127PCT 2218                                          0000126000000000
Precinct  0000128PCT 2219 MAIL BALLOT                              0000127000000000
Precinct  0000129PCT 2401                                          0000128000000000
Precinct  0000130PCT 2402                                          0000129000000000
Precinct  0000131PCT 2403                                          0000130000000000
Precinct  0000132PCT 2404                                          0000131000000000
Precinct  0000133PCT 2405                                          0000132000000000
Precinct  0000134PCT 2406                                          0000133000000000
Precinct  0000135PCT 2407                                          0000134000000000
Precinct  0000136PCT 2408                                          0000135000000000
Precinct  0000137PCT 2409                                          0000136000000000
Precinct  0000138PCT 2411                                          0000137000000000
Precinct  0000139PCT 2412                                          0000138000000000
Precinct  0000140PCT 2413                                          0000139000000000
Precinct  0000141PCT 2414                                          0000140000000000
Precinct  0000142PCT 2415                                          0000141000000000
Precinct  0000143PCT 2416                                          0000142000000000
Precinct  0000144PCT 2417                                          0000143000000000
Precinct  0000145PCT 2418                                          0000144000000000
Precinct  0000146PCT 2419                                          0000145000000000
Precinct  0000147PCT 2421                                          0000146000000000
Precinct  0000148PCT 2422                                          0000147000000000
Precinct  0000149PCT 2423                                          0000148000000000
Precinct  0000150PCT 2424                                          0000149000000000
Precinct  0000151PCT 2425                                          0000150000000000
Precinct  0000152PCT 2426                                          0000151000000000
Precinct  0000153PCT 2427                                          0000152000000000
Precinct  0000154PCT 2428                                          0000153000000000
Precinct  0000155PCT 2429                                          0000154000000000
Precinct  0000156PCT 2431                                          0000155000000000
Precinct  0000157PCT 2432                                          0000156000000000
Precinct  0000158PCT 2433                                          0000157000000000
Precinct  0000159PCT 2434                                          0000158000000000
Precinct  0000160PCT 2435                                          0000159000000000
Precinct  0000161PCT 2436                                          0000160000000000
Precinct  0000162PCT 2437                                          0000161000000000
Precinct  0000163PCT 2438                                          0000162000000000
Precinct  0000164PCT 2439                                          0000163000000000
Precinct  0000165PCT 2441                                          0000164000000000
Precinct  0000166PCT 2442                                          0000165000000000
Precinct  0000167PCT 2443                                          0000166000000000
Precinct  0000168PCT 2444                                          0000167000000000
Precinct  0000169PCT 2445                                          0000168000000000
Precinct  0000170PCT 2446                                          0000169000000000
Precinct  0000171PCT 2447                                          0000170000000000
Precinct  0000172PCT 2448                                          0000171000000000
Precinct  0000173PCT 2449                                          0000172000000000
Precinct  0000174PCT 2451                                          0000173000000000
Precinct  0000175PCT 2501                                          0000174000000000
Precinct  0000176PCT 2502 MAIL BALLOT                              0000175000000000
Precinct  0000177PCT 2503                                          0000176000000000
Precinct  0000178PCT 2504                                          0000177000000000
Precinct  0000179PCT 2505                                          0000178000000000
Precinct  0000180PCT 2506                                          0000179000000000
Precinct  0000181PCT 2507                                          0000180000000000
Precinct  0000182PCT 2508                                          0000181000000000
Precinct  0000183PCT 2509                                          0000182000000000
Precinct  0000184PCT 2511                                          0000183000000000
Precinct  0000185PCT 2512                                          0000184000000000
Precinct  0000186PCT 2513                                          0000185000000000
Precinct  0000187PCT 2514 MAIL BALLOT                              0000186000000000
Precinct  0000188PCT 2515                                          0000187000000000
Precinct  0000189PCT 2701                                          0000188000000000
Precinct  0000190PCT 2702                                          0000189000000000
Precinct  0000191PCT 2703                                          0000190000000000
Precinct  0000192PCT 2704                                          0000191000000000
Precinct  0000193PCT 2705                                          0000192000000000
Precinct  0000194PCT 2706                                          0000193000000000
Precinct  0000195PCT 2707                                          0000194000000000
Precinct  0000196PCT 2708                                          0000195000000000
Precinct  0000197PCT 2709                                          0000196000000000
Precinct  0000198PCT 2711                                          0000197000000000
Precinct  0000199PCT 2712                                          0000198000000000
Precinct  0000200PCT 2713                                          0000199000000000
Precinct  0000201PCT 2714                                          0000200000000000
Precinct  0000202PCT 2715                                          0000201000000000
Precinct  0000203PCT 2716 MAIL BALLOT                              0000202000000000
Precinct  0000204PCT 2717                                          0000203000000000
Precinct  0000205PCT 2718                                          0000204000000000
Precinct  0000206PCT 2719                                          0000205000000000
Precinct  0000207PCT 2721                                          0000206000000000
Precinct  0000208PCT 2722                                          0000207000000000
Precinct  0000209PCT 2723                                          0000208000000000
Precinct  0000210PCT 2724                                          0000209000000000
Precinct  0000211PCT 2725                                          0000210000000000
Precinct  0000212PCT 2726                                          0000211000000000
Precinct  0000213PCT 2727                                          0000212000000000
Precinct  0000214PCT 2728                                          0000213000000000
Precinct  0000215PCT 2729                                          0000214000000000
Precinct  0000216PCT 2730                                          0000215000000000
Precinct  0000217PCT 2731                                          0000216000000000
Precinct  0000218PCT 2732                                          0000217000000000
Precinct  0000219PCT 2733                                          0000218000000000
Precinct  0000220PCT 2734                                          0000219000000000
Precinct  0000221PCT 2735                                          0000220000000000
Precinct  0000222PCT 2736                                          0000221000000000
Precinct  0000223PCT 2737                                          0000222000000000
Precinct  0000224PCT 2738                                          0000223000000000
Precinct  0000225PCT 2739                                          0000224000000000
Precinct  0000226PCT 2741                                          0000225000000000
Precinct  0000227PCT 2742                                          0000226000000000
Precinct  0000228PCT 2743                                          0000227000000000
Precinct  0000229PCT 2744                                          0000228000000000
Precinct  0000230PCT 2745                                          0000229000000000
Precinct  0000231PCT 2746                                          0000230000000000
Precinct  0000232PCT 2747                                          0000231000000000
Precinct  0000233PCT 2748                                          0000232000000000
Precinct  0000234PCT 2749                                          0000233000000000
Precinct  0000235PCT 2751                                          0000234000000000
Precinct  0000236PCT 2752                                          0000235000000000
Precinct  0000237PCT 2753                                          0000236000000000
Precinct  0000238PCT 2754 MAIL BALLOT                              0000237000000000
Precinct  0000239PCT 2755                                          0000238000000000
Precinct  0000240PCT 2756                                          0000239000000000
Precinct  0000241PCT 2757                                          0000240000000000
Precinct  0000242PCT 2758                                          0000241000000000
Precinct  0000243PCT 2759                                          0000242000000000
Precinct  0000244PCT 2761                                          0000243000000000
Precinct  0000245PCT 2901                                          0000244000000000
Precinct  0000246PCT 2902                                          0000245000000000
Precinct  0000247PCT 2903                                          0000246000000000
Precinct  0000248PCT 2904                                          0000247000000000
Precinct  0000249PCT 2905                                          0000248000000000
Precinct  0000250PCT 2906                                          0000249000000000
Precinct  0000251PCT 3000 MAIL BALLOT                              0000250000000000
Precinct  0000252PCT 3001                                          0000251000000000
Precinct  0000253PCT 3002                                          0000252000000000
Precinct  0000254PCT 3003                                          0000253000000000
Precinct  0000255PCT 3004                                          0000254000000000
Precinct  0000256PCT 3005                                          0000255000000000
Precinct  0000257PCT 3006                                          0000256000000000
Precinct  0000258PCT 3007                                          0000257000000000
Precinct  0000259PCT 3008                                          0000258000000000
Precinct  0000260PCT 3009                                          0000259000000000
Precinct  0000261PCT 3010                                          0000260000000000
Precinct  0000262PCT 3011                                          0000261000000000
Precinct  0000263PCT 3012 MAIL BALLOT                              0000262000000000
Precinct  0000264PCT 3013                                          0000263000000000
Precinct  0000265PCT 3014                                          0000264000000000
Precinct  0000266PCT 3015                                          0000265000000000
Precinct  0000267PCT 3016                                          0000266000000000
Precinct  0000268PCT 3017                                          0000267000000000
Precinct  0000269PCT 3018                                          0000268000000000
Precinct  0000270PCT 3019                                          0000269000000000
Precinct  0000271PCT 3020                                          0000270000000000
Precinct  0000272PCT 3021                                          0000271000000000
Precinct  0000273PCT 3022                                          0000272000000000
Precinct  0000274PCT 3023                                          0000273000000000
Precinct  0000275PCT 3024                                          0000274000000000
Precinct  0000276PCT 3025                                          0000275000000000
Precinct  0000277PCT 3026                                          0000276000000000
Precinct  0000278PCT 3027                                          0000277000000000
Precinct  0000279PCT 3028                                          0000278000000000
Precinct  0000280PCT 3029 MAIL BALLOT                              0000279000000000
Precinct  0000281PCT 3031                                          0000280000000000
Precinct  0000282PCT 3032                                          0000281000000000
Precinct  0000283PCT 3033                                          0000282000000000
Precinct  0000284PCT 3034                                          0000283000000000
Precinct  0000285PCT 3035                                          0000284000000000
Precinct  0000286PCT 3036                                          0000285000000000
Precinct  0000287PCT 3037                                          0000286000000000
Precinct  0000288PCT 3038 MAIL BALLOT                              0000287000000000
Precinct  0000289PCT 3039 MAIL BALLOT                              0000288000000000
Precinct  0000290PCT 3101 MAIL BALLOT                              0000289000000000
Precinct  0000291PCT 3200                                          0000290000000000
Precinct  0000292PCT 3201                                          0000291000000000
Precinct  0000293PCT 3202                                          0000292000000000
Precinct  0000294PCT 3203                                          0000293000000000
Precinct  0000295PCT 3204                                          0000294000000000
Precinct  0000296PCT 3205                                          0000295000000000
Precinct  0000297PCT 3206                                          0000296000000000
Precinct  0000298PCT 3207                                          0000297000000000
Precinct  0000299PCT 3208                                          0000298000000000
Precinct  0000300PCT 3209                                          0000299000000000
Precinct  0000301PCT 3210                                          0000300000000000
Precinct  0000302PCT 3211                                          0000301000000000
Precinct  0000303PCT 3212                                          0000302000000000
Precinct  0000304PCT 3213                                          0000303000000000
Precinct  0000305PCT 3214                                          0000304000000000
Precinct  0000306PCT 3215                                          0000305000000000
Precinct  0000307PCT 3216                                          0000306000000000
Precinct  0000308PCT 3217                                          0000307000000000
Precinct  0000309PCT 3218                                          0000308000000000
Precinct  0000310PCT 3219                                          0000309000000000
Precinct  0000311PCT 3221                                          0000310000000000
Precinct  0000312PCT 3222                                          0000311000000000
Precinct  0000313PCT 3223                                          0000312000000000
Precinct  0000314PCT 3224                                          0000313000000000
Precinct  0000315PCT 3225                                          0000314000000000
Precinct  0000316PCT 3226                                          0000315000000000
Precinct  0000317PCT 3227                                          0000316000000000
Precinct  0000318PCT 3228                                          0000317000000000
Precinct  0000319PCT 3229                                          0000318000000000
Precinct  0000320PCT 3231                                          0000319000000000
Precinct  0000321PCT 3232                                          0000320000000000
Precinct  0000322PCT 3233                                          0000321000000000
Precinct  0000323PCT 3234                                          0000322000000000
Precinct  0000324PCT 3235                                          0000323000000000
Precinct  0000325PCT 3236                                          0000324000000000
Precinct  0000326PCT 3237                                          0000325000000000
Precinct  0000327PCT 3238                                          0000326000000000
Precinct  0000328PCT 3239                                          0000327000000000
Precinct  0000329PCT 3241                                          0000328000000000
Precinct  0000330PCT 3242                                          0000329000000000
Precinct  0000331PCT 3243                                          0000330000000000
Precinct  0000332PCT 3301                                          0000331000000000
Precinct  0000333PCT 3302                                          0000332000000000
Precinct  0000334PCT 3303                                          0000333000000000
Precinct  0000335PCT 3304                                          0000334000000000
Precinct  0000336PCT 3305                                          0000335000000000
Precinct  0000337PCT 3306                                          0000336000000000
Precinct  0000338PCT 3307                                          0000337000000000
Precinct  0000339PCT 3308                                          0000338000000000
Precinct  0000340PCT 3309                                          0000339000000000
Precinct  0000341PCT 3311                                          0000340000000000
Precinct  0000342PCT 3312                                          0000341000000000
Precinct  0000343PCT 3313                                          0000342000000000
Precinct  0000344PCT 3314                                          0000343000000000
Precinct  0000345PCT 3315                                          0000344000000000
Precinct  0000346PCT 3316                                          0000345000000000
Precinct  0000347PCT 3317                                          0000346000000000
Precinct  0000348PCT 3318                                          0000347000000000
Precinct  0000349PCT 3319                                          0000348000000000
Precinct  0000350PCT 3321                                          0000349000000000
Precinct  0000351PCT 3322                                          0000350000000000
Precinct  0000352PCT 3323                                          0000351000000000
Precinct  0000353PCT 3324                                          0000352000000000
Precinct  0000354PCT 3325                                          0000353000000000
Precinct  0000355PCT 3326                                          0000354000000000
Precinct  0000356PCT 3327                                          0000355000000000
Precinct  0000357PCT 3328/3337                                     0000356000000000
Precinct  0000358PCT 3329                                          0000357000000000
Precinct  0000359PCT 3331                                          0000358000000000
Precinct  0000360PCT 3332                                          0000359000000000
Precinct  0000361PCT 3333                                          0000360000000000
Precinct  0000362PCT 3334                                          0000361000000000
Precinct  0000363PCT 3335                                          0000362000000000
Precinct  0000364PCT 3336                                          0000363000000000
Precinct  0000365PCT 3338                                          0000364000000000
Precinct  0000366PCT 3339                                          0000365000000000
Precinct  0000367PCT 3341                                          0000366000000000
Precinct  0000368PCT 3342                                          0000367000000000
Precinct  0000369PCT 3343                                          0000368000000000
Precinct  0000370PCT 3344                                          0000369000000000
Precinct  0000371PCT 3345                                          0000370000000000
Precinct  0000372PCT 3346                                          0000371000000000
Precinct  0000373PCT 3347                                          0000372000000000
Precinct  0000374PCT 3348                                          0000373000000000
Precinct  0000375PCT 3349                                          0000374000000000
Precinct  0000376PCT 3351                                          0000375000000000
Precinct  0000377PCT 3501                                          0000376000000000
Precinct  0000378PCT 3502                                          0000377000000000
Precinct  0000379PCT 3503                                          0000378000000000
Precinct  0000380PCT 3504                                          0000379000000000
Precinct  0000381PCT 3505                                          0000380000000000
Precinct  0000382PCT 3506                                          0000381000000000
Precinct  0000383PCT 3507                                          0000382000000000
Precinct  0000384PCT 3508                                          0000383000000000
Precinct  0000385PCT 3509                                          0000384000000000
Precinct  0000386PCT 3510                                          0000385000000000
Precinct  0000387PCT 3511                                          0000386000000000
Precinct  0000388PCT 3512                                          0000387000000000
Precinct  0000389PCT 3513                                          0000388000000000
Precinct  0000390PCT 3514                                          0000389000000000
Precinct  0000391PCT 3515                                          0000390000000000
Precinct  0000392PCT 3516                                          0000391000000000
Precinct  0000393PCT 3517                                          0000392000000000
Precinct  0000394PCT 3518                                          0000393000000000
Precinct  0000395PCT 3519                                          0000394000000000
Precinct  0000396PCT 3520                                          0000395000000000
Precinct  0000397PCT 3521                                          0000396000000000
Precinct  0000398PCT 3522                                          0000397000000000
Precinct  0000399PCT 3523                                          0000398000000000
Precinct  0000400PCT 3524                                          0000399000000000
Precinct  0000401PCT 3525                                          0000400000000000
Precinct  0000402PCT 3526                                          0000401000000000
Precinct  0000403PCT 3527                                          0000402000000000
Precinct  0000404PCT 3528                                          0000403000000000
Precinct  0000405PCT 3529                                          0000404000000000
Precinct  0000406PCT 3531                                          0000405000000000
Precinct  0000407PCT 3532                                          0000406000000000
Precinct  0000408PCT 3533                                          0000407000000000
Precinct  0000409PCT 3534                                          0000408000000000
Precinct  0000410PCT 3535                                          0000409000000000
Precinct  0000411PCT 3536                                          0000410000000000
Precinct  0000412PCT 3537                                          0000411000000000
Precinct  0000413PCT 3538                                          0000412000000000
Precinct  0000414PCT 3539                                          0000413000000000
Precinct  0000415PCT 3541                                          0000414000000000
Precinct  0000416PCT 3542                                          0000415000000000
Precinct  0000417PCT 3543                                          0000416000000000
Precinct  0000418PCT 3544                                          0000417000000000
Precinct  0000419PCT 3545                                          0000418000000000
Precinct  0000420PCT 3546                                          0000419000000000
Precinct  0000421PCT 3547                                          0000420000000000
Precinct  0000422PCT 3548                                          0000421000000000
Precinct  0000423PCT 3549                                          0000422000000000
Precinct  0000424PCT 3551                                          0000423000000000
Precinct  0000425PCT 3552                                          0000424000000000
Precinct  0000426PCT 3553                                          0000425000000000
Precinct  0000427PCT 3554                                          0000426000000000
Precinct  0000428PCT 3555 MAIL BALLOT                              0000427000000000
Precinct  0000429PCT 3601                                          0000428000000000
Precinct  0000430PCT 3602                                          0000429000000000
Precinct  0000431PCT 3603                                          0000430000000000
Precinct  0000432PCT 3604                                          0000431000000000
Precinct  0000433PCT 3605                                          0000432000000000
Precinct  0000434PCT 3606                                          0000433000000000
Precinct  0000435PCT 3607 MAIL BALLOT                              0000434000000000
Precinct  0000436PCT 3608                                          0000435000000000
Precinct  0000437PCT 3609                                          0000436000000000
Precinct  0000438PCT 3610                                          0000437000000000
Precinct  0000439PCT 3611                                          0000438000000000
Precinct  0000440PCT 3612                                          0000439000000000
Precinct  0000441PCT 3613                                          0000440000000000
Precinct  0000442PCT 3614                                          0000441000000000
Precinct  0000443PCT 3615                                          0000442000000000
Precinct  0000444PCT 3616                                          0000443000000000
Precinct  0000445PCT 3617                                          0000444000000000
Precinct  0000446PCT 3618                                          0000445000000000
Precinct  0000447PCT 3619                                          0000446000000000
Precinct  0000448PCT 3620                                          0000447000000000
Precinct  0000449PCT 3621                                          0000448000000000
Precinct  0000450PCT 3622                                          0000449000000000
Precinct  0000451PCT 3623                                          0000450000000000
Precinct  0000452PCT 3624                                          0000451000000000
Precinct  0000453PCT 3625                                          0000452000000000
Precinct  0000454PCT 3626                                          0000453000000000
Precinct  0000455PCT 3627                                          0000454000000000
Precinct  0000456PCT 3628                                          0000455000000000
Precinct  0000457PCT 3629                                          0000456000000000
Precinct  0000458PCT 3630                                          0000457000000000
Precinct  0000459PCT 3631                                          0000458000000000
Precinct  0000460PCT 3632                                          0000459000000000
Precinct  0000461PCT 3633                                          0000460000000000
Precinct  0000462PCT 3634                                          0000461000000000
Precinct  0000463PCT 3635                                          0000462000000000
Precinct  0000464PCT 3636                                          0000463000000000
Precinct  0000465PCT 3637                                          0000464000000000
Precinct  0000466PCT 3638                                          0000465000000000
Precinct  0000467PCT 3639                                          0000466000000000
Precinct  0000468PCT 3640                                          0000467000000000
Precinct  0000469PCT 3641                                          0000468000000000
Precinct  0000470PCT 3642                                          0000469000000000
Precinct  0000471PCT 3643                                          0000470000000000
Precinct  0000472PCT 3644                                          0000471000000000
Precinct  0000473PCT 3645                                          0000472000000000
Precinct  0000474PCT 3646                                          0000473000000000
Precinct  0000475PCT 3647                                          0000474000000000
Precinct  0000476PCT 3648                                          0000475000000000
Precinct  0000477PCT 3649                                          0000476000000000
Precinct  0000478PCT 3650                                          0000477000000000
Precinct  0000479PCT 3651                                          0000478000000000
Precinct  0000480PCT 3652                                          0000479000000000
Precinct  0000481PCT 3653                                          0000480000000000
Precinct  0000482PCT 3654                                          0000481000000000
Precinct  0000483PCT 3655 MAIL BALLOT                              0000482000000000
Precinct  0000484PCT 3656                                          0000483000000000
Precinct  0000485PCT 3657                                          0000484000000000
Precinct  0000486PCT 3658                                          0000485000000000
Precinct  0000487PCT 3659                                          0000486000000000
Precinct  0000488PCT 3701 MAIL BALLOT                              0000487000000000
Precinct  0000489PCT 3702 MAIL BALLOT                              0000488000000000
Precinct  0000490PCT 3703                                          0000489000000000
Precinct  0000491PCT 3801                                          0000490000000000
Precinct  0000492PCT 3802                                          0000491000000000
Precinct  0000493PCT 3803                                          0000492000000000
Precinct  0000494PCT 3804                                          0000493000000000
Precinct  0000495PCT 3805                                          0000494000000000
Precinct  0000496PCT 3806                                          0000495000000000
Precinct  0000497PCT 3807                                          0000496000000000
Precinct  0000498PCT 3808                                          0000497000000000
Precinct  0000499PCT 3809                                          0000498000000000
Precinct  0000500PCT 3811                                          0000499000000000
Precinct  0000501PCT 3812                                          0000500000000000
Precinct  0000502PCT 3813                                          0000501000000000
Precinct  0000503PCT 3814                                          0000502000000000
Precinct  0000504PCT 3815                                          0000503000000000
Precinct  0000505PCT 3816                                          0000504000000000
Precinct  0000506PCT 3817                                          0000505000000000
Precinct  0000507PCT 3818                                          0000506000000000
Precinct  0000508PCT 3819                                          0000507000000000
Precinct  0000509PCT 3821                                          0000508000000000
Precinct  0000510PCT 3822                                          0000509000000000
Precinct  0000511PCT 3823                                          0000510000000000
Precinct  0000512PCT 3824                                          0000511000000000
Precinct  0000513PCT 3825                                          0000512000000000
Precinct  0000514PCT 3826                                          0000513000000000
Precinct  0000515PCT 3827                                          0000514000000000
Precinct  0000516PCT 3828                                          0000515000000000
Precinct  0000517PCT 3829                                          0000516000000000
Precinct  0000518PCT 3831                                          0000517000000000
Precinct  0000519PCT 3832                                          0000518000000000
Precinct  0000520PCT 3833                                          0000519000000000
Precinct  0000521PCT 3834                                          0000520000000000
Precinct  0000522PCT 3835                                          0000521000000000
Precinct  0000523PCT 3836                                          0000522000000000
Precinct  0000524PCT 3837                                          0000523000000000
Precinct  0000525PCT 3838                                          0000524000000000
Precinct  0000526PCT 3839                                          0000525000000000
Precinct  0000527PCT 3841                                          0000526000000000
Precinct  0000528PCT 3842                                          0000527000000000
Precinct  0000529PCT 3843                                          0000528000000000
Precinct  0000530PCT 3844                                          0000529000000000
Precinct  0000531PCT 3845                                          0000530000000000
Precinct  0000532PCT 3846                                          0000531000000000
Precinct  0000533PCT 3847                                          0000532000000000
Precinct  0000534PCT 3848                                          0000533000000000
Precinct  0000535PCT 3849                                          0000534000000000
Precinct  0000536PCT 3851                                          0000535000000000
Precinct  0000537PCT 3852                                          0000536000000000
Precinct  0000538PCT 3853                                          0000537000000000
Precinct  0000539PCT 3854                                          0000538000000000
Precinct  0000540PCT 3855                                          0000539000000000
Precinct  0000541PCT 3856                                          0000540000000000
Precinct  0000542PCT 3857                                          0000541000000000
Precinct  0000543PCT 3858                                          0000542000000000
Precinct  0000544PCT 3859                                          0000543000000000
Precinct  0000545PCT 3861                                          0000544000000000
Precinct  0000546PCT 3862                                          0000545000000000
Precinct  0000547PCT 3863                                          0000546000000000
Precinct  0000548PCT 3864                                          0000547000000000
Precinct  0000549PCT 3865                                          0000548000000000
Precinct  0000550PCT 3866                                          0000549000000000
Precinct  0000551PCT 3867                                          0000550000000000
Precinct  0000552PCT 3868                                          0000551000000000
Precinct  0000553PCT 3869 MAIL BALLOT                              0000552000000000
Precinct  0000554PCT 3871                                          0000553000000000
Precinct  0000555PCT 3872                                          0000554000000000
Precinct  0000556PCT 3901                                          0000555000000000
Precinct  0000557PCT 3902                                          0000556000000000
Precinct  0000558PCT 3903                                          0000557000000000
Precinct  0000559PCT 3904                                          0000558000000000
Precinct  0000560PCT 3905                                          0000559000000000
Precinct  0000561PCT 3906                                          0000560000000000
Precinct  0000562PCT 3907                                          0000561000000000
Precinct  0000563PCT 3908                                          0000562000000000
Precinct  0000564PCT 3909                                          0000563000000000
Precinct  0000565PCT 3911                                          0000564000000000
Precinct  0000566PCT 3912                                          0000565000000000
Precinct  0000567PCT 3913                                          0000566000000000
Precinct  0000568PCT 3914                                          0000567000000000
Precinct  0000569PCT 3915                                          0000568000000000
Precinct  0000570PCT 3916                                          0000569000000000
Precinct  0000571PCT 3917                                          0000570000000000
Precinct  0000572PCT 3918                                          0000571000000000
Precinct  0000573PCT 3919                                          0000572000000000
Precinct  0000574PCT 3921                                          0000573000000000
Precinct  0000575PCT 3922                                          0000574000000000
Precinct  0000576PCT 3923                                          0000575000000000
Precinct  0000577PCT 3924                                          0000576000000000
Precinct  0000578PCT 3925                                          0000577000000000
Precinct  0000579PCT 3926                                          0000578000000000
Precinct  0000580PCT 3927                                          0000579000000000
Precinct  0000581PCT 3928                                          0000580000000000
Precinct  0000582PCT 3929                                          0000581000000000
Precinct  0000583PCT 3931                                          0000582000000000
Precinct  0000584PCT 3932                                          0000583000000000
Precinct  0000585PCT 3933                                          0000584000000000
Precinct  0000586PCT 3934                                          0000585000000000
Precinct  0000587PCT 3935                                          0000586000000000
Precinct  0000588PCT 3936                                          0000587000000000
Precinct  0000589PCT 3937                                          0000588000000000
Precinct  0000590PCT 3938 MAIL BALLOT                              0000589000000000
Precinct  0000591PCT 3939 MAIL BALLOT                              0000590000000000
Tally Type0000001Election Day - Insight                            0000001000000000
Tally Type0000002VBM / EV - 400c 1st Cut                           0000002000000000
Tally Type0000003Provisional - 400C                                0000003000000000
Tally Type0000004Election Day - 400C                               0000004000000000
Tally Type0000005Election Day - Edge                               0000005000000000
Tally Type0000006Election Day - Edge Dups                          0000006000000000
Tally Type0000009VBM / EV - 400c 2nd Cut                           0000007000000000
