Candidate 0000025CHRIS CUNNIE                                      0000001000000200
Candidate 0000026DAVID WONG                                        0000002000000200
Candidate 0000027PAUL MIYAMOTO                                     0000003000000200
Candidate 0000028ROSS MIRKARIMI                                    0000004000000200
Candidate 0000002WRITE-IN                                          0000005000000210
Contest   0000002Sheriff                                           0000002000000000
Precinct  0000001Pct 1101/1104                                     0000001000000000
Precinct  0000002Pct 1105/1102                                     0000002000000000
Precinct  0000003Pct 1107/1106                                     0000003000000000
Precinct  0000004Pct 1108                                          0000004000000000
Precinct  0000005Pct 1109/1103                                     0000005000000000
Precinct  0000006Pct 1112/1111                                     0000006000000000
Precinct  0000007Pct 1113/1114                                     0000007000000000
Precinct  0000008Pct 1116/1115                                     0000008000000000
Precinct  0000009Pct 1117                                          0000009000000000
Precinct  0000010Pct 1118                                          0000010000000000
Precinct  0000011Pct 1119/1121                                     0000011000000000
Precinct  0000012Pct 1123/1122                                     0000012000000000
Precinct  0000013Pct 1124/1138                                     0000013000000000
Precinct  0000014Pct 1126/1125                                     0000014000000000
Precinct  0000015Pct 1128/1127                                     0000015000000000
Precinct  0000016Pct 1129/1131                                     0000016000000000
Precinct  0000017Pct 1132 MB                                       0000017000000000
Precinct  0000018Pct 1133                                          0000018000000000
Precinct  0000019Pct 1134                                          0000019000000000
Precinct  0000020Pct 1135                                          0000020000000000
Precinct  0000021Pct 1136                                          0000021000000000
Precinct  0000022Pct 1137                                          0000022000000000
Precinct  0000023Pct 1139                                          0000023000000000
Precinct  0000024Pct 1142/1141                                     0000024000000000
Precinct  0000025Pct 1143/1144                                     0000025000000000
Precinct  0000026Pct 1145                                          0000026000000000
Precinct  0000027Pct 1146                                          0000027000000000
Precinct  0000028Pct 1147                                          0000028000000000
Precinct  0000029Pct 2001                                          0000029000000000
Precinct  0000030Pct 2004/2003                                     0000030000000000
Precinct  0000031Pct 2005/2002                                     0000031000000000
Precinct  0000032Pct 2006                                          0000032000000000
Precinct  0000033Pct 2007                                          0000033000000000
Precinct  0000034Pct 2008                                          0000034000000000
Precinct  0000035Pct 2009 MB                                       0000035000000000
Precinct  0000036Pct 2013/2012                                     0000036000000000
Precinct  0000037Pct 2014/2011                                     0000037000000000
Precinct  0000038Pct 2015                                          0000038000000000
Precinct  0000039Pct 2016/2017                                     0000039000000000
Precinct  0000040Pct 2018                                          0000040000000000
Precinct  0000041Pct 2019                                          0000041000000000
Precinct  0000042Pct 2101/2102                                     0000042000000000
Precinct  0000043Pct 2103/2104                                     0000043000000000
Precinct  0000044Pct 2107/2105                                     0000044000000000
Precinct  0000045Pct 2108/2109                                     0000045000000000
Precinct  0000046Pct 2111/2106                                     0000046000000000
Precinct  0000047Pct 2112                                          0000047000000000
Precinct  0000048Pct 2113/2114                                     0000048000000000
Precinct  0000049Pct 2115/2116                                     0000049000000000
Precinct  0000050Pct 2117                                          0000050000000000
Precinct  0000051Pct 2119/2118                                     0000051000000000
Precinct  0000052Pct 2121/2137                                     0000052000000000
Precinct  0000053Pct 2122/2138                                     0000053000000000
Precinct  0000054Pct 2123                                          0000054000000000
Precinct  0000055Pct 2124                                          0000055000000000
Precinct  0000056Pct 2125                                          0000056000000000
Precinct  0000057Pct 2126                                          0000057000000000
Precinct  0000058Pct 2127                                          0000058000000000
Precinct  0000059Pct 2128/2129                                     0000059000000000
Precinct  0000060Pct 2131                                          0000060000000000
Precinct  0000061Pct 2132                                          0000061000000000
Precinct  0000062Pct 2133                                          0000062000000000
Precinct  0000063Pct 2134                                          0000063000000000
Precinct  0000064Pct 2135                                          0000064000000000
Precinct  0000065Pct 2136                                          0000065000000000
Precinct  0000066Pct 2139                                          0000066000000000
Precinct  0000067Pct 2141/2142                                     0000067000000000
Precinct  0000068Pct 2143                                          0000068000000000
Precinct  0000069Pct 2144                                          0000069000000000
Precinct  0000070Pct 2146/2145                                     0000070000000000
Precinct  0000071Pct 2147                                          0000071000000000
Precinct  0000072Pct 2148/2149                                     0000072000000000
Precinct  0000073Pct 2151/2150                                     0000073000000000
Precinct  0000074Pct 2152 MB                                       0000074000000000
Precinct  0000075Pct 2200                                          0000075000000000
Precinct  0000076Pct 2201                                          0000076000000000
Precinct  0000077Pct 2202                                          0000077000000000
Precinct  0000078Pct 2203/2204                                     0000078000000000
Precinct  0000079Pct 2205/2206                                     0000079000000000
Precinct  0000080Pct 2207/2213                                     0000080000000000
Precinct  0000081Pct 2208                                          0000081000000000
Precinct  0000082Pct 2212/2211                                     0000082000000000
Precinct  0000083Pct 2214                                          0000083000000000
Precinct  0000084Pct 2215/2209                                     0000084000000000
Precinct  0000085Pct 2216 MB                                       0000085000000000
Precinct  0000086Pct 2217                                          0000086000000000
Precinct  0000087Pct 2218                                          0000087000000000
Precinct  0000088Pct 2219 MB                                       0000088000000000
Precinct  0000089Pct 2403                                          0000089000000000
Precinct  0000090Pct 2405                                          0000090000000000
Precinct  0000091Pct 2406                                          0000091000000000
Precinct  0000092Pct 2407                                          0000092000000000
Precinct  0000093Pct 2408                                          0000093000000000
Precinct  0000094Pct 2409/2401                                     0000094000000000
Precinct  0000095Pct 2411/2402                                     0000095000000000
Precinct  0000096Pct 2412                                          0000096000000000
Precinct  0000097Pct 2413/2404                                     0000097000000000
Precinct  0000098Pct 2414                                          0000098000000000
Precinct  0000099Pct 2415/2416                                     0000099000000000
Precinct  0000100Pct 2421/2419                                     0000100000000000
Precinct  0000101Pct 2422                                          0000101000000000
Precinct  0000102Pct 2423/2427                                     0000102000000000
Precinct  0000103Pct 2424/2417                                     0000103000000000
Precinct  0000104Pct 2426/2425                                     0000104000000000
Precinct  0000105Pct 2429/2418                                     0000105000000000
Precinct  0000106Pct 2431/2432                                     0000106000000000
Precinct  0000107Pct 2433/2434                                     0000107000000000
Precinct  0000108Pct 2435/2428                                     0000108000000000
Precinct  0000109Pct 2436                                          0000109000000000
Precinct  0000110Pct 2437                                          0000110000000000
Precinct  0000111Pct 2438/2444                                     0000111000000000
Precinct  0000112Pct 2442/2443                                     0000112000000000
Precinct  0000113Pct 2446/2439                                     0000113000000000
Precinct  0000114Pct 2447                                          0000114000000000
Precinct  0000115Pct 2448/2441                                     0000115000000000
Precinct  0000116Pct 2449                                          0000116000000000
Precinct  0000117Pct 2451/2445                                     0000117000000000
Precinct  0000118Pct 2501                                          0000118000000000
Precinct  0000119Pct 2502 MB                                       0000119000000000
Precinct  0000120Pct 2503                                          0000120000000000
Precinct  0000121Pct 2504/2505                                     0000121000000000
Precinct  0000122Pct 2506/2507                                     0000122000000000
Precinct  0000123Pct 2509                                          0000123000000000
Precinct  0000124Pct 2511/2508                                     0000124000000000
Precinct  0000125Pct 2512                                          0000125000000000
Precinct  0000126Pct 2513/2515                                     0000126000000000
Precinct  0000127Pct 2514 MB                                       0000127000000000
Precinct  0000128Pct 2701                                          0000128000000000
Precinct  0000129Pct 2702                                          0000129000000000
Precinct  0000130Pct 2703                                          0000130000000000
Precinct  0000131Pct 2705/2704                                     0000131000000000
Precinct  0000132Pct 2706                                          0000132000000000
Precinct  0000133Pct 2707                                          0000133000000000
Precinct  0000134Pct 2709                                          0000134000000000
Precinct  0000135Pct 2713/2712                                     0000135000000000
Precinct  0000136Pct 2714                                          0000136000000000
Precinct  0000137Pct 2715                                          0000137000000000
Precinct  0000138Pct 2716 MB                                       0000138000000000
Precinct  0000139Pct 2717/2708                                     0000139000000000
Precinct  0000140Pct 2718/2711                                     0000140000000000
Precinct  0000141Pct 2721                                          0000141000000000
Precinct  0000142Pct 2722/2726                                     0000142000000000
Precinct  0000143Pct 2723                                          0000143000000000
Precinct  0000144Pct 2724/2719                                     0000144000000000
Precinct  0000145Pct 2725                                          0000145000000000
Precinct  0000146Pct 2727                                          0000146000000000
Precinct  0000147Pct 2728                                          0000147000000000
Precinct  0000148Pct 2729/2731                                     0000148000000000
Precinct  0000149Pct 2730                                          0000149000000000
Precinct  0000150Pct 2733/2749                                     0000150000000000
Precinct  0000151Pct 2734                                          0000151000000000
Precinct  0000152Pct 2735/2739                                     0000152000000000
Precinct  0000153Pct 2736                                          0000153000000000
Precinct  0000154Pct 2737                                          0000154000000000
Precinct  0000155Pct 2738                                          0000155000000000
Precinct  0000156Pct 2741/2752                                     0000156000000000
Precinct  0000157Pct 2742                                          0000157000000000
Precinct  0000158Pct 2743                                          0000158000000000
Precinct  0000159Pct 2744                                          0000159000000000
Precinct  0000160Pct 2745                                          0000160000000000
Precinct  0000161Pct 2746/2732                                     0000161000000000
Precinct  0000162Pct 2747                                          0000162000000000
Precinct  0000163Pct 2748                                          0000163000000000
Precinct  0000164Pct 2751                                          0000164000000000
Precinct  0000165Pct 2753/2755                                     0000165000000000
Precinct  0000166Pct 2754 MB                                       0000166000000000
Precinct  0000167Pct 2756                                          0000167000000000
Precinct  0000168Pct 2757                                          0000168000000000
Precinct  0000169Pct 2758                                          0000169000000000
Precinct  0000170Pct 2759                                          0000170000000000
Precinct  0000171Pct 2761                                          0000171000000000
Precinct  0000172Pct 2901/2905                                     0000172000000000
Precinct  0000173Pct 2902/2906                                     0000173000000000
Precinct  0000174Pct 2904/2903                                     0000174000000000
Precinct  0000175Pct 3000 MB                                       0000175000000000
Precinct  0000176Pct 3001                                          0000176000000000
Precinct  0000177Pct 3002                                          0000177000000000
Precinct  0000178Pct 3003                                          0000178000000000
Precinct  0000179Pct 3004/3006                                     0000179000000000
Precinct  0000180Pct 3005                                          0000180000000000
Precinct  0000181Pct 3007                                          0000181000000000
Precinct  0000182Pct 3008/3010                                     0000182000000000
Precinct  0000183Pct 3009                                          0000183000000000
Precinct  0000184Pct 3011                                          0000184000000000
Precinct  0000185Pct 3012 MB                                       0000185000000000
Precinct  0000186Pct 3013/3018                                     0000186000000000
Precinct  0000187Pct 3015                                          0000187000000000
Precinct  0000188Pct 3016                                          0000188000000000
Precinct  0000189Pct 3019                                          0000189000000000
Precinct  0000190Pct 3021/3020                                     0000190000000000
Precinct  0000191Pct 3022/3014                                     0000191000000000
Precinct  0000192Pct 3023/3017                                     0000192000000000
Precinct  0000193Pct 3024                                          0000193000000000
Precinct  0000194Pct 3025                                          0000194000000000
Precinct  0000195Pct 3026                                          0000195000000000
Precinct  0000196Pct 3027                                          0000196000000000
Precinct  0000197Pct 3028                                          0000197000000000
Precinct  0000198Pct 3029 MB                                       0000198000000000
Precinct  0000199Pct 3031                                          0000199000000000
Precinct  0000200Pct 3033/3032                                     0000200000000000
Precinct  0000201Pct 3034                                          0000201000000000
Precinct  0000202Pct 3036/3035                                     0000202000000000
Precinct  0000203Pct 3037                                          0000203000000000
Precinct  0000204Pct 3038 MB                                       0000204000000000
Precinct  0000205Pct 3039 MB                                       0000205000000000
Precinct  0000206Pct 3101 MB                                       0000206000000000
Precinct  0000207Pct 3200                                          0000207000000000
Precinct  0000208Pct 3201                                          0000208000000000
Precinct  0000209Pct 3203/3204                                     0000209000000000
Precinct  0000210Pct 3205/3221                                     0000210000000000
Precinct  0000211Pct 3206                                          0000211000000000
Precinct  0000212Pct 3207/3202                                     0000212000000000
Precinct  0000213Pct 3208                                          0000213000000000
Precinct  0000214Pct 3209/3211                                     0000214000000000
Precinct  0000215Pct 3212                                          0000215000000000
Precinct  0000216Pct 3213/3210                                     0000216000000000
Precinct  0000217Pct 3214                                          0000217000000000
Precinct  0000218Pct 3215                                          0000218000000000
Precinct  0000219Pct 3216                                          0000219000000000
Precinct  0000220Pct 3217                                          0000220000000000
Precinct  0000221Pct 3218                                          0000221000000000
Precinct  0000222Pct 3222                                          0000222000000000
Precinct  0000223Pct 3223                                          0000223000000000
Precinct  0000224Pct 3224                                          0000224000000000
Precinct  0000225Pct 3225                                          0000225000000000
Precinct  0000226Pct 3226                                          0000226000000000
Precinct  0000227Pct 3227                                          0000227000000000
Precinct  0000228Pct 3228/3219                                     0000228000000000
Precinct  0000229Pct 3229                                          0000229000000000
Precinct  0000230Pct 3233                                          0000230000000000
Precinct  0000231Pct 3234                                          0000231000000000
Precinct  0000232Pct 3235/3231                                     0000232000000000
Precinct  0000233Pct 3236/3232                                     0000233000000000
Precinct  0000234Pct 3238/3237                                     0000234000000000
Precinct  0000235Pct 3239                                          0000235000000000
Precinct  0000236Pct 3241                                          0000236000000000
Precinct  0000237Pct 3242                                          0000237000000000
Precinct  0000238Pct 3243                                          0000238000000000
Precinct  0000239Pct 3301                                          0000239000000000
Precinct  0000240Pct 3302/3306                                     0000240000000000
Precinct  0000241Pct 3303/3304                                     0000241000000000
Precinct  0000242Pct 3305                                          0000242000000000
Precinct  0000243Pct 3308                                          0000243000000000
Precinct  0000244Pct 3309                                          0000244000000000
Precinct  0000245Pct 3311/3329                                     0000245000000000
Precinct  0000246Pct 3312                                          0000246000000000
Precinct  0000247Pct 3314/3313                                     0000247000000000
Precinct  0000248Pct 3315                                          0000248000000000
Precinct  0000249Pct 3316                                          0000249000000000
Precinct  0000250Pct 3317/3307                                     0000250000000000
Precinct  0000251Pct 3318/3319                                     0000251000000000
Precinct  0000252Pct 3321                                          0000252000000000
Precinct  0000253Pct 3322/3323                                     0000253000000000
Precinct  0000254Pct 3324/3325                                     0000254000000000
Precinct  0000255Pct 3326                                          0000255000000000
Precinct  0000256Pct 3327                                          0000256000000000
Precinct  0000257Pct 3328/3337                                     0000257000000000
Precinct  0000258Pct 3332/3331                                     0000258000000000
Precinct  0000259Pct 3333                                          0000259000000000
Precinct  0000260Pct 3335                                          0000260000000000
Precinct  0000261Pct 3336/3344                                     0000261000000000
Precinct  0000262Pct 3338                                          0000262000000000
Precinct  0000263Pct 3342/3341                                     0000263000000000
Precinct  0000264Pct 3343/3334                                     0000264000000000
Precinct  0000265Pct 3345/3339                                     0000265000000000
Precinct  0000266Pct 3346                                          0000266000000000
Precinct  0000267Pct 3347                                          0000267000000000
Precinct  0000268Pct 3348                                          0000268000000000
Precinct  0000269Pct 3349/3351                                     0000269000000000
Precinct  0000270Pct 3502/3501                                     0000270000000000
Precinct  0000271Pct 3504/3503                                     0000271000000000
Precinct  0000272Pct 3505                                          0000272000000000
Precinct  0000273Pct 3506                                          0000273000000000
Precinct  0000274Pct 3507                                          0000274000000000
Precinct  0000275Pct 3509/3508                                     0000275000000000
Precinct  0000276Pct 3510                                          0000276000000000
Precinct  0000277Pct 3511                                          0000277000000000
Precinct  0000278Pct 3512                                          0000278000000000
Precinct  0000279Pct 3513/3514                                     0000279000000000
Precinct  0000280Pct 3515                                          0000280000000000
Precinct  0000281Pct 3516                                          0000281000000000
Precinct  0000282Pct 3517                                          0000282000000000
Precinct  0000283Pct 3518/3520                                     0000283000000000
Precinct  0000284Pct 3519                                          0000284000000000
Precinct  0000285Pct 3521                                          0000285000000000
Precinct  0000286Pct 3523/3522                                     0000286000000000
Precinct  0000287Pct 3525/3524                                     0000287000000000
Precinct  0000288Pct 3527/3526                                     0000288000000000
Precinct  0000289Pct 3528                                          0000289000000000
Precinct  0000290Pct 3529/3531                                     0000290000000000
Precinct  0000291Pct 3533/3532                                     0000291000000000
Precinct  0000292Pct 3534/3548                                     0000292000000000
Precinct  0000293Pct 3535                                          0000293000000000
Precinct  0000294Pct 3537/3536                                     0000294000000000
Precinct  0000295Pct 3539/3538                                     0000295000000000
Precinct  0000296Pct 3541                                          0000296000000000
Precinct  0000297Pct 3542                                          0000297000000000
Precinct  0000298Pct 3543                                          0000298000000000
Precinct  0000299Pct 3544/3545                                     0000299000000000
Precinct  0000300Pct 3547/3546                                     0000300000000000
Precinct  0000301Pct 3552/3549                                     0000301000000000
Precinct  0000302Pct 3553/3551                                     0000302000000000
Precinct  0000303Pct 3554                                          0000303000000000
Precinct  0000304Pct 3555 MB                                       0000304000000000
Precinct  0000305Pct 3601/3602                                     0000305000000000
Precinct  0000306Pct 3603                                          0000306000000000
Precinct  0000307Pct 3605/3604                                     0000307000000000
Precinct  0000308Pct 3606                                          0000308000000000
Precinct  0000309Pct 3607 MB                                       0000309000000000
Precinct  0000310Pct 3608                                          0000310000000000
Precinct  0000311Pct 3609                                          0000311000000000
Precinct  0000312Pct 3610/3612                                     0000312000000000
Precinct  0000313Pct 3614/3613                                     0000313000000000
Precinct  0000314Pct 3615                                          0000314000000000
Precinct  0000315Pct 3616                                          0000315000000000
Precinct  0000316Pct 3617/3618                                     0000316000000000
Precinct  0000317Pct 3621/3619                                     0000317000000000
Precinct  0000318Pct 3622/3623                                     0000318000000000
Precinct  0000319Pct 3624                                          0000319000000000
Precinct  0000320Pct 3625                                          0000320000000000
Precinct  0000321Pct 3626                                          0000321000000000
Precinct  0000322Pct 3627                                          0000322000000000
Precinct  0000323Pct 3628                                          0000323000000000
Precinct  0000324Pct 3629                                          0000324000000000
Precinct  0000325Pct 3630/3636                                     0000325000000000
Precinct  0000326Pct 3631                                          0000326000000000
Precinct  0000327Pct 3632                                          0000327000000000
Precinct  0000328Pct 3634/3633                                     0000328000000000
Precinct  0000329Pct 3635                                          0000329000000000
Precinct  0000330Pct 3637/3620                                     0000330000000000
Precinct  0000331Pct 3638                                          0000331000000000
Precinct  0000332Pct 3639                                          0000332000000000
Precinct  0000333Pct 3640                                          0000333000000000
Precinct  0000334Pct 3641                                          0000334000000000
Precinct  0000335Pct 3642                                          0000335000000000
Precinct  0000336Pct 3643                                          0000336000000000
Precinct  0000337Pct 3645                                          0000337000000000
Precinct  0000338Pct 3646                                          0000338000000000
Precinct  0000339Pct 3647                                          0000339000000000
Precinct  0000340Pct 3648                                          0000340000000000
Precinct  0000341Pct 3649/3644                                     0000341000000000
Precinct  0000342Pct 3650                                          0000342000000000
Precinct  0000343Pct 3651/3611                                     0000343000000000
Precinct  0000344Pct 3652                                          0000344000000000
Precinct  0000345Pct 3653                                          0000345000000000
Precinct  0000346Pct 3654                                          0000346000000000
Precinct  0000347Pct 3655 MB                                       0000347000000000
Precinct  0000348Pct 3656                                          0000348000000000
Precinct  0000349Pct 3657                                          0000349000000000
Precinct  0000350Pct 3658                                          0000350000000000
Precinct  0000351Pct 3659                                          0000351000000000
Precinct  0000352Pct 3701 MB                                       0000352000000000
Precinct  0000353Pct 3702 MB                                       0000353000000000
Precinct  0000354Pct 3703                                          0000354000000000
Precinct  0000355Pct 3801                                          0000355000000000
Precinct  0000356Pct 3802                                          0000356000000000
Precinct  0000357Pct 3803/3804                                     0000357000000000
Precinct  0000358Pct 3805/3811                                     0000358000000000
Precinct  0000359Pct 3806/3812                                     0000359000000000
Precinct  0000360Pct 3807                                          0000360000000000
Precinct  0000361Pct 3808                                          0000361000000000
Precinct  0000362Pct 3809                                          0000362000000000
Precinct  0000363Pct 3813/3814                                     0000363000000000
Precinct  0000364Pct 3815                                          0000364000000000
Precinct  0000365Pct 3816                                          0000365000000000
Precinct  0000366Pct 3817                                          0000366000000000
Precinct  0000367Pct 3818                                          0000367000000000
Precinct  0000368Pct 3821/3819                                     0000368000000000
Precinct  0000369Pct 3823/3822                                     0000369000000000
Precinct  0000370Pct 3824/3832                                     0000370000000000
Precinct  0000371Pct 3826                                          0000371000000000
Precinct  0000372Pct 3828/3838                                     0000372000000000
Precinct  0000373Pct 3829                                          0000373000000000
Precinct  0000374Pct 3831                                          0000374000000000
Precinct  0000375Pct 3833/3825                                     0000375000000000
Precinct  0000376Pct 3834/3844                                     0000376000000000
Precinct  0000377Pct 3835                                          0000377000000000
Precinct  0000378Pct 3836                                          0000378000000000
Precinct  0000379Pct 3837/3827                                     0000379000000000
Precinct  0000380Pct 3839                                          0000380000000000
Precinct  0000381Pct 3842/3841                                     0000381000000000
Precinct  0000382Pct 3843                                          0000382000000000
Precinct  0000383Pct 3845                                          0000383000000000
Precinct  0000384Pct 3846/3853                                     0000384000000000
Precinct  0000385Pct 3847                                          0000385000000000
Precinct  0000386Pct 3848                                          0000386000000000
Precinct  0000387Pct 3849/3851                                     0000387000000000
Precinct  0000388Pct 3852                                          0000388000000000
Precinct  0000389Pct 3854/3858                                     0000389000000000
Precinct  0000390Pct 3855                                          0000390000000000
Precinct  0000391Pct 3859/3864                                     0000391000000000
Precinct  0000392Pct 3861/3856                                     0000392000000000
Precinct  0000393Pct 3862/3857                                     0000393000000000
Precinct  0000394Pct 3865/3868                                     0000394000000000
Precinct  0000395Pct 3866/3863                                     0000395000000000
Precinct  0000396Pct 3867                                          0000396000000000
Precinct  0000397Pct 3869 MB                                       0000397000000000
Precinct  0000398Pct 3871                                          0000398000000000
Precinct  0000399Pct 3872                                          0000399000000000
Precinct  0000400Pct 3902                                          0000400000000000
Precinct  0000401Pct 3903/3901                                     0000401000000000
Precinct  0000402Pct 3904                                          0000402000000000
Precinct  0000403Pct 3905                                          0000403000000000
Precinct  0000404Pct 3906                                          0000404000000000
Precinct  0000405Pct 3907                                          0000405000000000
Precinct  0000406Pct 3908                                          0000406000000000
Precinct  0000407Pct 3909                                          0000407000000000
Precinct  0000408Pct 3911                                          0000408000000000
Precinct  0000409Pct 3912/3913                                     0000409000000000
Precinct  0000410Pct 3914                                          0000410000000000
Precinct  0000411Pct 3915                                          0000411000000000
Precinct  0000412Pct 3916                                          0000412000000000
Precinct  0000413Pct 3917                                          0000413000000000
Precinct  0000414Pct 3918                                          0000414000000000
Precinct  0000415Pct 3919                                          0000415000000000
Precinct  0000416Pct 3921                                          0000416000000000
Precinct  0000417Pct 3922                                          0000417000000000
Precinct  0000418Pct 3924/3923                                     0000418000000000
Precinct  0000419Pct 3925                                          0000419000000000
Precinct  0000420Pct 3926                                          0000420000000000
Precinct  0000421Pct 3927                                          0000421000000000
Precinct  0000422Pct 3928/3929                                     0000422000000000
Precinct  0000423Pct 3931                                          0000423000000000
Precinct  0000424Pct 3932/3933                                     0000424000000000
Precinct  0000425Pct 3934                                          0000425000000000
Precinct  0000426Pct 3935                                          0000426000000000
Precinct  0000427Pct 3936/3937                                     0000427000000000
Precinct  0000428Pct 3938 MB                                       0000428000000000
Precinct  0000429Pct 3939 MB                                       0000429000000000
Tally Type0000001Election Day - Insight                            0000001000000000
Tally Type0000002VBM / EV - 400c 1st Cut                           0000002000000000
Tally Type0000003Provisional - 400C                                0000003000000000
Tally Type0000004Election Day - 400C                               0000004000000000
Tally Type0000005Election Day - Edge                               0000005000000000
Tally Type0000006Election Day - Edge Dups                          0000006000000000
Tally Type0000009VBM / EV - 400c 2nd Cut                           0000007000000000
