Candidate 0000462KEN HOUSTON                                       0000001000010000
Candidate 0000463CEDRIC A. TROUPE                                  0000002000010000
Candidate 0000464JESSE A.J. SMITH                                  0000003000010000
Candidate 0000465CAT BROOKS                                        0000004000010000
Candidate 0000466SAIED KARAMOOZ                                    0000005000010000
Candidate 0000467NANCY SIDEBOTHAM                                  0000006000010000
Candidate 0000468PETER YUAN LIU                                    0000007000010000
Candidate 0000469PAMELA PRICE                                      0000008000010000
Candidate 0000470LIBBY SCHAAF                                      0000009000010000
Candidate 0000471MARCHON TATMON                                    0000010000010000
Candidate 0000142Write-In                                          0000011000010010
Contest   0000100Mayor - Oakland (RCV)                             0000100000000000
Precinct  0000001200100                                            0000001000000000
Precinct  0000002200200                                            0000002000000000
Precinct  0000003200300                                            0000003000000000
Precinct  0000004200600                                            0000004000000000
Precinct  0000005200700                                            0000005000000000
Precinct  0000006200800                                            0000006000000000
Precinct  0000007201000                                            0000007000000000
Precinct  0000008201100                                            0000008000000000
Precinct  0000009201300                                            0000009000000000
Precinct  0000010201400                                            0000010000000000
Precinct  0000011201410                                            0000011000000000
Precinct  0000012201500                                            0000012000000000
Precinct  0000013201700                                            0000013000000000
Precinct  0000014201710                                            0000014000000000
Precinct  0000015201800                                            0000015000000000
Precinct  0000016201900                                            0000016000000000
Precinct  0000017202110                                            0000017000000000
Precinct  0000018202310                                            0000018000000000
Precinct  0000019202500                                            0000019000000000
Precinct  0000020202520                                            0000020000000000
Precinct  0000021202540                                            0000021000000000
Precinct  0000022202600                                            0000022000000000
Precinct  0000023202620                                            0000023000000000
Precinct  0000024202710                                            0000024000000000
Precinct  0000025202900                                            0000025000000000
Precinct  0000026203100                                            0000026000000000
Precinct  0000027203200                                            0000027000000000
Precinct  0000028203300                                            0000028000000000
Precinct  0000029203400                                            0000029000000000
Precinct  0000030203500                                            0000030000000000
Precinct  0000031203800                                            0000031000000000
Precinct  0000032204000                                            0000032000000000
Precinct  0000033204100                                            0000033000000000
Precinct  0000034204210                                            0000034000000000
Precinct  0000035204220                                            0000035000000000
Precinct  0000036204230                                            0000036000000000
Precinct  0000037204240                                            0000037000000000
Precinct  0000038204300                                            0000038000000000
Precinct  0000039204310                                            0000039000000000
Precinct  0000040204510                                            0000040000000000
Precinct  0000041204600                                            0000041000000000
Precinct  0000042204900                                            0000042000000000
Precinct  0000043204910                                            0000043000000000
Precinct  0000044205000                                            0000044000000000
Precinct  0000045205100                                            0000045000000000
Precinct  0000046205200                                            0000046000000000
Precinct  0000047205500                                            0000047000000000
Precinct  0000048205600                                            0000048000000000
Precinct  0000049205700                                            0000049000000000
Precinct  0000050205800                                            0000050000000000
Precinct  0000051205900                                            0000051000000000
Precinct  0000052206000                                            0000052000000000
Precinct  0000053206100                                            0000053000000000
Precinct  0000054206200                                            0000054000000000
Precinct  0000055206300                                            0000055000000000
Precinct  0000056206400                                            0000056000000000
Precinct  0000057206600                                            0000057000000000
Precinct  0000058206900                                            0000058000000000
Precinct  0000059207000                                            0000059000000000
Precinct  0000060207010                                            0000060000000000
Precinct  0000061207100                                            0000061000000000
Precinct  0000062207200                                            0000062000000000
Precinct  0000063207300                                            0000063000000000
Precinct  0000064207500                                            0000064000000000
Precinct  0000065207600                                            0000065000000000
Precinct  0000066207700                                            0000066000000000
Precinct  0000067208000                                            0000067000000000
Precinct  0000068208010                                            0000068000000000
Precinct  0000069208100                                            0000069000000000
Precinct  0000070208110                                            0000070000000000
Precinct  0000071208200                                            0000071000000000
Precinct  0000072208210                                            0000072000000000
Precinct  0000073208300                                            0000073000000000
Precinct  0000074208310                                            0000074000000000
Precinct  0000075208400                                            0000075000000000
Precinct  0000076208500                                            0000076000000000
Precinct  0000077208510                                            0000077000000000
Precinct  0000078208600                                            0000078000000000
Precinct  0000079208610                                            0000079000000000
Precinct  0000080208650                                            0000080000000000
Precinct  0000081208700                                            0000081000000000
Precinct  0000082208800                                            0000082000000000
Precinct  0000083208810                                            0000083000000000
Precinct  0000084208900                                            0000084000000000
Precinct  0000085208910                                            0000085000000000
Precinct  0000086208920                                            0000086000000000
Precinct  0000087209000                                            0000087000000000
Precinct  0000088209010                                            0000088000000000
Precinct  0000089209100                                            0000089000000000
Precinct  0000090209110                                            0000090000000000
Precinct  0000091209200                                            0000091000000000
Precinct  0000092209300                                            0000092000000000
Precinct  0000093209310                                            0000093000000000
Precinct  0000094209400                                            0000094000000000
Precinct  0000095209410                                            0000095000000000
Precinct  0000096209510                                            0000096000000000
Precinct  0000097209600                                            0000097000000000
Precinct  0000098209610                                            0000098000000000
Precinct  0000099209700                                            0000099000000000
Precinct  0000100209710                                            0000100000000000
Precinct  0000101209800                                            0000101000000000
Precinct  0000102209900                                            0000102000000000
Precinct  0000103213100                                            0000103000000000
Precinct  0000104213300                                            0000104000000000
Precinct  0000105213400                                            0000105000000000
Precinct  0000106213500                                            0000106000000000
Precinct  0000107213600                                            0000107000000000
Precinct  0000108213700                                            0000108000000000
Precinct  0000109213800                                            0000109000000000
Precinct  0000110213900                                            0000110000000000
Precinct  0000111214100                                            0000111000000000
Precinct  0000112214200                                            0000112000000000
Precinct  0000113214400                                            0000113000000000
Precinct  0000114214500                                            0000114000000000
Precinct  0000115214600                                            0000115000000000
Precinct  0000116214800                                            0000116000000000
Precinct  0000117215100                                            0000117000000000
Precinct  0000118215120                                            0000118000000000
Precinct  0000119215200                                            0000119000000000
Precinct  0000120215300                                            0000120000000000
Precinct  0000121215500                                            0000121000000000
Precinct  0000122215610                                            0000122000000000
Precinct  0000123215700                                            0000123000000000
Precinct  0000124215800                                            0000124000000000
Precinct  0000125215900                                            0000125000000000
Precinct  0000126223000                                            0000126000000000
Precinct  0000127223010                                            0000127000000000
Precinct  0000128223200                                            0000128000000000
Precinct  0000129223300                                            0000129000000000
Precinct  0000130223400                                            0000130000000000
Precinct  0000131224000                                            0000131000000000
Precinct  0000132224200                                            0000132000000000
Precinct  0000133224400                                            0000133000000000
Precinct  0000134224500                                            0000134000000000
Precinct  0000135224600                                            0000135000000000
Precinct  0000136224700                                            0000136000000000
Precinct  0000137224800                                            0000137000000000
Precinct  0000138225000                                            0000138000000000
Precinct  0000139225100                                            0000139000000000
Precinct  0000140225200                                            0000140000000000
Precinct  0000141225400                                            0000141000000000
Precinct  0000142225600                                            0000142000000000
Precinct  0000143225700                                            0000143000000000
Precinct  0000144225710                                            0000144000000000
Precinct  0000145225810                                            0000145000000000
Precinct  0000146225900                                            0000146000000000
Precinct  0000147225910                                            0000147000000000
Precinct  0000148226100                                            0000148000000000
Precinct  0000149226200                                            0000149000000000
Precinct  0000150226300                                            0000150000000000
Precinct  0000151226400                                            0000151000000000
Precinct  0000152244000                                            0000152000000000
Precinct  0000153244100                                            0000153000000000
Precinct  0000154244200                                            0000154000000000
Precinct  0000155244300                                            0000155000000000
Precinct  0000156244400                                            0000156000000000
Precinct  0000157244500                                            0000157000000000
Precinct  0000158244600                                            0000158000000000
Precinct  0000159244700                                            0000159000000000
Precinct  0000160244800                                            0000160000000000
Precinct  0000161244900                                            0000161000000000
Precinct  0000162245000                                            0000162000000000
Precinct  0000163245100                                            0000163000000000
Precinct  0000164245200                                            0000164000000000
Precinct  0000165260100                                            0000165000000000
Precinct  0000166260300                                            0000166000000000
Precinct  0000167260400                                            0000167000000000
Precinct  0000168260610                                            0000168000000000
Precinct  0000169260800                                            0000169000000000
Precinct  0000170260900                                            0000170000000000
Precinct  0000171261000                                            0000171000000000
Precinct  0000172261300                                            0000172000000000
Precinct  0000173261400                                            0000173000000000
Precinct  0000174261600                                            0000174000000000
Precinct  0000175261700                                            0000175000000000
Precinct  0000176262000                                            0000176000000000
Precinct  0000177262100                                            0000177000000000
Precinct  0000178280100                                            0000178000000000
Precinct  0000179280500                                            0000179000000000
Precinct  0000180280700                                            0000180000000000
Precinct  0000181281000                                            0000181000000000
Precinct  0000182281300                                            0000182000000000
Precinct  0000183281600                                            0000183000000000
Precinct  0000184300000                                            0000184000000000
Precinct  0000185300100                                            0000185000000000
Precinct  0000186300110                                            0000186000000000
Precinct  0000187300120                                            0000187000000000
Precinct  0000188300140                                            0000188000000000
Precinct  0000189300150                                            0000189000000000
Precinct  0000190300170                                            0000190000000000
Precinct  0000191300180                                            0000191000000000
Precinct  0000192300210                                            0000192000000000
Precinct  0000193300300                                            0000193000000000
Precinct  0000194300400                                            0000194000000000
Precinct  0000195301100                                            0000195000000000
Precinct  0000196301200                                            0000196000000000
Precinct  0000197301400                                            0000197000000000
Precinct  0000198301520                                            0000198000000000
Precinct  0000199301800                                            0000199000000000
Precinct  0000200301900                                            0000200000000000
Precinct  0000201302000                                            0000201000000000
Precinct  0000202302100                                            0000202000000000
Precinct  0000203302200                                            0000203000000000
Precinct  0000204302400                                            0000204000000000
Precinct  0000205302500                                            0000205000000000
Precinct  0000206302510                                            0000206000000000
Precinct  0000207302700                                            0000207000000000
Precinct  0000208303000                                            0000208000000000
Precinct  0000209303300                                            0000209000000000
Precinct  0000210303400                                            0000210000000000
Precinct  0000211303500                                            0000211000000000
Precinct  0000212303600                                            0000212000000000
Precinct  0000213303800                                            0000213000000000
Precinct  0000214304000                                            0000214000000000
Precinct  0000215304120                                            0000215000000000
Precinct  0000216304200                                            0000216000000000
Precinct  0000217304500                                            0000217000000000
Precinct  0000218304600                                            0000218000000000
Precinct  0000219304700                                            0000219000000000
Precinct  0000220304800                                            0000220000000000
Precinct  0000221304900                                            0000221000000000
Precinct  0000222305000                                            0000222000000000
Precinct  0000223305010                                            0000223000000000
Precinct  0000224305100                                            0000224000000000
Precinct  0000225305400                                            0000225000000000
Precinct  0000226305410                                            0000226000000000
Precinct  0000227305500                                            0000227000000000
Precinct  0000228305600                                            0000228000000000
Precinct  0000229305700                                            0000229000000000
Precinct  0000230310000                                            0000230000000000
Precinct  0000231310100                                            0000231000000000
Precinct  0000232310200                                            0000232000000000
Precinct  0000233310300                                            0000233000000000
Precinct  0000234310400                                            0000234000000000
Precinct  0000235310500                                            0000235000000000
Precinct  0000236310600                                            0000236000000000
Precinct  0000237310700                                            0000237000000000
Precinct  0000238310900                                            0000238000000000
Precinct  0000239311100                                            0000239000000000
Precinct  0000240311200                                            0000240000000000
Precinct  0000241311400                                            0000241000000000
Precinct  0000242311500                                            0000242000000000
Precinct  0000243311700                                            0000243000000000
Precinct  0000244323000                                            0000244000000000
Precinct  0000245323200                                            0000245000000000
Precinct  0000246325100                                            0000246000000000
Precinct  0000247325110                                            0000247000000000
Precinct  0000248325200                                            0000248000000000
Precinct  0000249325300                                            0000249000000000
Precinct  0000250325400                                            0000250000000000
Precinct  0000251325500                                            0000251000000000
Precinct  0000252325510                                            0000252000000000
Precinct  0000253325600                                            0000253000000000
Precinct  0000254325700                                            0000254000000000
Precinct  0000255325800                                            0000255000000000
Precinct  0000256333100                                            0000256000000000
Precinct  0000257333200                                            0000257000000000
Precinct  0000258333210                                            0000258000000000
Precinct  0000259333400                                            0000259000000000
Precinct  0000260333410                                            0000260000000000
Precinct  0000261333500                                            0000261000000000
Precinct  0000262333510                                            0000262000000000
Precinct  0000263333600                                            0000263000000000
Precinct  0000264333800                                            0000264000000000
Precinct  0000265333900                                            0000265000000000
Precinct  0000266334000                                            0000266000000000
Precinct  0000267334100                                            0000267000000000
Precinct  0000268334600                                            0000268000000000
Precinct  0000269334700                                            0000269000000000
Precinct  0000270335000                                            0000270000000000
Precinct  0000271335100                                            0000271000000000
Precinct  0000272335200                                            0000272000000000
Precinct  0000273335300                                            0000273000000000
Precinct  0000274335400                                            0000274000000000
Precinct  0000275335500                                            0000275000000000
Precinct  0000276335700                                            0000276000000000
Precinct  0000277335710                                            0000277000000000
Precinct  0000278335810                                            0000278000000000
Precinct  0000279335900                                            0000279000000000
Precinct  0000280336100                                            0000280000000000
Precinct  0000281336110                                            0000281000000000
Precinct  0000282336200                                            0000282000000000
Precinct  0000283336400                                            0000283000000000
Precinct  0000284336500                                            0000284000000000
Precinct  0000285336600                                            0000285000000000
Precinct  0000286336610                                            0000286000000000
Precinct  0000287336710                                            0000287000000000
Precinct  0000288336900                                            0000288000000000
Precinct  0000289336910                                            0000289000000000
Precinct  0000290337000                                            0000290000000000
Precinct  0000291337100                                            0000291000000000
Precinct  0000292337110                                            0000292000000000
Precinct  0000293337200                                            0000293000000000
Precinct  0000294344000                                            0000294000000000
Precinct  0000295344010                                            0000295000000000
Precinct  0000296344100                                            0000296000000000
Precinct  0000297344200                                            0000297000000000
Precinct  0000298344400                                            0000298000000000
Precinct  0000299344500                                            0000299000000000
Precinct  0000300344600                                            0000300000000000
Precinct  0000301344700                                            0000301000000000
Precinct  0000302344800                                            0000302000000000
Precinct  0000303344900                                            0000303000000000
Precinct  0000304345000                                            0000304000000000
Precinct  0000305345100                                            0000305000000000
Precinct  0000306345200                                            0000306000000000
Precinct  0000307345310                                            0000307000000000
Precinct  0000308345400                                            0000308000000000
Precinct  0000309345500                                            0000309000000000
Precinct  0000310345600                                            0000310000000000
Precinct  0000311345700                                            0000311000000000
Precinct  0000312345900                                            0000312000000000
Precinct  0000313346000                                            0000313000000000
Precinct  0000314346100                                            0000314000000000
Precinct  0000315346200                                            0000315000000000
Precinct  0000316347110                                            0000316000000000
Precinct  0000317347200                                            0000317000000000
Precinct  0000318347300                                            0000318000000000
Precinct  0000319353300                                            0000319000000000
Precinct  0000320353310                                            0000320000000000
Precinct  0000321353400                                            0000321000000000
Precinct  0000322353500                                            0000322000000000
Precinct  0000323353600                                            0000323000000000
Precinct  0000324353800                                            0000324000000000
Precinct  0000325353900                                            0000325000000000
Precinct  0000326354000                                            0000326000000000
Precinct  0000327354100                                            0000327000000000
Precinct  0000328354110                                            0000328000000000
Precinct  0000329354300                                            0000329000000000
Precinct  0000330354400                                            0000330000000000
Precinct  0000331354500                                            0000331000000000
Precinct  0000332354700                                            0000332000000000
Precinct  0000333354900                                            0000333000000000
Precinct  0000334354910                                            0000334000000000
Precinct  0000335355000                                            0000335000000000
Precinct  0000336355100                                            0000336000000000
Precinct  0000337356000                                            0000337000000000
Precinct  0000338356200                                            0000338000000000
Precinct  0000339356210                                            0000339000000000
Precinct  0000340356400                                            0000340000000000
Precinct  0000341356500                                            0000341000000000
Precinct  0000342361000                                            0000342000000000
Precinct  0000343361130                                            0000343000000000
Precinct  0000344361200                                            0000344000000000
Precinct  0000345361300                                            0000345000000000
Precinct  0000346361500                                            0000346000000000
Precinct  0000347362100                                            0000347000000000
Precinct  0000348362110                                            0000348000000000
Precinct  0000349362300                                            0000349000000000
Precinct  0000350362500                                            0000350000000000
Precinct  0000351362510                                            0000351000000000
Precinct  0000352362600                                            0000352000000000
Precinct  0000353362700                                            0000353000000000
Precinct  0000354362800                                            0000354000000000
Precinct  0000355362900                                            0000355000000000
Precinct  0000356363000                                            0000356000000000
Precinct  0000357363100                                            0000357000000000
Precinct  0000358363200                                            0000358000000000
Precinct  0000359363310                                            0000359000000000
Precinct  0000360363600                                            0000360000000000
Precinct  0000361364200                                            0000361000000000
Precinct  0000362364310                                            0000362000000000
Precinct  0000363364400                                            0000363000000000
Precinct  0000364364510                                            0000364000000000
Precinct  0000365364600                                            0000365000000000
Precinct  0000366364700                                            0000366000000000
Precinct  0000367364800                                            0000367000000000
Precinct  0000368364900                                            0000368000000000
Precinct  0000369365000                                            0000369000000000
Precinct  0000370365200                                            0000370000000000
Precinct  0000371373100                                            0000371000000000
Precinct  0000372373400                                            0000372000000000
Precinct  0000373373500                                            0000373000000000
Precinct  0000374373900                                            0000374000000000
Precinct  0000375380200                                            0000375000000000
Precinct  0000376380300                                            0000376000000000
Precinct  0000377380400                                            0000377000000000
Precinct  0000378380600                                            0000378000000000
Precinct  0000379380700                                            0000379000000000
Precinct  0000380400100                                            0000380000000000
Precinct  0000381400200                                            0000381000000000
Precinct  0000382400300                                            0000382000000000
Precinct  0000383400500                                            0000383000000000
Precinct  0000384400600                                            0000384000000000
Precinct  0000385400700                                            0000385000000000
Precinct  0000386400800                                            0000386000000000
Precinct  0000387400900                                            0000387000000000
Precinct  0000388401100                                            0000388000000000
Precinct  0000389410100                                            0000389000000000
Precinct  0000390410300                                            0000390000000000
Precinct  0000391410400                                            0000391000000000
Precinct  0000392410500                                            0000392000000000
Precinct  0000393410600                                            0000393000000000
Precinct  0000394415000                                            0000394000000000
Precinct  0000395415200                                            0000395000000000
Precinct  0000396415300                                            0000396000000000
Precinct  0000397415500                                            0000397000000000
Precinct  0000398415600                                            0000398000000000
Precinct  0000399415800                                            0000399000000000
Precinct  0000400415900                                            0000400000000000
Precinct  0000401420500                                            0000401000000000
Precinct  0000402420600                                            0000402000000000
Precinct  0000403420700                                            0000403000000000
Precinct  0000404420900                                            0000404000000000
Precinct  0000405421000                                            0000405000000000
Precinct  0000406421100                                            0000406000000000
Precinct  0000407421200                                            0000407000000000
Precinct  0000408421300                                            0000408000000000
Precinct  0000409421400                                            0000409000000000
Precinct  0000410421510                                            0000410000000000
Precinct  0000411421700                                            0000411000000000
Precinct  0000412421900                                            0000412000000000
Precinct  0000413422000                                            0000413000000000
Precinct  0000414422100                                            0000414000000000
Precinct  0000415422300                                            0000415000000000
Precinct  0000416422600                                            0000416000000000
Precinct  0000417422700                                            0000417000000000
Precinct  0000418422810                                            0000418000000000
Precinct  0000419422900                                            0000419000000000
Precinct  0000420422910                                            0000420000000000
Precinct  0000421422920                                            0000421000000000
Precinct  0000422423000                                            0000422000000000
Precinct  0000423423100                                            0000423000000000
Precinct  0000424423400                                            0000424000000000
Precinct  0000425423500                                            0000425000000000
Precinct  0000426423600                                            0000426000000000
Precinct  0000427423610                                            0000427000000000
Precinct  0000428423710                                            0000428000000000
Precinct  0000429424000                                            0000429000000000
Precinct  0000430424100                                            0000430000000000
Precinct  0000431424300                                            0000431000000000
Precinct  0000432424400                                            0000432000000000
Precinct  0000433430170                                            0000433000000000
Precinct  0000434430400                                            0000434000000000
Precinct  0000435430600                                            0000435000000000
Precinct  0000436430700                                            0000436000000000
Precinct  0000437430900                                            0000437000000000
Precinct  0000438431100                                            0000438000000000
Precinct  0000439431800                                            0000439000000000
Precinct  0000440432010                                            0000440000000000
Precinct  0000441432110                                            0000441000000000
Precinct  0000442432200                                            0000442000000000
Precinct  0000443432300                                            0000443000000000
Precinct  0000444432400                                            0000444000000000
Precinct  0000445432600                                            0000445000000000
Precinct  0000446432700                                            0000446000000000
Precinct  0000447432810                                            0000447000000000
Precinct  0000448432900                                            0000448000000000
Precinct  0000449433100                                            0000449000000000
Precinct  0000450433200                                            0000450000000000
Precinct  0000451433400                                            0000451000000000
Precinct  0000452433500                                            0000452000000000
Precinct  0000453433610                                            0000453000000000
Precinct  0000454433700                                            0000454000000000
Precinct  0000455433900                                            0000455000000000
Precinct  0000456440100                                            0000456000000000
Precinct  0000457440300                                            0000457000000000
Precinct  0000458440400                                            0000458000000000
Precinct  0000459440610                                            0000459000000000
Precinct  0000460440800                                            0000460000000000
Precinct  0000461440900                                            0000461000000000
Precinct  0000462441100                                            0000462000000000
Precinct  0000463441300                                            0000463000000000
Precinct  0000464441400                                            0000464000000000
Precinct  0000465442100                                            0000465000000000
Precinct  0000466442600                                            0000466000000000
Precinct  0000467442700                                            0000467000000000
Precinct  0000468443000                                            0000468000000000
Precinct  0000469443100                                            0000469000000000
Precinct  0000470443200                                            0000470000000000
Precinct  0000471443300                                            0000471000000000
Precinct  0000472443400                                            0000472000000000
Precinct  0000473443500                                            0000473000000000
Precinct  0000474447200                                            0000474000000000
Precinct  0000475447600                                            0000475000000000
Precinct  0000476450300                                            0000476000000000
Precinct  0000477450400                                            0000477000000000
Precinct  0000478450610                                            0000478000000000
Precinct  0000479450800                                            0000479000000000
Precinct  0000480451000                                            0000480000000000
Precinct  0000481451510                                            0000481000000000
Precinct  0000482451600                                            0000482000000000
Precinct  0000483451700                                            0000483000000000
Precinct  0000484452100                                            0000484000000000
Precinct  0000485452200                                            0000485000000000
Precinct  0000486452400                                            0000486000000000
Precinct  0000487452500                                            0000487000000000
Precinct  0000488453100                                            0000488000000000
Precinct  0000489453300                                            0000489000000000
Precinct  0000490453400                                            0000490000000000
Precinct  0000491453500                                            0000491000000000
Precinct  0000492453900                                            0000492000000000
Precinct  0000493453920                                            0000493000000000
Precinct  0000494454100                                            0000494000000000
Precinct  0000495454500                                            0000495000000000
Precinct  0000496455000                                            0000496000000000
Precinct  0000497455100                                            0000497000000000
Precinct  0000498455300                                            0000498000000000
Precinct  0000499455400                                            0000499000000000
Precinct  0000500455500                                            0000500000000000
Precinct  0000501455700                                            0000501000000000
Precinct  0000502455900                                            0000502000000000
Precinct  0000503456200                                            0000503000000000
Precinct  0000504456500                                            0000504000000000
Precinct  0000505456600                                            0000505000000000
Precinct  0000506456900                                            0000506000000000
Precinct  0000507457100                                            0000507000000000
Precinct  0000508457300                                            0000508000000000
Precinct  0000509457400                                            0000509000000000
Precinct  0000510457500                                            0000510000000000
Precinct  0000511457700                                            0000511000000000
Precinct  0000512457900                                            0000512000000000
Precinct  0000513458200                                            0000513000000000
Precinct  0000514458300                                            0000514000000000
Precinct  0000515458500                                            0000515000000000
Precinct  0000516458800                                            0000516000000000
Precinct  0000517458900                                            0000517000000000
Precinct  0000518470400                                            0000518000000000
Precinct  0000519470600                                            0000519000000000
Precinct  0000520470900                                            0000520000000000
Precinct  0000521471300                                            0000521000000000
Precinct  0000522471800                                            0000522000000000
Precinct  0000523471900                                            0000523000000000
Precinct  0000524472000                                            0000524000000000
Precinct  0000525472200                                            0000525000000000
Precinct  0000526472300                                            0000526000000000
Precinct  0000527472400                                            0000527000000000
Precinct  0000528472500                                            0000528000000000
Precinct  0000529473300                                            0000529000000000
Precinct  0000530473400                                            0000530000000000
Precinct  0000531473500                                            0000531000000000
Precinct  0000532473600                                            0000532000000000
Precinct  0000533473800                                            0000533000000000
Precinct  0000534473900                                            0000534000000000
Precinct  0000535474010                                            0000535000000000
Precinct  0000536474020                                            0000536000000000
Precinct  0000537474300                                            0000537000000000
Precinct  0000538474500                                            0000538000000000
Precinct  0000539474600                                            0000539000000000
Precinct  0000540474700                                            0000540000000000
Precinct  0000541474900                                            0000541000000000
Precinct  0000542475000                                            0000542000000000
Precinct  0000543475200                                            0000543000000000
Precinct  0000544475500                                            0000544000000000
Precinct  0000545475520                                            0000545000000000
Precinct  0000546475540                                            0000546000000000
Precinct  0000547476100                                            0000547000000000
Precinct  0000548476110                                            0000548000000000
Precinct  0000549481200                                            0000549000000000
Precinct  0000550481410                                            0000550000000000
Precinct  0000551481500                                            0000551000000000
Precinct  0000552481800                                            0000552000000000
Precinct  0000553483000                                            0000553000000000
Precinct  0000554491000                                            0000554000000000
Precinct  0000555491100                                            0000555000000000
Precinct  0000556491200                                            0000556000000000
Precinct  0000557491300                                            0000557000000000
Precinct  0000558491500                                            0000558000000000
Precinct  0000559500100                                            0000559000000000
Precinct  0000560500110                                            0000560000000000
Precinct  0000561500130                                            0000561000000000
Precinct  0000562500140                                            0000562000000000
Precinct  0000563500200                                            0000563000000000
Precinct  0000564500210                                            0000564000000000
Precinct  0000565500230                                            0000565000000000
Precinct  0000566500300                                            0000566000000000
Precinct  0000567500310                                            0000567000000000
Precinct  0000568500320                                            0000568000000000
Precinct  0000569500340                                            0000569000000000
Precinct  0000570500400                                            0000570000000000
Precinct  0000571500410                                            0000571000000000
Precinct  0000572500500                                            0000572000000000
Precinct  0000573500600                                            0000573000000000
Precinct  0000574500700                                            0000574000000000
Precinct  0000575500910                                            0000575000000000
Precinct  0000576501000                                            0000576000000000
Precinct  0000577501200                                            0000577000000000
Precinct  0000578501300                                            0000578000000000
Precinct  0000579501400                                            0000579000000000
Precinct  0000580501410                                            0000580000000000
Precinct  0000581501600                                            0000581000000000
Precinct  0000582501610                                            0000582000000000
Precinct  0000583501620                                            0000583000000000
Precinct  0000584501630                                            0000584000000000
Precinct  0000585501640                                            0000585000000000
Precinct  0000586501800                                            0000586000000000
Precinct  0000587501830                                            0000587000000000
Precinct  0000588501840                                            0000588000000000
Precinct  0000589501910                                            0000589000000000
Precinct  0000590502000                                            0000590000000000
Precinct  0000591502010                                            0000591000000000
Precinct  0000592502020                                            0000592000000000
Precinct  0000593502030                                            0000593000000000
Precinct  0000594502100                                            0000594000000000
Precinct  0000595502200                                            0000595000000000
Precinct  0000596502210                                            0000596000000000
Precinct  0000597502220                                            0000597000000000
Precinct  0000598502400                                            0000598000000000
Precinct  0000599502410                                            0000599000000000
Precinct  0000600502500                                            0000600000000000
Precinct  0000601502600                                            0000601000000000
Precinct  0000602502710                                            0000602000000000
Precinct  0000603502720                                            0000603000000000
Precinct  0000604502740                                            0000604000000000
Precinct  0000605502800                                            0000605000000000
Precinct  0000606502900                                            0000606000000000
Precinct  0000607502920                                            0000607000000000
Precinct  0000608520110                                            0000608000000000
Precinct  0000609520210                                            0000609000000000
Precinct  0000610520220                                            0000610000000000
Precinct  0000611520230                                            0000611000000000
Precinct  0000612520240                                            0000612000000000
Precinct  0000613520300                                            0000613000000000
Precinct  0000614520310                                            0000614000000000
Precinct  0000615520320                                            0000615000000000
Precinct  0000616520400                                            0000616000000000
Precinct  0000617520420                                            0000617000000000
Precinct  0000618520500                                            0000618000000000
Precinct  0000619520600                                            0000619000000000
Precinct  0000620520610                                            0000620000000000
Precinct  0000621520630                                            0000621000000000
Precinct  0000622520700                                            0000622000000000
Precinct  0000623520710                                            0000623000000000
Precinct  0000624520810                                            0000624000000000
Precinct  0000625520820                                            0000625000000000
Precinct  0000626520840                                            0000626000000000
Precinct  0000627520860                                            0000627000000000
Precinct  0000628520870                                            0000628000000000
Precinct  0000629521100                                            0000629000000000
Precinct  0000630521110                                            0000630000000000
Precinct  0000631521300                                            0000631000000000
Precinct  0000632521500                                            0000632000000000
Precinct  0000633522000                                            0000633000000000
Precinct  0000634522020                                            0000634000000000
Precinct  0000635522110                                            0000635000000000
Precinct  0000636522120                                            0000636000000000
Precinct  0000637522130                                            0000637000000000
Precinct  0000638522140                                            0000638000000000
Precinct  0000639522150                                            0000639000000000
Precinct  0000640522200                                            0000640000000000
Precinct  0000641522400                                            0000641000000000
Precinct  0000642523100                                            0000642000000000
Precinct  0000643523110                                            0000643000000000
Precinct  0000644523120                                            0000644000000000
Precinct  0000645523300                                            0000645000000000
Precinct  0000646523700                                            0000646000000000
Precinct  0000647523710                                            0000647000000000
Precinct  0000648523720                                            0000648000000000
Precinct  0000649523800                                            0000649000000000
Precinct  0000650540100                                            0000650000000000
Precinct  0000651540300                                            0000651000000000
Precinct  0000652540400                                            0000652000000000
Precinct  0000653540510                                            0000653000000000
Precinct  0000654540610                                            0000654000000000
Precinct  0000655540800                                            0000655000000000
Precinct  0000656541100                                            0000656000000000
Precinct  0000657542100                                            0000657000000000
Precinct  0000658542200                                            0000658000000000
Precinct  0000659543000                                            0000659000000000
Precinct  0000660544000                                            0000660000000000
Precinct  0000661545500                                            0000661000000000
Precinct  0000662546000                                            0000662000000000
Precinct  0000663546100                                            0000663000000000
Precinct  0000664546200                                            0000664000000000
Precinct  0000665546700                                            0000665000000000
Precinct  0000666547740                                            0000666000000000
Precinct  0000667547750                                            0000667000000000
Precinct  0000668547760                                            0000668000000000
Precinct  0000669547790                                            0000669000000000
Precinct  0000670547800                                            0000670000000000
Precinct  0000671547900                                            0000671000000000
Precinct  0000672547920                                            0000672000000000
Precinct  0000673821100                                            0000673000000000
Precinct  0000674821110                                            0000674000000000
Precinct  0000675821140                                            0000675000000000
Precinct  0000676821200                                            0000676000000000
Precinct  0000677821210                                            0000677000000000
Precinct  0000678821400                                            0000678000000000
Precinct  0000679821500                                            0000679000000000
Precinct  0000680821600                                            0000680000000000
Precinct  0000681821710                                            0000681000000000
Precinct  0000682821730                                            0000682000000000
Precinct  0000683821800                                            0000683000000000
Precinct  0000684821810                                            0000684000000000
Precinct  0000685821900                                            0000685000000000
Precinct  0000686821910                                            0000686000000000
Precinct  0000687822000                                            0000687000000000
Precinct  0000688822010                                            0000688000000000
Precinct  0000689822200                                            0000689000000000
Precinct  0000690823000                                            0000690000000000
Precinct  0000691823100                                            0000691000000000
Precinct  0000692823200                                            0000692000000000
Precinct  0000693823400                                            0000693000000000
Precinct  0000694823500                                            0000694000000000
Precinct  0000695823510                                            0000695000000000
Precinct  0000696823600                                            0000696000000000
Precinct  0000697823610                                            0000697000000000
Precinct  0000698823700                                            0000698000000000
Precinct  0000699823710                                            0000699000000000
Precinct  0000700823720                                            0000700000000000
Precinct  0000701823730                                            0000701000000000
Precinct  0000702823800                                            0000702000000000
Precinct  0000703823810                                            0000703000000000
Precinct  0000704823900                                            0000704000000000
Precinct  0000705830100                                            0000705000000000
Precinct  0000706830200                                            0000706000000000
Precinct  0000707830210                                            0000707000000000
Precinct  0000708830300                                            0000708000000000
Precinct  0000709830500                                            0000709000000000
Precinct  0000710830700                                            0000710000000000
Precinct  0000711831000                                            0000711000000000
Precinct  0000712831100                                            0000712000000000
Precinct  0000713831200                                            0000713000000000
Precinct  0000714831210                                            0000714000000000
Precinct  0000715831230                                            0000715000000000
Precinct  0000716831300                                            0000716000000000
Precinct  0000717831400                                            0000717000000000
Precinct  0000718831410                                            0000718000000000
Precinct  0000719831500                                            0000719000000000
Precinct  0000720831510                                            0000720000000000
Precinct  0000721831600                                            0000721000000000
Precinct  0000722831700                                            0000722000000000
Precinct  0000723831710                                            0000723000000000
Precinct  0000724831810                                            0000724000000000
Precinct  0000725831830                                            0000725000000000
Precinct  0000726831900                                            0000726000000000
Precinct  0000727831920                                            0000727000000000
Precinct  0000728832000                                            0000728000000000
Precinct  0000729832010                                            0000729000000000
Precinct  0000730832200                                            0000730000000000
Precinct  0000731832210                                            0000731000000000
Precinct  0000732832300                                            0000732000000000
Precinct  0000733832400                                            0000733000000000
Precinct  0000734832500                                            0000734000000000
Precinct  0000735832510                                            0000735000000000
Precinct  0000736832600                                            0000736000000000
Precinct  0000737832620                                            0000737000000000
Precinct  0000738832800                                            0000738000000000
Precinct  0000739832810                                            0000739000000000
Precinct  0000740832900                                            0000740000000000
Precinct  0000741833000                                            0000741000000000
Precinct  0000742833100                                            0000742000000000
Precinct  0000743833200                                            0000743000000000
Precinct  0000744833210                                            0000744000000000
Precinct  0000745833300                                            0000745000000000
Precinct  0000746833310                                            0000746000000000
Precinct  0000747833400                                            0000747000000000
Precinct  0000748833410                                            0000748000000000
Precinct  0000749833500                                            0000749000000000
Precinct  0000750833610                                            0000750000000000
Precinct  0000751833700                                            0000751000000000
Precinct  0000752833710                                            0000752000000000
Precinct  0000753834000                                            0000753000000000
Precinct  0000754834200                                            0000754000000000
Precinct  0000755834400                                            0000755000000000
Precinct  0000756834600                                            0000756000000000
Precinct  0000757834700                                            0000757000000000
Precinct  0000758835000                                            0000758000000000
Precinct  0000759835040                                            0000759000000000
Precinct  0000760835100                                            0000760000000000
Precinct  0000761835300                                            0000761000000000
Precinct  0000762835310                                            0000762000000000
Precinct  0000763835600                                            0000763000000000
Precinct  0000764835610                                            0000764000000000
Precinct  0000765835730                                            0000765000000000
Precinct  0000766835800                                            0000766000000000
Precinct  0000767835820                                            0000767000000000
Precinct  0000768835910                                            0000768000000000
Precinct  0000769836000                                            0000769000000000
Precinct  0000770836110                                            0000770000000000
Precinct  0000771836200                                            0000771000000000
Precinct  0000772836210                                            0000772000000000
Precinct  0000773836400                                            0000773000000000
Precinct  0000774836500                                            0000774000000000
Precinct  0000775836600                                            0000775000000000
Precinct  0000776836700                                            0000776000000000
Precinct  0000777837100                                            0000777000000000
Precinct  0000778837200                                            0000778000000000
Precinct  0000779837300                                            0000779000000000
Precinct  0000780837400                                            0000780000000000
Precinct  0000781837500                                            0000781000000000
Precinct  0000782837600                                            0000782000000000
Precinct  0000783837700                                            0000783000000000
Precinct  0000784837710                                            0000784000000000
Precinct  0000785837800                                            0000785000000000
Precinct  0000786837900                                            0000786000000000
Precinct  0000787838000                                            0000787000000000
Precinct  0000788838110                                            0000788000000000
Precinct  0000789838300                                            0000789000000000
Precinct  0000790838500                                            0000790000000000
Precinct  0000791838600                                            0000791000000000
Precinct  0000792838700                                            0000792000000000
Precinct  0000793839530                                            0000793000000000
Precinct  0000794850300                                            0000794000000000
Precinct  0000795850320                                            0000795000000000
Precinct  0000796850330                                            0000796000000000
Precinct  0000797850400                                            0000797000000000
Precinct  0000798850410                                            0000798000000000
Precinct  0000799850500                                            0000799000000000
Precinct  0000800850600                                            0000800000000000
Precinct  0000801850800                                            0000801000000000
Precinct  0000802850810                                            0000802000000000
Precinct  0000803850900                                            0000803000000000
Precinct  0000804851000                                            0000804000000000
Precinct  0000805851200                                            0000805000000000
Precinct  0000806851300                                            0000806000000000
Precinct  0000807851500                                            0000807000000000
Precinct  0000808851510                                            0000808000000000
Precinct  0000809851520                                            0000809000000000
Precinct  0000810851600                                            0000810000000000
Precinct  0000811851700                                            0000811000000000
Precinct  0000812851800                                            0000812000000000
Precinct  0000813852010                                            0000813000000000
Precinct  0000814852100                                            0000814000000000
Precinct  0000815866800                                            0000815000000000
Precinct  00008169205510                                           0000816000000000
Precinct  00008179205550                                           0000817000000000
Precinct  00008189207630                                           0000818000000000
Precinct  00008199207640                                           0000819000000000
Precinct  00008209209910                                           0000820000000000
Precinct  00008219213000                                           0000821000000000
Precinct  00008229215630                                           0000822000000000
Precinct  00008239215810                                           0000823000000000
Precinct  00008249223100                                           0000824000000000
Precinct  00008259223110                                           0000825000000000
Precinct  00008269224300                                           0000826000000000
Precinct  00008279224420                                           0000827000000000
Precinct  00008289224440                                           0000828000000000
Precinct  00008299224810                                           0000829000000000
Precinct  00008309224910                                           0000830000000000
Precinct  00008319225500                                           0000831000000000
Precinct  00008329244910                                           0000832000000000
Precinct  00008339323400                                           0000833000000000
Precinct  00008349325000                                           0000834000000000
Precinct  00008359333300                                           0000835000000000
Precinct  00008369333420                                           0000836000000000
Precinct  00008379333910                                           0000837000000000
Precinct  00008389333920                                           0000838000000000
Precinct  00008399333930                                           0000839000000000
Precinct  00008409334510                                           0000840000000000
Precinct  00008419335110                                           0000841000000000
Precinct  00008429335600                                           0000842000000000
Precinct  00008439335800                                           0000843000000000
Precinct  00008449335910                                           0000844000000000
Precinct  00008459336300                                           0000845000000000
Precinct  00008469336810                                           0000846000000000
Precinct  00008479344020                                           0000847000000000
Precinct  00008489345710                                           0000848000000000
Precinct  00008499347210                                           0000849000000000
Precinct  00008509347220                                           0000850000000000
Precinct  00008519355210                                           0000851000000000
Precinct  00008529355220                                           0000852000000000
Precinct  00008539360900                                           0000853000000000
Precinct  00008549361100                                           0000854000000000
Precinct  00008559361210                                           0000855000000000
Precinct  00008569361400                                           0000856000000000
Precinct  00008579362000                                           0000857000000000
Precinct  00008589364020                                           0000858000000000
Precinct  00008599364030                                           0000859000000000
Precinct  00008609364210                                           0000860000000000
Precinct  00008619364320                                           0000861000000000
Precinct  00008629364330                                           0000862000000000
Precinct  00008639373000                                           0000863000000000
Precinct  00008649373010                                           0000864000000000
Precinct  00008659373020                                           0000865000000000
Precinct  00008669373030                                           0000866000000000
Precinct  00008679394000                                           0000867000000000
Precinct  00008689394100                                           0000868000000000
Precinct  00008699394200                                           0000869000000000
Precinct  00008709416220                                           0000870000000000
Precinct  00008719420010                                           0000871000000000
Precinct  00008729420020                                           0000872000000000
Precinct  00008739420030                                           0000873000000000
Precinct  00008749420040                                           0000874000000000
Precinct  00008759420050                                           0000875000000000
Precinct  00008769420200                                           0000876000000000
Precinct  00008779420210                                           0000877000000000
Precinct  00008789420220                                           0000878000000000
Precinct  00008799420230                                           0000879000000000
Precinct  00008809420240                                           0000880000000000
Precinct  00008819420250                                           0000881000000000
Precinct  00008829420300                                           0000882000000000
Precinct  00008839420310                                           0000883000000000
Precinct  00008849420320                                           0000884000000000
Precinct  00008859420510                                           0000885000000000
Precinct  00008869420610                                           0000886000000000
Precinct  00008879420800                                           0000887000000000
Precinct  00008889422930                                           0000888000000000
Precinct  00008899422940                                           0000889000000000
Precinct  00008909422950                                           0000890000000000
Precinct  00008919423620                                           0000891000000000
Precinct  00008929423700                                           0000892000000000
Precinct  00008939423800                                           0000893000000000
Precinct  00008949424200                                           0000894000000000
Precinct  00008959430010                                           0000895000000000
Precinct  00008969430020                                           0000896000000000
Precinct  00008979430110                                           0000897000000000
Precinct  00008989430120                                           0000898000000000
Precinct  00008999430130                                           0000899000000000
Precinct  00009009430140                                           0000900000000000
Precinct  00009019430150                                           0000901000000000
Precinct  00009029430160                                           0000902000000000
Precinct  00009039430410                                           0000903000000000
Precinct  00009049430420                                           0000904000000000
Precinct  00009059430500                                           0000905000000000
Precinct  00009069430510                                           0000906000000000
Precinct  00009079430710                                           0000907000000000
Precinct  00009089430720                                           0000908000000000
Precinct  00009099430800                                           0000909000000000
Precinct  00009109430820                                           0000910000000000
Precinct  00009119430830                                           0000911000000000
Precinct  00009129431110                                           0000912000000000
Precinct  00009139431120                                           0000913000000000
Precinct  00009149431200                                           0000914000000000
Precinct  00009159431210                                           0000915000000000
Precinct  00009169431300                                           0000916000000000
Precinct  00009179431310                                           0000917000000000
Precinct  00009189431400                                           0000918000000000
Precinct  00009199431500                                           0000919000000000
Precinct  00009209431610                                           0000920000000000
Precinct  00009219431620                                           0000921000000000
Precinct  00009229431700                                           0000922000000000
Precinct  00009239431900                                           0000923000000000
Precinct  00009249432910                                           0000924000000000
Precinct  00009259433620                                           0000925000000000
Precinct  00009269433630                                           0000926000000000
Precinct  00009279438120                                           0000927000000000
Precinct  00009289438140                                           0000928000000000
Precinct  00009299438500                                           0000929000000000
Precinct  00009309442610                                           0000930000000000
Precinct  00009319442810                                           0000931000000000
Precinct  00009329442820                                           0000932000000000
Precinct  00009339443110                                           0000933000000000
Precinct  00009349443600                                           0000934000000000
Precinct  00009359443700                                           0000935000000000
Precinct  00009369443710                                           0000936000000000
Precinct  00009379443720                                           0000937000000000
Precinct  00009389443730                                           0000938000000000
Precinct  00009399443740                                           0000939000000000
Precinct  00009409443800                                           0000940000000000
Precinct  00009419447010                                           0000941000000000
Precinct  00009429447020                                           0000942000000000
Precinct  00009439447050                                           0000943000000000
Precinct  00009449447100                                           0000944000000000
Precinct  00009459447110                                           0000945000000000
Precinct  00009469447210                                           0000946000000000
Precinct  00009479447300                                           0000947000000000
Precinct  00009489447510                                           0000948000000000
Precinct  00009499447700                                           0000949000000000
Precinct  00009509447710                                           0000950000000000
Precinct  00009519447720                                           0000951000000000
Precinct  00009529450920                                           0000952000000000
Precinct  00009539450930                                           0000953000000000
Precinct  00009549451500                                           0000954000000000
Precinct  00009559452000                                           0000955000000000
Precinct  00009569454220                                           0000956000000000
Precinct  00009579454230                                           0000957000000000
Precinct  00009589454600                                           0000958000000000
Precinct  00009599454700                                           0000959000000000
Precinct  00009609455010                                           0000960000000000
Precinct  00009619455200                                           0000961000000000
Precinct  00009629455410                                           0000962000000000
Precinct  00009639456610                                           0000963000000000
Precinct  00009649464000                                           0000964000000000
Precinct  00009659464010                                           0000965000000000
Precinct  00009669464020                                           0000966000000000
Precinct  00009679464100                                           0000967000000000
Precinct  00009689464200                                           0000968000000000
Precinct  00009699464210                                           0000969000000000
Precinct  00009709464300                                           0000970000000000
Precinct  00009719464310                                           0000971000000000
Precinct  00009729464320                                           0000972000000000
Precinct  00009739464370                                           0000973000000000
Precinct  00009749464500                                           0000974000000000
Precinct  00009759464600                                           0000975000000000
Precinct  00009769464670                                           0000976000000000
Precinct  00009779464700                                           0000977000000000
Precinct  00009789470100                                           0000978000000000
Precinct  00009799470310                                           0000979000000000
Precinct  00009809470700                                           0000980000000000
Precinct  00009819472920                                           0000981000000000
Precinct  00009829475010                                           0000982000000000
Precinct  00009839475210                                           0000983000000000
Precinct  00009849475600                                           0000984000000000
Precinct  00009859475620                                           0000985000000000
Precinct  00009869475630                                           0000986000000000
Precinct  00009879475640                                           0000987000000000
Precinct  00009889476120                                           0000988000000000
Precinct  00009899480010                                           0000989000000000
Precinct  00009909481110                                           0000990000000000
Precinct  00009919481310                                           0000991000000000
Precinct  00009929481430                                           0000992000000000
Precinct  00009939481520                                           0000993000000000
Precinct  00009949481530                                           0000994000000000
Precinct  00009959481540                                           0000995000000000
Precinct  00009969481550                                           0000996000000000
Precinct  00009979481810                                           0000997000000000
Precinct  00009989481900                                           0000998000000000
Precinct  00009999481930                                           0000999000000000
Precinct  00010009481940                                           0001000000000000
Precinct  00010019481950                                           0001001000000000
Precinct  00010029481960                                           0001002000000000
Precinct  00010039481970                                           0001003000000000
Precinct  00010049482000                                           0001004000000000
Precinct  00010059482020                                           0001005000000000
Precinct  00010069482040                                           0001006000000000
Precinct  00010079482050                                           0001007000000000
Precinct  00010089484000                                           0001008000000000
Precinct  00010099490040                                           0001009000000000
Precinct  00010109490100                                           0001010000000000
Precinct  00010119490200                                           0001011000000000
Precinct  00010129490300                                           0001012000000000
Precinct  00010139491010                                           0001013000000000
Precinct  00010149491020                                           0001014000000000
Precinct  00010159491410                                           0001015000000000
Precinct  00010169491600                                           0001016000000000
Precinct  00010179491630                                           0001017000000000
Precinct  00010189491650                                           0001018000000000
Precinct  00010199492000                                           0001019000000000
Precinct  00010209492040                                           0001020000000000
Precinct  00010219492100                                           0001021000000000
Precinct  00010229492110                                           0001022000000000
Precinct  00010239492200                                           0001023000000000
Precinct  00010249498100                                           0001024000000000
Precinct  00010259498200                                           0001025000000000
Precinct  00010269498220                                           0001026000000000
Precinct  00010279498300                                           0001027000000000
Precinct  00010289498310                                           0001028000000000
Precinct  00010299498320                                           0001029000000000
Precinct  00010309499000                                           0001030000000000
Precinct  00010319499010                                           0001031000000000
Precinct  00010329500220                                           0001032000000000
Precinct  00010339500510                                           0001033000000000
Precinct  00010349501710                                           0001034000000000
Precinct  00010359502910                                           0001035000000000
Precinct  00010369510100                                           0001036000000000
Precinct  00010379510110                                           0001037000000000
Precinct  00010389510120                                           0001038000000000
Precinct  00010399510140                                           0001039000000000
Precinct  00010409510150                                           0001040000000000
Precinct  00010419510300                                           0001041000000000
Precinct  00010429510410                                           0001042000000000
Precinct  00010439510500                                           0001043000000000
Precinct  00010449510700                                           0001044000000000
Precinct  00010459510720                                           0001045000000000
Precinct  00010469510730                                           0001046000000000
Precinct  00010479510800                                           0001047000000000
Precinct  00010489510810                                           0001048000000000
Precinct  00010499510840                                           0001049000000000
Precinct  00010509510890                                           0001050000000000
Precinct  00010519510910                                           0001051000000000
Precinct  00010529510920                                           0001052000000000
Precinct  00010539510950                                           0001053000000000
Precinct  00010549510960                                           0001054000000000
Precinct  00010559510970                                           0001055000000000
Precinct  00010569510980                                           0001056000000000
Precinct  00010579510990                                           0001057000000000
Precinct  00010589511000                                           0001058000000000
Precinct  00010599520250                                           0001059000000000
Precinct  00010609520900                                           0001060000000000
Precinct  00010619520910                                           0001061000000000
Precinct  00010629522160                                           0001062000000000
Precinct  00010639530200                                           0001063000000000
Precinct  00010649532000                                           0001064000000000
Precinct  00010659532100                                           0001065000000000
Precinct  00010669532200                                           0001066000000000
Precinct  00010679532400                                           0001067000000000
Precinct  00010689535000                                           0001068000000000
Precinct  00010699535020                                           0001069000000000
Precinct  00010709535030                                           0001070000000000
Precinct  00010719535040                                           0001071000000000
Precinct  00010729535050                                           0001072000000000
Precinct  00010739535060                                           0001073000000000
Precinct  00010749535070                                           0001074000000000
Precinct  00010759535090                                           0001075000000000
Precinct  00010769535200                                           0001076000000000
Precinct  00010779535300                                           0001077000000000
Precinct  00010789535400                                           0001078000000000
Precinct  00010799535500                                           0001079000000000
Precinct  00010809535600                                           0001080000000000
Precinct  00010819535700                                           0001081000000000
Precinct  00010829535900                                           0001082000000000
Precinct  00010839810900                                           0001083000000000
Precinct  00010849815110                                           0001084000000000
Precinct  00010859815120                                           0001085000000000
Precinct  00010869815140                                           0001086000000000
Precinct  00010879819020                                           0001087000000000
Precinct  00010889819100                                           0001088000000000
Precinct  00010899820000                                           0001089000000000
Precinct  00010909821010                                           0001090000000000
Precinct  00010919821020                                           0001091000000000
Precinct  00010929821310                                           0001092000000000
Precinct  00010939821720                                           0001093000000000
Precinct  00010949823030                                           0001094000000000
Precinct  00010959823040                                           0001095000000000
Precinct  00010969831220                                           0001096000000000
Precinct  00010979831730                                           0001097000000000
Precinct  00010989834020                                           0001098000000000
Precinct  00010999834030                                           0001099000000000
Precinct  00011009834410                                           0001100000000000
Precinct  00011019835050                                           0001101000000000
Precinct  00011029835700                                           0001102000000000
Precinct  00011039835740                                           0001103000000000
Precinct  00011049839000                                           0001104000000000
Precinct  00011059839120                                           0001105000000000
Precinct  00011069839200                                           0001106000000000
Precinct  00011079839210                                           0001107000000000
Precinct  00011089839220                                           0001108000000000
Precinct  00011099839230                                           0001109000000000
Precinct  00011109839240                                           0001110000000000
Precinct  00011119839300                                           0001111000000000
Precinct  00011129839310                                           0001112000000000
Precinct  00011139839330                                           0001113000000000
Precinct  00011149839350                                           0001114000000000
Precinct  00011159839360                                           0001115000000000
Precinct  00011169839380                                           0001116000000000
Precinct  00011179866900                                           0001117000000000
Precinct  00011189866910                                           0001118000000000
Precinct  00011199866920                                           0001119000000000
Precinct  00011209866930                                           0001120000000000
Precinct  00011219867100                                           0001121000000000
Precinct  00011229867110                                           0001122000000000
Precinct  00011239867200                                           0001123000000000
Precinct  00011249867400                                           0001124000000000
Precinct  00011259867410                                           0001125000000000
Precinct  00011269870000                                           0001126000000000
Precinct  00011279870010                                           0001127000000000
Precinct  00011289870100                                           0001128000000000
Precinct  00011299870110                                           0001129000000000
Precinct  00011309870120                                           0001130000000000
Precinct  00011319870150                                           0001131000000000
Precinct  00011329880200                                           0001132000000000
Precinct  00011339880220                                           0001133000000000
Precinct  00011349880400                                           0001134000000000
Precinct  00011359880500                                           0001135000000000
Tally Type0000001Election Day - Insight                            0000001000000000
Tally Type0000002Election Day - 400C                               0000002000000000
Tally Type0000003Vote by Mail - 400C                               0000003000000000
Tally Type0000004Provisional - 400C                                0000004000000000
Tally Type0000005Election Day - Edge                               0000005000000000
Tally Type0000006MVBM - 400C                                       0000006000000000
Tally Type0000007Election Day - External                           0000007000000000
