Candidate 0000466SOPHIE HAHN                                       0000001000007000
Candidate 0000467STEPHEN MURPHY                                    0000002000007000
Candidate 0000103Write-In                                          0000003000007010
Contest   0000070Member, City Council, Dist. 5 - Berkeley (RCV)    0000070000000000
Precinct  0000001200100                                            0000001000000000
Precinct  0000002200200                                            0000002000000000
Precinct  0000003200300                                            0000003000000000
Precinct  0000004200600                                            0000004000000000
Precinct  0000005200700                                            0000005000000000
Precinct  0000006200800                                            0000006000000000
Precinct  0000007201000                                            0000007000000000
Precinct  0000008201100                                            0000008000000000
Precinct  0000009201300                                            0000009000000000
Precinct  0000010201400                                            0000010000000000
Precinct  0000011201410                                            0000011000000000
Precinct  0000012201500                                            0000012000000000
Precinct  0000013201700                                            0000013000000000
Precinct  0000014201710                                            0000014000000000
Precinct  0000015201800                                            0000015000000000
Precinct  0000016201900                                            0000016000000000
Precinct  0000017202010                                            0000017000000000
Precinct  0000018202110                                            0000018000000000
Precinct  0000019202310                                            0000019000000000
Precinct  0000020202500                                            0000020000000000
Precinct  0000021202520                                            0000021000000000
Precinct  0000022202540                                            0000022000000000
Precinct  0000023202600                                            0000023000000000
Precinct  0000024202620                                            0000024000000000
Precinct  0000025202710                                            0000025000000000
Precinct  0000026202900                                            0000026000000000
Precinct  0000027203100                                            0000027000000000
Precinct  0000028203200                                            0000028000000000
Precinct  0000029203300                                            0000029000000000
Precinct  0000030203400                                            0000030000000000
Precinct  0000031203500                                            0000031000000000
Precinct  0000032203800                                            0000032000000000
Precinct  0000033204000                                            0000033000000000
Precinct  0000034204100                                            0000034000000000
Precinct  0000035204210                                            0000035000000000
Precinct  0000036204220                                            0000036000000000
Precinct  0000037204230                                            0000037000000000
Precinct  0000038204240                                            0000038000000000
Precinct  0000039204300                                            0000039000000000
Precinct  0000040204310                                            0000040000000000
Precinct  0000041204510                                            0000041000000000
Precinct  0000042204600                                            0000042000000000
Precinct  0000043204900                                            0000043000000000
Precinct  0000044204910                                            0000044000000000
Precinct  0000045205000                                            0000045000000000
Precinct  0000046205100                                            0000046000000000
Precinct  0000047205200                                            0000047000000000
Precinct  0000048205500                                            0000048000000000
Precinct  0000049205600                                            0000049000000000
Precinct  0000050205700                                            0000050000000000
Precinct  0000051205800                                            0000051000000000
Precinct  0000052205900                                            0000052000000000
Precinct  0000053206000                                            0000053000000000
Precinct  0000054206100                                            0000054000000000
Precinct  0000055206200                                            0000055000000000
Precinct  0000056206300                                            0000056000000000
Precinct  0000057206400                                            0000057000000000
Precinct  0000058206600                                            0000058000000000
Precinct  0000059206900                                            0000059000000000
Precinct  0000060207000                                            0000060000000000
Precinct  0000061207010                                            0000061000000000
Precinct  0000062207100                                            0000062000000000
Precinct  0000063207200                                            0000063000000000
Precinct  0000064207300                                            0000064000000000
Precinct  0000065207500                                            0000065000000000
Precinct  0000066207600                                            0000066000000000
Precinct  0000067207700                                            0000067000000000
Precinct  0000068208000                                            0000068000000000
Precinct  0000069208010                                            0000069000000000
Precinct  0000070208100                                            0000070000000000
Precinct  0000071208110                                            0000071000000000
Precinct  0000072208200                                            0000072000000000
Precinct  0000073208210                                            0000073000000000
Precinct  0000074208300                                            0000074000000000
Precinct  0000075208310                                            0000075000000000
Precinct  0000076208400                                            0000076000000000
Precinct  0000077208500                                            0000077000000000
Precinct  0000078208510                                            0000078000000000
Precinct  0000079208600                                            0000079000000000
Precinct  0000080208610                                            0000080000000000
Precinct  0000081208650                                            0000081000000000
Precinct  0000082208700                                            0000082000000000
Precinct  0000083208800                                            0000083000000000
Precinct  0000084208810                                            0000084000000000
Precinct  0000085208900                                            0000085000000000
Precinct  0000086208910                                            0000086000000000
Precinct  0000087208920                                            0000087000000000
Precinct  0000088209000                                            0000088000000000
Precinct  0000089209010                                            0000089000000000
Precinct  0000090209100                                            0000090000000000
Precinct  0000091209110                                            0000091000000000
Precinct  0000092209200                                            0000092000000000
Precinct  0000093209300                                            0000093000000000
Precinct  0000094209310                                            0000094000000000
Precinct  0000095209400                                            0000095000000000
Precinct  0000096209410                                            0000096000000000
Precinct  0000097209510                                            0000097000000000
Precinct  0000098209600                                            0000098000000000
Precinct  0000099209610                                            0000099000000000
Precinct  0000100209700                                            0000100000000000
Precinct  0000101209710                                            0000101000000000
Precinct  0000102209800                                            0000102000000000
Precinct  0000103209900                                            0000103000000000
Precinct  0000104213100                                            0000104000000000
Precinct  0000105213300                                            0000105000000000
Precinct  0000106213400                                            0000106000000000
Precinct  0000107213500                                            0000107000000000
Precinct  0000108213600                                            0000108000000000
Precinct  0000109213700                                            0000109000000000
Precinct  0000110213800                                            0000110000000000
Precinct  0000111213900                                            0000111000000000
Precinct  0000112214100                                            0000112000000000
Precinct  0000113214200                                            0000113000000000
Precinct  0000114214300                                            0000114000000000
Precinct  0000115214400                                            0000115000000000
Precinct  0000116214500                                            0000116000000000
Precinct  0000117214600                                            0000117000000000
Precinct  0000118214800                                            0000118000000000
Precinct  0000119215100                                            0000119000000000
Precinct  0000120215120                                            0000120000000000
Precinct  0000121215200                                            0000121000000000
Precinct  0000122215300                                            0000122000000000
Precinct  0000123215500                                            0000123000000000
Precinct  0000124215610                                            0000124000000000
Precinct  0000125215700                                            0000125000000000
Precinct  0000126215800                                            0000126000000000
Precinct  0000127215900                                            0000127000000000
Precinct  0000128223000                                            0000128000000000
Precinct  0000129223010                                            0000129000000000
Precinct  0000130223200                                            0000130000000000
Precinct  0000131223300                                            0000131000000000
Precinct  0000132223400                                            0000132000000000
Precinct  0000133224000                                            0000133000000000
Precinct  0000134224200                                            0000134000000000
Precinct  0000135224400                                            0000135000000000
Precinct  0000136224500                                            0000136000000000
Precinct  0000137224600                                            0000137000000000
Precinct  0000138224700                                            0000138000000000
Precinct  0000139224800                                            0000139000000000
Precinct  0000140225000                                            0000140000000000
Precinct  0000141225100                                            0000141000000000
Precinct  0000142225200                                            0000142000000000
Precinct  0000143225400                                            0000143000000000
Precinct  0000144225600                                            0000144000000000
Precinct  0000145225700                                            0000145000000000
Precinct  0000146225710                                            0000146000000000
Precinct  0000147225810                                            0000147000000000
Precinct  0000148225900                                            0000148000000000
Precinct  0000149225910                                            0000149000000000
Precinct  0000150226100                                            0000150000000000
Precinct  0000151226200                                            0000151000000000
Precinct  0000152226300                                            0000152000000000
Precinct  0000153226400                                            0000153000000000
Precinct  0000154244000                                            0000154000000000
Precinct  0000155244100                                            0000155000000000
Precinct  0000156244200                                            0000156000000000
Precinct  0000157244300                                            0000157000000000
Precinct  0000158244400                                            0000158000000000
Precinct  0000159244500                                            0000159000000000
Precinct  0000160244600                                            0000160000000000
Precinct  0000161244700                                            0000161000000000
Precinct  0000162244800                                            0000162000000000
Precinct  0000163244900                                            0000163000000000
Precinct  0000164245000                                            0000164000000000
Precinct  0000165245100                                            0000165000000000
Precinct  0000166245200                                            0000166000000000
Precinct  0000167260100                                            0000167000000000
Precinct  0000168260300                                            0000168000000000
Precinct  0000169260400                                            0000169000000000
Precinct  0000170260610                                            0000170000000000
Precinct  0000171260800                                            0000171000000000
Precinct  0000172260900                                            0000172000000000
Precinct  0000173261000                                            0000173000000000
Precinct  0000174261300                                            0000174000000000
Precinct  0000175261400                                            0000175000000000
Precinct  0000176261600                                            0000176000000000
Precinct  0000177261700                                            0000177000000000
Precinct  0000178262000                                            0000178000000000
Precinct  0000179262100                                            0000179000000000
Precinct  0000180280100                                            0000180000000000
Precinct  0000181280500                                            0000181000000000
Precinct  0000182280700                                            0000182000000000
Precinct  0000183281000                                            0000183000000000
Precinct  0000184281300                                            0000184000000000
Precinct  0000185281600                                            0000185000000000
Precinct  0000186300000                                            0000186000000000
Precinct  0000187300100                                            0000187000000000
Precinct  0000188300110                                            0000188000000000
Precinct  0000189300120                                            0000189000000000
Precinct  0000190300140                                            0000190000000000
Precinct  0000191300150                                            0000191000000000
Precinct  0000192300170                                            0000192000000000
Precinct  0000193300180                                            0000193000000000
Precinct  0000194300210                                            0000194000000000
Precinct  0000195300300                                            0000195000000000
Precinct  0000196300400                                            0000196000000000
Precinct  0000197301100                                            0000197000000000
Precinct  0000198301200                                            0000198000000000
Precinct  0000199301400                                            0000199000000000
Precinct  0000200301520                                            0000200000000000
Precinct  0000201301800                                            0000201000000000
Precinct  0000202301900                                            0000202000000000
Precinct  0000203302000                                            0000203000000000
Precinct  0000204302100                                            0000204000000000
Precinct  0000205302200                                            0000205000000000
Precinct  0000206302400                                            0000206000000000
Precinct  0000207302500                                            0000207000000000
Precinct  0000208302510                                            0000208000000000
Precinct  0000209302700                                            0000209000000000
Precinct  0000210303000                                            0000210000000000
Precinct  0000211303300                                            0000211000000000
Precinct  0000212303400                                            0000212000000000
Precinct  0000213303500                                            0000213000000000
Precinct  0000214303600                                            0000214000000000
Precinct  0000215303800                                            0000215000000000
Precinct  0000216304000                                            0000216000000000
Precinct  0000217304120                                            0000217000000000
Precinct  0000218304200                                            0000218000000000
Precinct  0000219304500                                            0000219000000000
Precinct  0000220304600                                            0000220000000000
Precinct  0000221304700                                            0000221000000000
Precinct  0000222304800                                            0000222000000000
Precinct  0000223304900                                            0000223000000000
Precinct  0000224305000                                            0000224000000000
Precinct  0000225305010                                            0000225000000000
Precinct  0000226305100                                            0000226000000000
Precinct  0000227305400                                            0000227000000000
Precinct  0000228305410                                            0000228000000000
Precinct  0000229305500                                            0000229000000000
Precinct  0000230305600                                            0000230000000000
Precinct  0000231305700                                            0000231000000000
Precinct  0000232310000                                            0000232000000000
Precinct  0000233310100                                            0000233000000000
Precinct  0000234310200                                            0000234000000000
Precinct  0000235310300                                            0000235000000000
Precinct  0000236310400                                            0000236000000000
Precinct  0000237310500                                            0000237000000000
Precinct  0000238310600                                            0000238000000000
Precinct  0000239310700                                            0000239000000000
Precinct  0000240310900                                            0000240000000000
Precinct  0000241311100                                            0000241000000000
Precinct  0000242311200                                            0000242000000000
Precinct  0000243311400                                            0000243000000000
Precinct  0000244311500                                            0000244000000000
Precinct  0000245311700                                            0000245000000000
Precinct  0000246323000                                            0000246000000000
Precinct  0000247323200                                            0000247000000000
Precinct  0000248325100                                            0000248000000000
Precinct  0000249325110                                            0000249000000000
Precinct  0000250325200                                            0000250000000000
Precinct  0000251325300                                            0000251000000000
Precinct  0000252325400                                            0000252000000000
Precinct  0000253325500                                            0000253000000000
Precinct  0000254325510                                            0000254000000000
Precinct  0000255325600                                            0000255000000000
Precinct  0000256325700                                            0000256000000000
Precinct  0000257325800                                            0000257000000000
Precinct  0000258333100                                            0000258000000000
Precinct  0000259333200                                            0000259000000000
Precinct  0000260333210                                            0000260000000000
Precinct  0000261333400                                            0000261000000000
Precinct  0000262333410                                            0000262000000000
Precinct  0000263333500                                            0000263000000000
Precinct  0000264333510                                            0000264000000000
Precinct  0000265333600                                            0000265000000000
Precinct  0000266333800                                            0000266000000000
Precinct  0000267333900                                            0000267000000000
Precinct  0000268334000                                            0000268000000000
Precinct  0000269334100                                            0000269000000000
Precinct  0000270334600                                            0000270000000000
Precinct  0000271334700                                            0000271000000000
Precinct  0000272335000                                            0000272000000000
Precinct  0000273335100                                            0000273000000000
Precinct  0000274335200                                            0000274000000000
Precinct  0000275335300                                            0000275000000000
Precinct  0000276335400                                            0000276000000000
Precinct  0000277335500                                            0000277000000000
Precinct  0000278335700                                            0000278000000000
Precinct  0000279335710                                            0000279000000000
Precinct  0000280335810                                            0000280000000000
Precinct  0000281335900                                            0000281000000000
Precinct  0000282336100                                            0000282000000000
Precinct  0000283336110                                            0000283000000000
Precinct  0000284336200                                            0000284000000000
Precinct  0000285336400                                            0000285000000000
Precinct  0000286336500                                            0000286000000000
Precinct  0000287336600                                            0000287000000000
Precinct  0000288336610                                            0000288000000000
Precinct  0000289336710                                            0000289000000000
Precinct  0000290336900                                            0000290000000000
Precinct  0000291336910                                            0000291000000000
Precinct  0000292337000                                            0000292000000000
Precinct  0000293337100                                            0000293000000000
Precinct  0000294337110                                            0000294000000000
Precinct  0000295337200                                            0000295000000000
Precinct  0000296344000                                            0000296000000000
Precinct  0000297344010                                            0000297000000000
Precinct  0000298344100                                            0000298000000000
Precinct  0000299344200                                            0000299000000000
Precinct  0000300344400                                            0000300000000000
Precinct  0000301344500                                            0000301000000000
Precinct  0000302344600                                            0000302000000000
Precinct  0000303344700                                            0000303000000000
Precinct  0000304344800                                            0000304000000000
Precinct  0000305344900                                            0000305000000000
Precinct  0000306345000                                            0000306000000000
Precinct  0000307345100                                            0000307000000000
Precinct  0000308345200                                            0000308000000000
Precinct  0000309345310                                            0000309000000000
Precinct  0000310345400                                            0000310000000000
Precinct  0000311345500                                            0000311000000000
Precinct  0000312345600                                            0000312000000000
Precinct  0000313345700                                            0000313000000000
Precinct  0000314345800                                            0000314000000000
Precinct  0000315345900                                            0000315000000000
Precinct  0000316346000                                            0000316000000000
Precinct  0000317346100                                            0000317000000000
Precinct  0000318346200                                            0000318000000000
Precinct  0000319347110                                            0000319000000000
Precinct  0000320347200                                            0000320000000000
Precinct  0000321347300                                            0000321000000000
Precinct  0000322353300                                            0000322000000000
Precinct  0000323353310                                            0000323000000000
Precinct  0000324353400                                            0000324000000000
Precinct  0000325353500                                            0000325000000000
Precinct  0000326353600                                            0000326000000000
Precinct  0000327353800                                            0000327000000000
Precinct  0000328353900                                            0000328000000000
Precinct  0000329354000                                            0000329000000000
Precinct  0000330354100                                            0000330000000000
Precinct  0000331354110                                            0000331000000000
Precinct  0000332354300                                            0000332000000000
Precinct  0000333354400                                            0000333000000000
Precinct  0000334354500                                            0000334000000000
Precinct  0000335354700                                            0000335000000000
Precinct  0000336354900                                            0000336000000000
Precinct  0000337354910                                            0000337000000000
Precinct  0000338355000                                            0000338000000000
Precinct  0000339355100                                            0000339000000000
Precinct  0000340356000                                            0000340000000000
Precinct  0000341356200                                            0000341000000000
Precinct  0000342356210                                            0000342000000000
Precinct  0000343356400                                            0000343000000000
Precinct  0000344356500                                            0000344000000000
Precinct  0000345361000                                            0000345000000000
Precinct  0000346361130                                            0000346000000000
Precinct  0000347361200                                            0000347000000000
Precinct  0000348361300                                            0000348000000000
Precinct  0000349361500                                            0000349000000000
Precinct  0000350362100                                            0000350000000000
Precinct  0000351362110                                            0000351000000000
Precinct  0000352362300                                            0000352000000000
Precinct  0000353362500                                            0000353000000000
Precinct  0000354362510                                            0000354000000000
Precinct  0000355362600                                            0000355000000000
Precinct  0000356362700                                            0000356000000000
Precinct  0000357362800                                            0000357000000000
Precinct  0000358362900                                            0000358000000000
Precinct  0000359363000                                            0000359000000000
Precinct  0000360363100                                            0000360000000000
Precinct  0000361363200                                            0000361000000000
Precinct  0000362363310                                            0000362000000000
Precinct  0000363363600                                            0000363000000000
Precinct  0000364364200                                            0000364000000000
Precinct  0000365364300                                            0000365000000000
Precinct  0000366364310                                            0000366000000000
Precinct  0000367364400                                            0000367000000000
Precinct  0000368364510                                            0000368000000000
Precinct  0000369364600                                            0000369000000000
Precinct  0000370364700                                            0000370000000000
Precinct  0000371364800                                            0000371000000000
Precinct  0000372364900                                            0000372000000000
Precinct  0000373365000                                            0000373000000000
Precinct  0000374365200                                            0000374000000000
Precinct  0000375373100                                            0000375000000000
Precinct  0000376373400                                            0000376000000000
Precinct  0000377373500                                            0000377000000000
Precinct  0000378373900                                            0000378000000000
Precinct  0000379380200                                            0000379000000000
Precinct  0000380380300                                            0000380000000000
Precinct  0000381380400                                            0000381000000000
Precinct  0000382380600                                            0000382000000000
Precinct  0000383380700                                            0000383000000000
Precinct  0000384400100                                            0000384000000000
Precinct  0000385400200                                            0000385000000000
Precinct  0000386400300                                            0000386000000000
Precinct  0000387400400                                            0000387000000000
Precinct  0000388400500                                            0000388000000000
Precinct  0000389400600                                            0000389000000000
Precinct  0000390400700                                            0000390000000000
Precinct  0000391400800                                            0000391000000000
Precinct  0000392400900                                            0000392000000000
Precinct  0000393401100                                            0000393000000000
Precinct  0000394410100                                            0000394000000000
Precinct  0000395410300                                            0000395000000000
Precinct  0000396410400                                            0000396000000000
Precinct  0000397410500                                            0000397000000000
Precinct  0000398410600                                            0000398000000000
Precinct  0000399415000                                            0000399000000000
Precinct  0000400415200                                            0000400000000000
Precinct  0000401415300                                            0000401000000000
Precinct  0000402415500                                            0000402000000000
Precinct  0000403415600                                            0000403000000000
Precinct  0000404415800                                            0000404000000000
Precinct  0000405415900                                            0000405000000000
Precinct  0000406420500                                            0000406000000000
Precinct  0000407420600                                            0000407000000000
Precinct  0000408420700                                            0000408000000000
Precinct  0000409420900                                            0000409000000000
Precinct  0000410421000                                            0000410000000000
Precinct  0000411421100                                            0000411000000000
Precinct  0000412421200                                            0000412000000000
Precinct  0000413421300                                            0000413000000000
Precinct  0000414421400                                            0000414000000000
Precinct  0000415421510                                            0000415000000000
Precinct  0000416421700                                            0000416000000000
Precinct  0000417421900                                            0000417000000000
Precinct  0000418422000                                            0000418000000000
Precinct  0000419422100                                            0000419000000000
Precinct  0000420422300                                            0000420000000000
Precinct  0000421422600                                            0000421000000000
Precinct  0000422422700                                            0000422000000000
Precinct  0000423422810                                            0000423000000000
Precinct  0000424422900                                            0000424000000000
Precinct  0000425422910                                            0000425000000000
Precinct  0000426422920                                            0000426000000000
Precinct  0000427423000                                            0000427000000000
Precinct  0000428423100                                            0000428000000000
Precinct  0000429423400                                            0000429000000000
Precinct  0000430423500                                            0000430000000000
Precinct  0000431423600                                            0000431000000000
Precinct  0000432423610                                            0000432000000000
Precinct  0000433423710                                            0000433000000000
Precinct  0000434424000                                            0000434000000000
Precinct  0000435424100                                            0000435000000000
Precinct  0000436424300                                            0000436000000000
Precinct  0000437424400                                            0000437000000000
Precinct  0000438430170                                            0000438000000000
Precinct  0000439430400                                            0000439000000000
Precinct  0000440430600                                            0000440000000000
Precinct  0000441430700                                            0000441000000000
Precinct  0000442430900                                            0000442000000000
Precinct  0000443431100                                            0000443000000000
Precinct  0000444431800                                            0000444000000000
Precinct  0000445432010                                            0000445000000000
Precinct  0000446432110                                            0000446000000000
Precinct  0000447432200                                            0000447000000000
Precinct  0000448432300                                            0000448000000000
Precinct  0000449432400                                            0000449000000000
Precinct  0000450432600                                            0000450000000000
Precinct  0000451432700                                            0000451000000000
Precinct  0000452432810                                            0000452000000000
Precinct  0000453432900                                            0000453000000000
Precinct  0000454433100                                            0000454000000000
Precinct  0000455433200                                            0000455000000000
Precinct  0000456433400                                            0000456000000000
Precinct  0000457433500                                            0000457000000000
Precinct  0000458433610                                            0000458000000000
Precinct  0000459433700                                            0000459000000000
Precinct  0000460433900                                            0000460000000000
Precinct  0000461440100                                            0000461000000000
Precinct  0000462440300                                            0000462000000000
Precinct  0000463440400                                            0000463000000000
Precinct  0000464440610                                            0000464000000000
Precinct  0000465440800                                            0000465000000000
Precinct  0000466440900                                            0000466000000000
Precinct  0000467441100                                            0000467000000000
Precinct  0000468441300                                            0000468000000000
Precinct  0000469441400                                            0000469000000000
Precinct  0000470442100                                            0000470000000000
Precinct  0000471442600                                            0000471000000000
Precinct  0000472442700                                            0000472000000000
Precinct  0000473443000                                            0000473000000000
Precinct  0000474443100                                            0000474000000000
Precinct  0000475443200                                            0000475000000000
Precinct  0000476443300                                            0000476000000000
Precinct  0000477443400                                            0000477000000000
Precinct  0000478443500                                            0000478000000000
Precinct  0000479447200                                            0000479000000000
Precinct  0000480447600                                            0000480000000000
Precinct  0000481450300                                            0000481000000000
Precinct  0000482450400                                            0000482000000000
Precinct  0000483450610                                            0000483000000000
Precinct  0000484450800                                            0000484000000000
Precinct  0000485451000                                            0000485000000000
Precinct  0000486451510                                            0000486000000000
Precinct  0000487451600                                            0000487000000000
Precinct  0000488451700                                            0000488000000000
Precinct  0000489452100                                            0000489000000000
Precinct  0000490452200                                            0000490000000000
Precinct  0000491452400                                            0000491000000000
Precinct  0000492452500                                            0000492000000000
Precinct  0000493453100                                            0000493000000000
Precinct  0000494453300                                            0000494000000000
Precinct  0000495453400                                            0000495000000000
Precinct  0000496453500                                            0000496000000000
Precinct  0000497453900                                            0000497000000000
Precinct  0000498453920                                            0000498000000000
Precinct  0000499454100                                            0000499000000000
Precinct  0000500454500                                            0000500000000000
Precinct  0000501455000                                            0000501000000000
Precinct  0000502455100                                            0000502000000000
Precinct  0000503455300                                            0000503000000000
Precinct  0000504455400                                            0000504000000000
Precinct  0000505455500                                            0000505000000000
Precinct  0000506455700                                            0000506000000000
Precinct  0000507455900                                            0000507000000000
Precinct  0000508456200                                            0000508000000000
Precinct  0000509456500                                            0000509000000000
Precinct  0000510456600                                            0000510000000000
Precinct  0000511456900                                            0000511000000000
Precinct  0000512457100                                            0000512000000000
Precinct  0000513457300                                            0000513000000000
Precinct  0000514457400                                            0000514000000000
Precinct  0000515457500                                            0000515000000000
Precinct  0000516457700                                            0000516000000000
Precinct  0000517457900                                            0000517000000000
Precinct  0000518458200                                            0000518000000000
Precinct  0000519458300                                            0000519000000000
Precinct  0000520458500                                            0000520000000000
Precinct  0000521458800                                            0000521000000000
Precinct  0000522458900                                            0000522000000000
Precinct  0000523470400                                            0000523000000000
Precinct  0000524470600                                            0000524000000000
Precinct  0000525470900                                            0000525000000000
Precinct  0000526471300                                            0000526000000000
Precinct  0000527471800                                            0000527000000000
Precinct  0000528471900                                            0000528000000000
Precinct  0000529472000                                            0000529000000000
Precinct  0000530472200                                            0000530000000000
Precinct  0000531472300                                            0000531000000000
Precinct  0000532472400                                            0000532000000000
Precinct  0000533472500                                            0000533000000000
Precinct  0000534473300                                            0000534000000000
Precinct  0000535473400                                            0000535000000000
Precinct  0000536473500                                            0000536000000000
Precinct  0000537473600                                            0000537000000000
Precinct  0000538473800                                            0000538000000000
Precinct  0000539473900                                            0000539000000000
Precinct  0000540474010                                            0000540000000000
Precinct  0000541474020                                            0000541000000000
Precinct  0000542474300                                            0000542000000000
Precinct  0000543474500                                            0000543000000000
Precinct  0000544474600                                            0000544000000000
Precinct  0000545474700                                            0000545000000000
Precinct  0000546474900                                            0000546000000000
Precinct  0000547475000                                            0000547000000000
Precinct  0000548475100                                            0000548000000000
Precinct  0000549475200                                            0000549000000000
Precinct  0000550475500                                            0000550000000000
Precinct  0000551475520                                            0000551000000000
Precinct  0000552475540                                            0000552000000000
Precinct  0000553476100                                            0000553000000000
Precinct  0000554476110                                            0000554000000000
Precinct  0000555481200                                            0000555000000000
Precinct  0000556481410                                            0000556000000000
Precinct  0000557481500                                            0000557000000000
Precinct  0000558481800                                            0000558000000000
Precinct  0000559483000                                            0000559000000000
Precinct  0000560491000                                            0000560000000000
Precinct  0000561491100                                            0000561000000000
Precinct  0000562491200                                            0000562000000000
Precinct  0000563491300                                            0000563000000000
Precinct  0000564491500                                            0000564000000000
Precinct  0000565500100                                            0000565000000000
Precinct  0000566500110                                            0000566000000000
Precinct  0000567500120                                            0000567000000000
Precinct  0000568500130                                            0000568000000000
Precinct  0000569500140                                            0000569000000000
Precinct  0000570500200                                            0000570000000000
Precinct  0000571500210                                            0000571000000000
Precinct  0000572500230                                            0000572000000000
Precinct  0000573500300                                            0000573000000000
Precinct  0000574500310                                            0000574000000000
Precinct  0000575500320                                            0000575000000000
Precinct  0000576500340                                            0000576000000000
Precinct  0000577500400                                            0000577000000000
Precinct  0000578500410                                            0000578000000000
Precinct  0000579500500                                            0000579000000000
Precinct  0000580500600                                            0000580000000000
Precinct  0000581500700                                            0000581000000000
Precinct  0000582500910                                            0000582000000000
Precinct  0000583501000                                            0000583000000000
Precinct  0000584501200                                            0000584000000000
Precinct  0000585501300                                            0000585000000000
Precinct  0000586501400                                            0000586000000000
Precinct  0000587501410                                            0000587000000000
Precinct  0000588501600                                            0000588000000000
Precinct  0000589501610                                            0000589000000000
Precinct  0000590501620                                            0000590000000000
Precinct  0000591501630                                            0000591000000000
Precinct  0000592501640                                            0000592000000000
Precinct  0000593501800                                            0000593000000000
Precinct  0000594501830                                            0000594000000000
Precinct  0000595501840                                            0000595000000000
Precinct  0000596501910                                            0000596000000000
Precinct  0000597502000                                            0000597000000000
Precinct  0000598502010                                            0000598000000000
Precinct  0000599502020                                            0000599000000000
Precinct  0000600502030                                            0000600000000000
Precinct  0000601502100                                            0000601000000000
Precinct  0000602502200                                            0000602000000000
Precinct  0000603502210                                            0000603000000000
Precinct  0000604502220                                            0000604000000000
Precinct  0000605502400                                            0000605000000000
Precinct  0000606502410                                            0000606000000000
Precinct  0000607502500                                            0000607000000000
Precinct  0000608502600                                            0000608000000000
Precinct  0000609502710                                            0000609000000000
Precinct  0000610502720                                            0000610000000000
Precinct  0000611502740                                            0000611000000000
Precinct  0000612502800                                            0000612000000000
Precinct  0000613502900                                            0000613000000000
Precinct  0000614502920                                            0000614000000000
Precinct  0000615520110                                            0000615000000000
Precinct  0000616520210                                            0000616000000000
Precinct  0000617520220                                            0000617000000000
Precinct  0000618520230                                            0000618000000000
Precinct  0000619520240                                            0000619000000000
Precinct  0000620520300                                            0000620000000000
Precinct  0000621520310                                            0000621000000000
Precinct  0000622520320                                            0000622000000000
Precinct  0000623520400                                            0000623000000000
Precinct  0000624520420                                            0000624000000000
Precinct  0000625520500                                            0000625000000000
Precinct  0000626520600                                            0000626000000000
Precinct  0000627520610                                            0000627000000000
Precinct  0000628520630                                            0000628000000000
Precinct  0000629520700                                            0000629000000000
Precinct  0000630520710                                            0000630000000000
Precinct  0000631520810                                            0000631000000000
Precinct  0000632520820                                            0000632000000000
Precinct  0000633520840                                            0000633000000000
Precinct  0000634520860                                            0000634000000000
Precinct  0000635520870                                            0000635000000000
Precinct  0000636521100                                            0000636000000000
Precinct  0000637521110                                            0000637000000000
Precinct  0000638521300                                            0000638000000000
Precinct  0000639521500                                            0000639000000000
Precinct  0000640522000                                            0000640000000000
Precinct  0000641522020                                            0000641000000000
Precinct  0000642522110                                            0000642000000000
Precinct  0000643522120                                            0000643000000000
Precinct  0000644522130                                            0000644000000000
Precinct  0000645522140                                            0000645000000000
Precinct  0000646522150                                            0000646000000000
Precinct  0000647522200                                            0000647000000000
Precinct  0000648522400                                            0000648000000000
Precinct  0000649523100                                            0000649000000000
Precinct  0000650523110                                            0000650000000000
Precinct  0000651523120                                            0000651000000000
Precinct  0000652523300                                            0000652000000000
Precinct  0000653523700                                            0000653000000000
Precinct  0000654523710                                            0000654000000000
Precinct  0000655523720                                            0000655000000000
Precinct  0000656523800                                            0000656000000000
Precinct  0000657540300                                            0000657000000000
Precinct  0000658540400                                            0000658000000000
Precinct  0000659540500                                            0000659000000000
Precinct  0000660540600                                            0000660000000000
Precinct  0000661540700                                            0000661000000000
Precinct  0000662540800                                            0000662000000000
Precinct  0000663541100                                            0000663000000000
Precinct  0000664542000                                            0000664000000000
Precinct  0000665542200                                            0000665000000000
Precinct  0000666543300                                            0000666000000000
Precinct  0000667544400                                            0000667000000000
Precinct  0000668545000                                            0000668000000000
Precinct  0000669546000                                            0000669000000000
Precinct  0000670546100                                            0000670000000000
Precinct  0000671546600                                            0000671000000000
Precinct  0000672547700                                            0000672000000000
Precinct  0000673547710                                            0000673000000000
Precinct  0000674547740                                            0000674000000000
Precinct  0000675547750                                            0000675000000000
Precinct  0000676547760                                            0000676000000000
Precinct  0000677547780                                            0000677000000000
Precinct  0000678547790                                            0000678000000000
Precinct  0000679821100                                            0000679000000000
Precinct  0000680821110                                            0000680000000000
Precinct  0000681821140                                            0000681000000000
Precinct  0000682821200                                            0000682000000000
Precinct  0000683821210                                            0000683000000000
Precinct  0000684821400                                            0000684000000000
Precinct  0000685821500                                            0000685000000000
Precinct  0000686821600                                            0000686000000000
Precinct  0000687821710                                            0000687000000000
Precinct  0000688821730                                            0000688000000000
Precinct  0000689821800                                            0000689000000000
Precinct  0000690821810                                            0000690000000000
Precinct  0000691821900                                            0000691000000000
Precinct  0000692821910                                            0000692000000000
Precinct  0000693822000                                            0000693000000000
Precinct  0000694822010                                            0000694000000000
Precinct  0000695822200                                            0000695000000000
Precinct  0000696823000                                            0000696000000000
Precinct  0000697823100                                            0000697000000000
Precinct  0000698823200                                            0000698000000000
Precinct  0000699823400                                            0000699000000000
Precinct  0000700823500                                            0000700000000000
Precinct  0000701823510                                            0000701000000000
Precinct  0000702823600                                            0000702000000000
Precinct  0000703823610                                            0000703000000000
Precinct  0000704823700                                            0000704000000000
Precinct  0000705823710                                            0000705000000000
Precinct  0000706823720                                            0000706000000000
Precinct  0000707823730                                            0000707000000000
Precinct  0000708823800                                            0000708000000000
Precinct  0000709823810                                            0000709000000000
Precinct  0000710823900                                            0000710000000000
Precinct  0000711830100                                            0000711000000000
Precinct  0000712830200                                            0000712000000000
Precinct  0000713830210                                            0000713000000000
Precinct  0000714830300                                            0000714000000000
Precinct  0000715830500                                            0000715000000000
Precinct  0000716830700                                            0000716000000000
Precinct  0000717831000                                            0000717000000000
Precinct  0000718831100                                            0000718000000000
Precinct  0000719831200                                            0000719000000000
Precinct  0000720831210                                            0000720000000000
Precinct  0000721831230                                            0000721000000000
Precinct  0000722831300                                            0000722000000000
Precinct  0000723831400                                            0000723000000000
Precinct  0000724831410                                            0000724000000000
Precinct  0000725831500                                            0000725000000000
Precinct  0000726831510                                            0000726000000000
Precinct  0000727831610                                            0000727000000000
Precinct  0000728831700                                            0000728000000000
Precinct  0000729831710                                            0000729000000000
Precinct  0000730831810                                            0000730000000000
Precinct  0000731831830                                            0000731000000000
Precinct  0000732831900                                            0000732000000000
Precinct  0000733831920                                            0000733000000000
Precinct  0000734832000                                            0000734000000000
Precinct  0000735832010                                            0000735000000000
Precinct  0000736832200                                            0000736000000000
Precinct  0000737832210                                            0000737000000000
Precinct  0000738832300                                            0000738000000000
Precinct  0000739832500                                            0000739000000000
Precinct  0000740832510                                            0000740000000000
Precinct  0000741832600                                            0000741000000000
Precinct  0000742832620                                            0000742000000000
Precinct  0000743832800                                            0000743000000000
Precinct  0000744832810                                            0000744000000000
Precinct  0000745832900                                            0000745000000000
Precinct  0000746833000                                            0000746000000000
Precinct  0000747833100                                            0000747000000000
Precinct  0000748833200                                            0000748000000000
Precinct  0000749833210                                            0000749000000000
Precinct  0000750833300                                            0000750000000000
Precinct  0000751833310                                            0000751000000000
Precinct  0000752833400                                            0000752000000000
Precinct  0000753833410                                            0000753000000000
Precinct  0000754833500                                            0000754000000000
Precinct  0000755833610                                            0000755000000000
Precinct  0000756833700                                            0000756000000000
Precinct  0000757833710                                            0000757000000000
Precinct  0000758834000                                            0000758000000000
Precinct  0000759834200                                            0000759000000000
Precinct  0000760834400                                            0000760000000000
Precinct  0000761834600                                            0000761000000000
Precinct  0000762834700                                            0000762000000000
Precinct  0000763835000                                            0000763000000000
Precinct  0000764835100                                            0000764000000000
Precinct  0000765835300                                            0000765000000000
Precinct  0000766835310                                            0000766000000000
Precinct  0000767835500                                            0000767000000000
Precinct  0000768835600                                            0000768000000000
Precinct  0000769835610                                            0000769000000000
Precinct  0000770835730                                            0000770000000000
Precinct  0000771835800                                            0000771000000000
Precinct  0000772835820                                            0000772000000000
Precinct  0000773835900                                            0000773000000000
Precinct  0000774836000                                            0000774000000000
Precinct  0000775836110                                            0000775000000000
Precinct  0000776836200                                            0000776000000000
Precinct  0000777836210                                            0000777000000000
Precinct  0000778836400                                            0000778000000000
Precinct  0000779836500                                            0000779000000000
Precinct  0000780836600                                            0000780000000000
Precinct  0000781837000                                            0000781000000000
Precinct  0000782837100                                            0000782000000000
Precinct  0000783837200                                            0000783000000000
Precinct  0000784837300                                            0000784000000000
Precinct  0000785837400                                            0000785000000000
Precinct  0000786837500                                            0000786000000000
Precinct  0000787837600                                            0000787000000000
Precinct  0000788837700                                            0000788000000000
Precinct  0000789837710                                            0000789000000000
Precinct  0000790837800                                            0000790000000000
Precinct  0000791837900                                            0000791000000000
Precinct  0000792838000                                            0000792000000000
Precinct  0000793838110                                            0000793000000000
Precinct  0000794838300                                            0000794000000000
Precinct  0000795838500                                            0000795000000000
Precinct  0000796838600                                            0000796000000000
Precinct  0000797838700                                            0000797000000000
Precinct  0000798839530                                            0000798000000000
Precinct  0000799850300                                            0000799000000000
Precinct  0000800850320                                            0000800000000000
Precinct  0000801850330                                            0000801000000000
Precinct  0000802850400                                            0000802000000000
Precinct  0000803850410                                            0000803000000000
Precinct  0000804850500                                            0000804000000000
Precinct  0000805850600                                            0000805000000000
Precinct  0000806850800                                            0000806000000000
Precinct  0000807850810                                            0000807000000000
Precinct  0000808850900                                            0000808000000000
Precinct  0000809851000                                            0000809000000000
Precinct  0000810851200                                            0000810000000000
Precinct  0000811851300                                            0000811000000000
Precinct  0000812851500                                            0000812000000000
Precinct  0000813851510                                            0000813000000000
Precinct  0000814851520                                            0000814000000000
Precinct  0000815851600                                            0000815000000000
Precinct  0000816851700                                            0000816000000000
Precinct  0000817851800                                            0000817000000000
Precinct  0000818852010                                            0000818000000000
Precinct  0000819852100                                            0000819000000000
Precinct  0000820866800                                            0000820000000000
Precinct  00008219205510                                           0000821000000000
Precinct  00008229205550                                           0000822000000000
Precinct  00008239207630                                           0000823000000000
Precinct  00008249207640                                           0000824000000000
Precinct  00008259209910                                           0000825000000000
Precinct  00008269213000                                           0000826000000000
Precinct  00008279215630                                           0000827000000000
Precinct  00008289215810                                           0000828000000000
Precinct  00008299223100                                           0000829000000000
Precinct  00008309223110                                           0000830000000000
Precinct  00008319224300                                           0000831000000000
Precinct  00008329224420                                           0000832000000000
Precinct  00008339224440                                           0000833000000000
Precinct  00008349224810                                           0000834000000000
Precinct  00008359224910                                           0000835000000000
Precinct  00008369225500                                           0000836000000000
Precinct  00008379244910                                           0000837000000000
Precinct  00008389323400                                           0000838000000000
Precinct  00008399325000                                           0000839000000000
Precinct  00008409333300                                           0000840000000000
Precinct  00008419333420                                           0000841000000000
Precinct  00008429333910                                           0000842000000000
Precinct  00008439333920                                           0000843000000000
Precinct  00008449333930                                           0000844000000000
Precinct  00008459334510                                           0000845000000000
Precinct  00008469335110                                           0000846000000000
Precinct  00008479335600                                           0000847000000000
Precinct  00008489335800                                           0000848000000000
Precinct  00008499335910                                           0000849000000000
Precinct  00008509336300                                           0000850000000000
Precinct  00008519336810                                           0000851000000000
Precinct  00008529344020                                           0000852000000000
Precinct  00008539345710                                           0000853000000000
Precinct  00008549347210                                           0000854000000000
Precinct  00008559347220                                           0000855000000000
Precinct  00008569355210                                           0000856000000000
Precinct  00008579355220                                           0000857000000000
Precinct  00008589360900                                           0000858000000000
Precinct  00008599361100                                           0000859000000000
Precinct  00008609361210                                           0000860000000000
Precinct  00008619361400                                           0000861000000000
Precinct  00008629362000                                           0000862000000000
Precinct  00008639364020                                           0000863000000000
Precinct  00008649364030                                           0000864000000000
Precinct  00008659364210                                           0000865000000000
Precinct  00008669364320                                           0000866000000000
Precinct  00008679364330                                           0000867000000000
Precinct  00008689373000                                           0000868000000000
Precinct  00008699373010                                           0000869000000000
Precinct  00008709373020                                           0000870000000000
Precinct  00008719373030                                           0000871000000000
Precinct  00008729394000                                           0000872000000000
Precinct  00008739394100                                           0000873000000000
Precinct  00008749394200                                           0000874000000000
Precinct  00008759416220                                           0000875000000000
Precinct  00008769420010                                           0000876000000000
Precinct  00008779420020                                           0000877000000000
Precinct  00008789420030                                           0000878000000000
Precinct  00008799420040                                           0000879000000000
Precinct  00008809420050                                           0000880000000000
Precinct  00008819420200                                           0000881000000000
Precinct  00008829420210                                           0000882000000000
Precinct  00008839420220                                           0000883000000000
Precinct  00008849420230                                           0000884000000000
Precinct  00008859420240                                           0000885000000000
Precinct  00008869420250                                           0000886000000000
Precinct  00008879420300                                           0000887000000000
Precinct  00008889420310                                           0000888000000000
Precinct  00008899420320                                           0000889000000000
Precinct  00008909420510                                           0000890000000000
Precinct  00008919420610                                           0000891000000000
Precinct  00008929420800                                           0000892000000000
Precinct  00008939422930                                           0000893000000000
Precinct  00008949422940                                           0000894000000000
Precinct  00008959422950                                           0000895000000000
Precinct  00008969423620                                           0000896000000000
Precinct  00008979423700                                           0000897000000000
Precinct  00008989423800                                           0000898000000000
Precinct  00008999423810                                           0000899000000000
Precinct  00009009423820                                           0000900000000000
Precinct  00009019424200                                           0000901000000000
Precinct  00009029430010                                           0000902000000000
Precinct  00009039430020                                           0000903000000000
Precinct  00009049430110                                           0000904000000000
Precinct  00009059430120                                           0000905000000000
Precinct  00009069430130                                           0000906000000000
Precinct  00009079430140                                           0000907000000000
Precinct  00009089430150                                           0000908000000000
Precinct  00009099430160                                           0000909000000000
Precinct  00009109430410                                           0000910000000000
Precinct  00009119430420                                           0000911000000000
Precinct  00009129430500                                           0000912000000000
Precinct  00009139430510                                           0000913000000000
Precinct  00009149430710                                           0000914000000000
Precinct  00009159430720                                           0000915000000000
Precinct  00009169430800                                           0000916000000000
Precinct  00009179430820                                           0000917000000000
Precinct  00009189431110                                           0000918000000000
Precinct  00009199431120                                           0000919000000000
Precinct  00009209431200                                           0000920000000000
Precinct  00009219431210                                           0000921000000000
Precinct  00009229431300                                           0000922000000000
Precinct  00009239431310                                           0000923000000000
Precinct  00009249431400                                           0000924000000000
Precinct  00009259431500                                           0000925000000000
Precinct  00009269431610                                           0000926000000000
Precinct  00009279431620                                           0000927000000000
Precinct  00009289431700                                           0000928000000000
Precinct  00009299431900                                           0000929000000000
Precinct  00009309432910                                           0000930000000000
Precinct  00009319433620                                           0000931000000000
Precinct  00009329433630                                           0000932000000000
Precinct  00009339438120                                           0000933000000000
Precinct  00009349438140                                           0000934000000000
Precinct  00009359438500                                           0000935000000000
Precinct  00009369442610                                           0000936000000000
Precinct  00009379442810                                           0000937000000000
Precinct  00009389442820                                           0000938000000000
Precinct  00009399443110                                           0000939000000000
Precinct  00009409443600                                           0000940000000000
Precinct  00009419443700                                           0000941000000000
Precinct  00009429443710                                           0000942000000000
Precinct  00009439443720                                           0000943000000000
Precinct  00009449443800                                           0000944000000000
Precinct  00009459447010                                           0000945000000000
Precinct  00009469447020                                           0000946000000000
Precinct  00009479447040                                           0000947000000000
Precinct  00009489447100                                           0000948000000000
Precinct  00009499447110                                           0000949000000000
Precinct  00009509447120                                           0000950000000000
Precinct  00009519447210                                           0000951000000000
Precinct  00009529447300                                           0000952000000000
Precinct  00009539447510                                           0000953000000000
Precinct  00009549447700                                           0000954000000000
Precinct  00009559447710                                           0000955000000000
Precinct  00009569447720                                           0000956000000000
Precinct  00009579450920                                           0000957000000000
Precinct  00009589450930                                           0000958000000000
Precinct  00009599451500                                           0000959000000000
Precinct  00009609452000                                           0000960000000000
Precinct  00009619454220                                           0000961000000000
Precinct  00009629454230                                           0000962000000000
Precinct  00009639454600                                           0000963000000000
Precinct  00009649454700                                           0000964000000000
Precinct  00009659455010                                           0000965000000000
Precinct  00009669455200                                           0000966000000000
Precinct  00009679455410                                           0000967000000000
Precinct  00009689456610                                           0000968000000000
Precinct  00009699464000                                           0000969000000000
Precinct  00009709464010                                           0000970000000000
Precinct  00009719464020                                           0000971000000000
Precinct  00009729464030                                           0000972000000000
Precinct  00009739464100                                           0000973000000000
Precinct  00009749464200                                           0000974000000000
Precinct  00009759464300                                           0000975000000000
Precinct  00009769464310                                           0000976000000000
Precinct  00009779464320                                           0000977000000000
Precinct  00009789464350                                           0000978000000000
Precinct  00009799464360                                           0000979000000000
Precinct  00009809464500                                           0000980000000000
Precinct  00009819464510                                           0000981000000000
Precinct  00009829464520                                           0000982000000000
Precinct  00009839464600                                           0000983000000000
Precinct  00009849464670                                           0000984000000000
Precinct  00009859464700                                           0000985000000000
Precinct  00009869464710                                           0000986000000000
Precinct  00009879464720                                           0000987000000000
Precinct  00009889470100                                           0000988000000000
Precinct  00009899470310                                           0000989000000000
Precinct  00009909470700                                           0000990000000000
Precinct  00009919472920                                           0000991000000000
Precinct  00009929475010                                           0000992000000000
Precinct  00009939475210                                           0000993000000000
Precinct  00009949475600                                           0000994000000000
Precinct  00009959475620                                           0000995000000000
Precinct  00009969475630                                           0000996000000000
Precinct  00009979475640                                           0000997000000000
Precinct  00009989476120                                           0000998000000000
Precinct  00009999480010                                           0000999000000000
Precinct  00010009481110                                           0001000000000000
Precinct  00010019481310                                           0001001000000000
Precinct  00010029481430                                           0001002000000000
Precinct  00010039481520                                           0001003000000000
Precinct  00010049481530                                           0001004000000000
Precinct  00010059481540                                           0001005000000000
Precinct  00010069481550                                           0001006000000000
Precinct  00010079481810                                           0001007000000000
Precinct  00010089481900                                           0001008000000000
Precinct  00010099481930                                           0001009000000000
Precinct  00010109481940                                           0001010000000000
Precinct  00010119481950                                           0001011000000000
Precinct  00010129481960                                           0001012000000000
Precinct  00010139481970                                           0001013000000000
Precinct  00010149482000                                           0001014000000000
Precinct  00010159482020                                           0001015000000000
Precinct  00010169482040                                           0001016000000000
Precinct  00010179482050                                           0001017000000000
Precinct  00010189484000                                           0001018000000000
Precinct  00010199490040                                           0001019000000000
Precinct  00010209490100                                           0001020000000000
Precinct  00010219490130                                           0001021000000000
Precinct  00010229490200                                           0001022000000000
Precinct  00010239490300                                           0001023000000000
Precinct  00010249491010                                           0001024000000000
Precinct  00010259491020                                           0001025000000000
Precinct  00010269491410                                           0001026000000000
Precinct  00010279491600                                           0001027000000000
Precinct  00010289491630                                           0001028000000000
Precinct  00010299491650                                           0001029000000000
Precinct  00010309492000                                           0001030000000000
Precinct  00010319492040                                           0001031000000000
Precinct  00010329492110                                           0001032000000000
Precinct  00010339492200                                           0001033000000000
Precinct  00010349498100                                           0001034000000000
Precinct  00010359498200                                           0001035000000000
Precinct  00010369498220                                           0001036000000000
Precinct  00010379498300                                           0001037000000000
Precinct  00010389498310                                           0001038000000000
Precinct  00010399498320                                           0001039000000000
Precinct  00010409498340                                           0001040000000000
Precinct  00010419498360                                           0001041000000000
Precinct  00010429499000                                           0001042000000000
Precinct  00010439499010                                           0001043000000000
Precinct  00010449500220                                           0001044000000000
Precinct  00010459500510                                           0001045000000000
Precinct  00010469501710                                           0001046000000000
Precinct  00010479502910                                           0001047000000000
Precinct  00010489510100                                           0001048000000000
Precinct  00010499510110                                           0001049000000000
Precinct  00010509510120                                           0001050000000000
Precinct  00010519510140                                           0001051000000000
Precinct  00010529510150                                           0001052000000000
Precinct  00010539510300                                           0001053000000000
Precinct  00010549510320                                           0001054000000000
Precinct  00010559510410                                           0001055000000000
Precinct  00010569510500                                           0001056000000000
Precinct  00010579510610                                           0001057000000000
Precinct  00010589510700                                           0001058000000000
Precinct  00010599510720                                           0001059000000000
Precinct  00010609510730                                           0001060000000000
Precinct  00010619510800                                           0001061000000000
Precinct  00010629510810                                           0001062000000000
Precinct  00010639510840                                           0001063000000000
Precinct  00010649510890                                           0001064000000000
Precinct  00010659510910                                           0001065000000000
Precinct  00010669510920                                           0001066000000000
Precinct  00010679510950                                           0001067000000000
Precinct  00010689510960                                           0001068000000000
Precinct  00010699510970                                           0001069000000000
Precinct  00010709510980                                           0001070000000000
Precinct  00010719510990                                           0001071000000000
Precinct  00010729511000                                           0001072000000000
Precinct  00010739520250                                           0001073000000000
Precinct  00010749520730                                           0001074000000000
Precinct  00010759520900                                           0001075000000000
Precinct  00010769522160                                           0001076000000000
Precinct  00010779530200                                           0001077000000000
Precinct  00010789532000                                           0001078000000000
Precinct  00010799532100                                           0001079000000000
Precinct  00010809532200                                           0001080000000000
Precinct  00010819532400                                           0001081000000000
Precinct  00010829535000                                           0001082000000000
Precinct  00010839535020                                           0001083000000000
Precinct  00010849535030                                           0001084000000000
Precinct  00010859535040                                           0001085000000000
Precinct  00010869535050                                           0001086000000000
Precinct  00010879535060                                           0001087000000000
Precinct  00010889535070                                           0001088000000000
Precinct  00010899535090                                           0001089000000000
Precinct  00010909535200                                           0001090000000000
Precinct  00010919535300                                           0001091000000000
Precinct  00010929535400                                           0001092000000000
Precinct  00010939535500                                           0001093000000000
Precinct  00010949535600                                           0001094000000000
Precinct  00010959535700                                           0001095000000000
Precinct  00010969810900                                           0001096000000000
Precinct  00010979815110                                           0001097000000000
Precinct  00010989815120                                           0001098000000000
Precinct  00010999815150                                           0001099000000000
Precinct  00011009819020                                           0001100000000000
Precinct  00011019819100                                           0001101000000000
Precinct  00011029819110                                           0001102000000000
Precinct  00011039820000                                           0001103000000000
Precinct  00011049821010                                           0001104000000000
Precinct  00011059821020                                           0001105000000000
Precinct  00011069821310                                           0001106000000000
Precinct  00011079821720                                           0001107000000000
Precinct  00011089823030                                           0001108000000000
Precinct  00011099823040                                           0001109000000000
Precinct  00011109831220                                           0001110000000000
Precinct  00011119834020                                           0001111000000000
Precinct  00011129834030                                           0001112000000000
Precinct  00011139834410                                           0001113000000000
Precinct  00011149835700                                           0001114000000000
Precinct  00011159837020                                           0001115000000000
Precinct  00011169837030                                           0001116000000000
Precinct  00011179837410                                           0001117000000000
Precinct  00011189839000                                           0001118000000000
Precinct  00011199839030                                           0001119000000000
Precinct  00011209839060                                           0001120000000000
Precinct  00011219839120                                           0001121000000000
Precinct  00011229839200                                           0001122000000000
Precinct  00011239839210                                           0001123000000000
Precinct  00011249839220                                           0001124000000000
Precinct  00011259839230                                           0001125000000000
Precinct  00011269839240                                           0001126000000000
Precinct  00011279839300                                           0001127000000000
Precinct  00011289839310                                           0001128000000000
Precinct  00011299839330                                           0001129000000000
Precinct  00011309839350                                           0001130000000000
Precinct  00011319839360                                           0001131000000000
Precinct  00011329839380                                           0001132000000000
Precinct  00011339839400                                           0001133000000000
Precinct  00011349839500                                           0001134000000000
Precinct  00011359839520                                           0001135000000000
Precinct  00011369866900                                           0001136000000000
Precinct  00011379866910                                           0001137000000000
Precinct  00011389866920                                           0001138000000000
Precinct  00011399866930                                           0001139000000000
Precinct  00011409867100                                           0001140000000000
Precinct  00011419867110                                           0001141000000000
Precinct  00011429867200                                           0001142000000000
Precinct  00011439867320                                           0001143000000000
Precinct  00011449867330                                           0001144000000000
Precinct  00011459867400                                           0001145000000000
Precinct  00011469867410                                           0001146000000000
Precinct  00011479870000                                           0001147000000000
Precinct  00011489870010                                           0001148000000000
Precinct  00011499870100                                           0001149000000000
Precinct  00011509870110                                           0001150000000000
Precinct  00011519870120                                           0001151000000000
Precinct  00011529870150                                           0001152000000000
Precinct  00011539880200                                           0001153000000000
Precinct  00011549880220                                           0001154000000000
Precinct  00011559880400                                           0001155000000000
Precinct  00011569880500                                           0001156000000000
Tally Type0000001Election Day - Insight                            0000001000000000
Tally Type0000002Election Day - 400C                               0000002000000000
Tally Type0000003Vote by Mail - 400C                               0000003000000000
Tally Type0000004Provisional - 400C                                0000004000000000
Tally Type0000005Election Day - Edge                               0000005000000000
Tally Type0000006MVBM - 400C                                       0000006000000000
Tally Type0000007Election Day - External                           0000007000000000
