Candidate 0000407ALEJANDRO SOTO-VIGIL                              0000001000007900
Candidate 0000408LINDA MAIO                                        0000002000007900
Candidate 0000409MERRILIE MITCHELL                                 0000003000007900
Candidate 0000113Write-In                                          0000004000007910
Contest   0000079Member, City Council, Dist. 1 - Berkeley (RCV)    0000079000000000
Precinct  0000001200100                                            0000001000000000
Precinct  0000002200200                                            0000002000000000
Precinct  0000003200300                                            0000003000000000
Precinct  0000004200600                                            0000004000000000
Precinct  0000005200700                                            0000005000000000
Precinct  0000006200800                                            0000006000000000
Precinct  0000007201000                                            0000007000000000
Precinct  0000008201100                                            0000008000000000
Precinct  0000009201300                                            0000009000000000
Precinct  0000010201400                                            0000010000000000
Precinct  0000011201410                                            0000011000000000
Precinct  0000012201500                                            0000012000000000
Precinct  0000013201700                                            0000013000000000
Precinct  0000014201710                                            0000014000000000
Precinct  0000015201800                                            0000015000000000
Precinct  0000016201900                                            0000016000000000
Precinct  0000017202110                                            0000017000000000
Precinct  0000018202310                                            0000018000000000
Precinct  0000019202500                                            0000019000000000
Precinct  0000020202520                                            0000020000000000
Precinct  0000021202540                                            0000021000000000
Precinct  0000022202600                                            0000022000000000
Precinct  0000023202620                                            0000023000000000
Precinct  0000024202710                                            0000024000000000
Precinct  0000025202900                                            0000025000000000
Precinct  0000026203100                                            0000026000000000
Precinct  0000027203200                                            0000027000000000
Precinct  0000028203300                                            0000028000000000
Precinct  0000029203400                                            0000029000000000
Precinct  0000030203500                                            0000030000000000
Precinct  0000031203800                                            0000031000000000
Precinct  0000032204100                                            0000032000000000
Precinct  0000033204210                                            0000033000000000
Precinct  0000034204220                                            0000034000000000
Precinct  0000035204230                                            0000035000000000
Precinct  0000036204240                                            0000036000000000
Precinct  0000037204300                                            0000037000000000
Precinct  0000038204310                                            0000038000000000
Precinct  0000039204510                                            0000039000000000
Precinct  0000040204600                                            0000040000000000
Precinct  0000041204900                                            0000041000000000
Precinct  0000042204910                                            0000042000000000
Precinct  0000043205000                                            0000043000000000
Precinct  0000044205100                                            0000044000000000
Precinct  0000045205200                                            0000045000000000
Precinct  0000046205500                                            0000046000000000
Precinct  0000047205600                                            0000047000000000
Precinct  0000048205700                                            0000048000000000
Precinct  0000049205800                                            0000049000000000
Precinct  0000050205900                                            0000050000000000
Precinct  0000051206000                                            0000051000000000
Precinct  0000052206100                                            0000052000000000
Precinct  0000053206200                                            0000053000000000
Precinct  0000054206300                                            0000054000000000
Precinct  0000055206400                                            0000055000000000
Precinct  0000056206600                                            0000056000000000
Precinct  0000057207000                                            0000057000000000
Precinct  0000058207010                                            0000058000000000
Precinct  0000059207200                                            0000059000000000
Precinct  0000060207300                                            0000060000000000
Precinct  0000061207500                                            0000061000000000
Precinct  0000062207600                                            0000062000000000
Precinct  0000063207700                                            0000063000000000
Precinct  0000064208000                                            0000064000000000
Precinct  0000065208010                                            0000065000000000
Precinct  0000066208100                                            0000066000000000
Precinct  0000067208110                                            0000067000000000
Precinct  0000068208200                                            0000068000000000
Precinct  0000069208210                                            0000069000000000
Precinct  0000070208300                                            0000070000000000
Precinct  0000071208310                                            0000071000000000
Precinct  0000072208400                                            0000072000000000
Precinct  0000073208500                                            0000073000000000
Precinct  0000074208510                                            0000074000000000
Precinct  0000075208600                                            0000075000000000
Precinct  0000076208610                                            0000076000000000
Precinct  0000077208650                                            0000077000000000
Precinct  0000078208700                                            0000078000000000
Precinct  0000079208800                                            0000079000000000
Precinct  0000080208810                                            0000080000000000
Precinct  0000081208900                                            0000081000000000
Precinct  0000082208910                                            0000082000000000
Precinct  0000083208920                                            0000083000000000
Precinct  0000084209000                                            0000084000000000
Precinct  0000085209010                                            0000085000000000
Precinct  0000086209100                                            0000086000000000
Precinct  0000087209110                                            0000087000000000
Precinct  0000088209200                                            0000088000000000
Precinct  0000089209300                                            0000089000000000
Precinct  0000090209310                                            0000090000000000
Precinct  0000091209400                                            0000091000000000
Precinct  0000092209410                                            0000092000000000
Precinct  0000093209510                                            0000093000000000
Precinct  0000094209600                                            0000094000000000
Precinct  0000095209610                                            0000095000000000
Precinct  0000096209700                                            0000096000000000
Precinct  0000097209710                                            0000097000000000
Precinct  0000098209800                                            0000098000000000
Precinct  0000099209900                                            0000099000000000
Precinct  0000100213100                                            0000100000000000
Precinct  0000101213300                                            0000101000000000
Precinct  0000102213400                                            0000102000000000
Precinct  0000103213500                                            0000103000000000
Precinct  0000104213600                                            0000104000000000
Precinct  0000105213700                                            0000105000000000
Precinct  0000106213800                                            0000106000000000
Precinct  0000107213900                                            0000107000000000
Precinct  0000108214100                                            0000108000000000
Precinct  0000109214200                                            0000109000000000
Precinct  0000110214300                                            0000110000000000
Precinct  0000111214400                                            0000111000000000
Precinct  0000112214500                                            0000112000000000
Precinct  0000113214600                                            0000113000000000
Precinct  0000114214800                                            0000114000000000
Precinct  0000115215100                                            0000115000000000
Precinct  0000116215120                                            0000116000000000
Precinct  0000117215200                                            0000117000000000
Precinct  0000118215300                                            0000118000000000
Precinct  0000119215500                                            0000119000000000
Precinct  0000120215610                                            0000120000000000
Precinct  0000121215700                                            0000121000000000
Precinct  0000122215800                                            0000122000000000
Precinct  0000123215900                                            0000123000000000
Precinct  0000124223000                                            0000124000000000
Precinct  0000125223010                                            0000125000000000
Precinct  0000126223200                                            0000126000000000
Precinct  0000127223300                                            0000127000000000
Precinct  0000128223400                                            0000128000000000
Precinct  0000129224000                                            0000129000000000
Precinct  0000130224200                                            0000130000000000
Precinct  0000131224400                                            0000131000000000
Precinct  0000132224500                                            0000132000000000
Precinct  0000133224600                                            0000133000000000
Precinct  0000134224700                                            0000134000000000
Precinct  0000135224800                                            0000135000000000
Precinct  0000136225000                                            0000136000000000
Precinct  0000137225100                                            0000137000000000
Precinct  0000138225200                                            0000138000000000
Precinct  0000139225400                                            0000139000000000
Precinct  0000140225600                                            0000140000000000
Precinct  0000141225700                                            0000141000000000
Precinct  0000142225710                                            0000142000000000
Precinct  0000143225810                                            0000143000000000
Precinct  0000144225900                                            0000144000000000
Precinct  0000145225910                                            0000145000000000
Precinct  0000146226100                                            0000146000000000
Precinct  0000147226200                                            0000147000000000
Precinct  0000148226300                                            0000148000000000
Precinct  0000149226400                                            0000149000000000
Precinct  0000150244000                                            0000150000000000
Precinct  0000151244100                                            0000151000000000
Precinct  0000152244200                                            0000152000000000
Precinct  0000153244300                                            0000153000000000
Precinct  0000154244400                                            0000154000000000
Precinct  0000155244500                                            0000155000000000
Precinct  0000156244600                                            0000156000000000
Precinct  0000157244700                                            0000157000000000
Precinct  0000158244800                                            0000158000000000
Precinct  0000159244900                                            0000159000000000
Precinct  0000160245000                                            0000160000000000
Precinct  0000161245100                                            0000161000000000
Precinct  0000162245200                                            0000162000000000
Precinct  0000163260100                                            0000163000000000
Precinct  0000164260300                                            0000164000000000
Precinct  0000165260400                                            0000165000000000
Precinct  0000166260610                                            0000166000000000
Precinct  0000167260800                                            0000167000000000
Precinct  0000168260900                                            0000168000000000
Precinct  0000169261000                                            0000169000000000
Precinct  0000170261300                                            0000170000000000
Precinct  0000171261400                                            0000171000000000
Precinct  0000172261600                                            0000172000000000
Precinct  0000173261700                                            0000173000000000
Precinct  0000174262000                                            0000174000000000
Precinct  0000175262100                                            0000175000000000
Precinct  0000176280100                                            0000176000000000
Precinct  0000177280500                                            0000177000000000
Precinct  0000178280700                                            0000178000000000
Precinct  0000179281000                                            0000179000000000
Precinct  0000180281300                                            0000180000000000
Precinct  0000181281600                                            0000181000000000
Precinct  0000182300000                                            0000182000000000
Precinct  0000183300100                                            0000183000000000
Precinct  0000184300110                                            0000184000000000
Precinct  0000185300120                                            0000185000000000
Precinct  0000186300140                                            0000186000000000
Precinct  0000187300150                                            0000187000000000
Precinct  0000188300170                                            0000188000000000
Precinct  0000189300180                                            0000189000000000
Precinct  0000190300210                                            0000190000000000
Precinct  0000191300300                                            0000191000000000
Precinct  0000192300400                                            0000192000000000
Precinct  0000193301100                                            0000193000000000
Precinct  0000194301200                                            0000194000000000
Precinct  0000195301400                                            0000195000000000
Precinct  0000196301520                                            0000196000000000
Precinct  0000197301800                                            0000197000000000
Precinct  0000198301900                                            0000198000000000
Precinct  0000199302000                                            0000199000000000
Precinct  0000200302100                                            0000200000000000
Precinct  0000201302200                                            0000201000000000
Precinct  0000202302400                                            0000202000000000
Precinct  0000203302500                                            0000203000000000
Precinct  0000204302510                                            0000204000000000
Precinct  0000205302700                                            0000205000000000
Precinct  0000206303000                                            0000206000000000
Precinct  0000207303300                                            0000207000000000
Precinct  0000208303400                                            0000208000000000
Precinct  0000209303500                                            0000209000000000
Precinct  0000210303600                                            0000210000000000
Precinct  0000211303800                                            0000211000000000
Precinct  0000212304000                                            0000212000000000
Precinct  0000213304120                                            0000213000000000
Precinct  0000214304200                                            0000214000000000
Precinct  0000215304500                                            0000215000000000
Precinct  0000216304600                                            0000216000000000
Precinct  0000217304700                                            0000217000000000
Precinct  0000218304800                                            0000218000000000
Precinct  0000219304900                                            0000219000000000
Precinct  0000220305000                                            0000220000000000
Precinct  0000221305010                                            0000221000000000
Precinct  0000222305100                                            0000222000000000
Precinct  0000223305400                                            0000223000000000
Precinct  0000224305410                                            0000224000000000
Precinct  0000225305600                                            0000225000000000
Precinct  0000226305700                                            0000226000000000
Precinct  0000227310000                                            0000227000000000
Precinct  0000228310100                                            0000228000000000
Precinct  0000229310200                                            0000229000000000
Precinct  0000230310300                                            0000230000000000
Precinct  0000231310400                                            0000231000000000
Precinct  0000232310500                                            0000232000000000
Precinct  0000233310600                                            0000233000000000
Precinct  0000234310700                                            0000234000000000
Precinct  0000235310900                                            0000235000000000
Precinct  0000236311100                                            0000236000000000
Precinct  0000237311200                                            0000237000000000
Precinct  0000238311400                                            0000238000000000
Precinct  0000239311500                                            0000239000000000
Precinct  0000240311700                                            0000240000000000
Precinct  0000241323000                                            0000241000000000
Precinct  0000242323200                                            0000242000000000
Precinct  0000243325100                                            0000243000000000
Precinct  0000244325200                                            0000244000000000
Precinct  0000245325300                                            0000245000000000
Precinct  0000246325400                                            0000246000000000
Precinct  0000247325500                                            0000247000000000
Precinct  0000248325510                                            0000248000000000
Precinct  0000249325600                                            0000249000000000
Precinct  0000250325700                                            0000250000000000
Precinct  0000251325800                                            0000251000000000
Precinct  0000252333100                                            0000252000000000
Precinct  0000253333200                                            0000253000000000
Precinct  0000254333210                                            0000254000000000
Precinct  0000255333400                                            0000255000000000
Precinct  0000256333410                                            0000256000000000
Precinct  0000257333500                                            0000257000000000
Precinct  0000258333510                                            0000258000000000
Precinct  0000259333600                                            0000259000000000
Precinct  0000260333800                                            0000260000000000
Precinct  0000261333900                                            0000261000000000
Precinct  0000262334000                                            0000262000000000
Precinct  0000263334100                                            0000263000000000
Precinct  0000264334600                                            0000264000000000
Precinct  0000265334700                                            0000265000000000
Precinct  0000266335000                                            0000266000000000
Precinct  0000267335100                                            0000267000000000
Precinct  0000268335200                                            0000268000000000
Precinct  0000269335300                                            0000269000000000
Precinct  0000270335400                                            0000270000000000
Precinct  0000271335500                                            0000271000000000
Precinct  0000272335700                                            0000272000000000
Precinct  0000273335710                                            0000273000000000
Precinct  0000274335810                                            0000274000000000
Precinct  0000275335900                                            0000275000000000
Precinct  0000276336100                                            0000276000000000
Precinct  0000277336200                                            0000277000000000
Precinct  0000278336400                                            0000278000000000
Precinct  0000279336500                                            0000279000000000
Precinct  0000280336600                                            0000280000000000
Precinct  0000281336710                                            0000281000000000
Precinct  0000282336900                                            0000282000000000
Precinct  0000283336910                                            0000283000000000
Precinct  0000284337000                                            0000284000000000
Precinct  0000285337100                                            0000285000000000
Precinct  0000286337110                                            0000286000000000
Precinct  0000287337200                                            0000287000000000
Precinct  0000288344000                                            0000288000000000
Precinct  0000289344010                                            0000289000000000
Precinct  0000290344100                                            0000290000000000
Precinct  0000291344200                                            0000291000000000
Precinct  0000292344400                                            0000292000000000
Precinct  0000293344500                                            0000293000000000
Precinct  0000294344600                                            0000294000000000
Precinct  0000295344700                                            0000295000000000
Precinct  0000296344800                                            0000296000000000
Precinct  0000297344900                                            0000297000000000
Precinct  0000298345000                                            0000298000000000
Precinct  0000299345100                                            0000299000000000
Precinct  0000300345200                                            0000300000000000
Precinct  0000301345310                                            0000301000000000
Precinct  0000302345400                                            0000302000000000
Precinct  0000303345500                                            0000303000000000
Precinct  0000304345600                                            0000304000000000
Precinct  0000305345700                                            0000305000000000
Precinct  0000306345800                                            0000306000000000
Precinct  0000307345900                                            0000307000000000
Precinct  0000308346000                                            0000308000000000
Precinct  0000309346100                                            0000309000000000
Precinct  0000310346200                                            0000310000000000
Precinct  0000311347110                                            0000311000000000
Precinct  0000312347200                                            0000312000000000
Precinct  0000313347300                                            0000313000000000
Precinct  0000314353300                                            0000314000000000
Precinct  0000315353310                                            0000315000000000
Precinct  0000316353400                                            0000316000000000
Precinct  0000317353500                                            0000317000000000
Precinct  0000318353600                                            0000318000000000
Precinct  0000319353800                                            0000319000000000
Precinct  0000320353900                                            0000320000000000
Precinct  0000321354000                                            0000321000000000
Precinct  0000322354100                                            0000322000000000
Precinct  0000323354110                                            0000323000000000
Precinct  0000324354300                                            0000324000000000
Precinct  0000325354400                                            0000325000000000
Precinct  0000326354500                                            0000326000000000
Precinct  0000327354700                                            0000327000000000
Precinct  0000328354900                                            0000328000000000
Precinct  0000329354910                                            0000329000000000
Precinct  0000330355000                                            0000330000000000
Precinct  0000331355100                                            0000331000000000
Precinct  0000332356000                                            0000332000000000
Precinct  0000333356200                                            0000333000000000
Precinct  0000334356210                                            0000334000000000
Precinct  0000335356500                                            0000335000000000
Precinct  0000336361000                                            0000336000000000
Precinct  0000337361130                                            0000337000000000
Precinct  0000338361200                                            0000338000000000
Precinct  0000339361300                                            0000339000000000
Precinct  0000340361500                                            0000340000000000
Precinct  0000341362100                                            0000341000000000
Precinct  0000342362110                                            0000342000000000
Precinct  0000343362300                                            0000343000000000
Precinct  0000344362500                                            0000344000000000
Precinct  0000345362510                                            0000345000000000
Precinct  0000346362600                                            0000346000000000
Precinct  0000347362700                                            0000347000000000
Precinct  0000348362800                                            0000348000000000
Precinct  0000349362900                                            0000349000000000
Precinct  0000350363000                                            0000350000000000
Precinct  0000351363100                                            0000351000000000
Precinct  0000352363200                                            0000352000000000
Precinct  0000353363310                                            0000353000000000
Precinct  0000354363600                                            0000354000000000
Precinct  0000355364200                                            0000355000000000
Precinct  0000356364300                                            0000356000000000
Precinct  0000357364310                                            0000357000000000
Precinct  0000358364400                                            0000358000000000
Precinct  0000359364510                                            0000359000000000
Precinct  0000360364600                                            0000360000000000
Precinct  0000361364700                                            0000361000000000
Precinct  0000362364800                                            0000362000000000
Precinct  0000363364900                                            0000363000000000
Precinct  0000364365000                                            0000364000000000
Precinct  0000365365200                                            0000365000000000
Precinct  0000366373100                                            0000366000000000
Precinct  0000367373400                                            0000367000000000
Precinct  0000368373500                                            0000368000000000
Precinct  0000369373900                                            0000369000000000
Precinct  0000370380200                                            0000370000000000
Precinct  0000371380300                                            0000371000000000
Precinct  0000372380400                                            0000372000000000
Precinct  0000373380600                                            0000373000000000
Precinct  0000374380700                                            0000374000000000
Precinct  0000375400100                                            0000375000000000
Precinct  0000376400200                                            0000376000000000
Precinct  0000377400300                                            0000377000000000
Precinct  0000378400400                                            0000378000000000
Precinct  0000379400500                                            0000379000000000
Precinct  0000380400600                                            0000380000000000
Precinct  0000381400700                                            0000381000000000
Precinct  0000382400800                                            0000382000000000
Precinct  0000383400900                                            0000383000000000
Precinct  0000384401100                                            0000384000000000
Precinct  0000385410100                                            0000385000000000
Precinct  0000386410300                                            0000386000000000
Precinct  0000387410400                                            0000387000000000
Precinct  0000388410500                                            0000388000000000
Precinct  0000389410600                                            0000389000000000
Precinct  0000390415000                                            0000390000000000
Precinct  0000391415200                                            0000391000000000
Precinct  0000392415300                                            0000392000000000
Precinct  0000393415500                                            0000393000000000
Precinct  0000394415600                                            0000394000000000
Precinct  0000395415800                                            0000395000000000
Precinct  0000396415900                                            0000396000000000
Precinct  0000397420500                                            0000397000000000
Precinct  0000398420600                                            0000398000000000
Precinct  0000399420700                                            0000399000000000
Precinct  0000400420900                                            0000400000000000
Precinct  0000401421000                                            0000401000000000
Precinct  0000402421100                                            0000402000000000
Precinct  0000403421400                                            0000403000000000
Precinct  0000404421510                                            0000404000000000
Precinct  0000405421700                                            0000405000000000
Precinct  0000406421900                                            0000406000000000
Precinct  0000407422000                                            0000407000000000
Precinct  0000408422100                                            0000408000000000
Precinct  0000409422300                                            0000409000000000
Precinct  0000410422600                                            0000410000000000
Precinct  0000411422700                                            0000411000000000
Precinct  0000412422810                                            0000412000000000
Precinct  0000413422900                                            0000413000000000
Precinct  0000414422910                                            0000414000000000
Precinct  0000415422920                                            0000415000000000
Precinct  0000416423000                                            0000416000000000
Precinct  0000417423400                                            0000417000000000
Precinct  0000418423500                                            0000418000000000
Precinct  0000419423600                                            0000419000000000
Precinct  0000420423610                                            0000420000000000
Precinct  0000421424000                                            0000421000000000
Precinct  0000422424100                                            0000422000000000
Precinct  0000423424300                                            0000423000000000
Precinct  0000424424400                                            0000424000000000
Precinct  0000425430100                                            0000425000000000
Precinct  0000426430400                                            0000426000000000
Precinct  0000427430600                                            0000427000000000
Precinct  0000428430700                                            0000428000000000
Precinct  0000429430900                                            0000429000000000
Precinct  0000430431100                                            0000430000000000
Precinct  0000431431800                                            0000431000000000
Precinct  0000432432000                                            0000432000000000
Precinct  0000433432110                                            0000433000000000
Precinct  0000434432200                                            0000434000000000
Precinct  0000435432300                                            0000435000000000
Precinct  0000436432400                                            0000436000000000
Precinct  0000437432600                                            0000437000000000
Precinct  0000438432700                                            0000438000000000
Precinct  0000439432810                                            0000439000000000
Precinct  0000440432900                                            0000440000000000
Precinct  0000441433100                                            0000441000000000
Precinct  0000442433200                                            0000442000000000
Precinct  0000443433400                                            0000443000000000
Precinct  0000444433500                                            0000444000000000
Precinct  0000445433610                                            0000445000000000
Precinct  0000446433700                                            0000446000000000
Precinct  0000447433900                                            0000447000000000
Precinct  0000448440100                                            0000448000000000
Precinct  0000449440300                                            0000449000000000
Precinct  0000450440400                                            0000450000000000
Precinct  0000451440610                                            0000451000000000
Precinct  0000452440800                                            0000452000000000
Precinct  0000453441100                                            0000453000000000
Precinct  0000454441300                                            0000454000000000
Precinct  0000455442100                                            0000455000000000
Precinct  0000456442600                                            0000456000000000
Precinct  0000457442700                                            0000457000000000
Precinct  0000458443000                                            0000458000000000
Precinct  0000459443100                                            0000459000000000
Precinct  0000460443300                                            0000460000000000
Precinct  0000461443400                                            0000461000000000
Precinct  0000462443500                                            0000462000000000
Precinct  0000463447200                                            0000463000000000
Precinct  0000464447600                                            0000464000000000
Precinct  0000465450300                                            0000465000000000
Precinct  0000466450400                                            0000466000000000
Precinct  0000467450610                                            0000467000000000
Precinct  0000468450800                                            0000468000000000
Precinct  0000469451000                                            0000469000000000
Precinct  0000470451510                                            0000470000000000
Precinct  0000471451600                                            0000471000000000
Precinct  0000472451700                                            0000472000000000
Precinct  0000473452100                                            0000473000000000
Precinct  0000474452200                                            0000474000000000
Precinct  0000475452400                                            0000475000000000
Precinct  0000476452500                                            0000476000000000
Precinct  0000477453100                                            0000477000000000
Precinct  0000478453300                                            0000478000000000
Precinct  0000479453400                                            0000479000000000
Precinct  0000480453500                                            0000480000000000
Precinct  0000481453900                                            0000481000000000
Precinct  0000482453920                                            0000482000000000
Precinct  0000483454100                                            0000483000000000
Precinct  0000484454500                                            0000484000000000
Precinct  0000485455000                                            0000485000000000
Precinct  0000486455100                                            0000486000000000
Precinct  0000487455300                                            0000487000000000
Precinct  0000488455400                                            0000488000000000
Precinct  0000489455500                                            0000489000000000
Precinct  0000490455700                                            0000490000000000
Precinct  0000491455900                                            0000491000000000
Precinct  0000492456200                                            0000492000000000
Precinct  0000493456500                                            0000493000000000
Precinct  0000494456600                                            0000494000000000
Precinct  0000495456900                                            0000495000000000
Precinct  0000496457100                                            0000496000000000
Precinct  0000497457300                                            0000497000000000
Precinct  0000498457400                                            0000498000000000
Precinct  0000499457500                                            0000499000000000
Precinct  0000500457700                                            0000500000000000
Precinct  0000501457900                                            0000501000000000
Precinct  0000502458200                                            0000502000000000
Precinct  0000503458300                                            0000503000000000
Precinct  0000504458500                                            0000504000000000
Precinct  0000505458800                                            0000505000000000
Precinct  0000506458900                                            0000506000000000
Precinct  0000507470400                                            0000507000000000
Precinct  0000508470600                                            0000508000000000
Precinct  0000509470900                                            0000509000000000
Precinct  0000510471800                                            0000510000000000
Precinct  0000511471900                                            0000511000000000
Precinct  0000512472000                                            0000512000000000
Precinct  0000513472200                                            0000513000000000
Precinct  0000514472300                                            0000514000000000
Precinct  0000515472400                                            0000515000000000
Precinct  0000516472500                                            0000516000000000
Precinct  0000517473300                                            0000517000000000
Precinct  0000518473400                                            0000518000000000
Precinct  0000519473500                                            0000519000000000
Precinct  0000520473600                                            0000520000000000
Precinct  0000521473800                                            0000521000000000
Precinct  0000522473900                                            0000522000000000
Precinct  0000523474010                                            0000523000000000
Precinct  0000524474020                                            0000524000000000
Precinct  0000525474300                                            0000525000000000
Precinct  0000526474500                                            0000526000000000
Precinct  0000527474600                                            0000527000000000
Precinct  0000528474700                                            0000528000000000
Precinct  0000529474900                                            0000529000000000
Precinct  0000530475000                                            0000530000000000
Precinct  0000531475100                                            0000531000000000
Precinct  0000532475200                                            0000532000000000
Precinct  0000533475500                                            0000533000000000
Precinct  0000534475520                                            0000534000000000
Precinct  0000535475540                                            0000535000000000
Precinct  0000536476100                                            0000536000000000
Precinct  0000537476110                                            0000537000000000
Precinct  0000538481200                                            0000538000000000
Precinct  0000539481410                                            0000539000000000
Precinct  0000540481500                                            0000540000000000
Precinct  0000541481800                                            0000541000000000
Precinct  0000542483000                                            0000542000000000
Precinct  0000543491000                                            0000543000000000
Precinct  0000544491100                                            0000544000000000
Precinct  0000545491200                                            0000545000000000
Precinct  0000546491300                                            0000546000000000
Precinct  0000547491500                                            0000547000000000
Precinct  0000548500100                                            0000548000000000
Precinct  0000549500110                                            0000549000000000
Precinct  0000550500120                                            0000550000000000
Precinct  0000551500130                                            0000551000000000
Precinct  0000552500140                                            0000552000000000
Precinct  0000553500200                                            0000553000000000
Precinct  0000554500210                                            0000554000000000
Precinct  0000555500230                                            0000555000000000
Precinct  0000556500300                                            0000556000000000
Precinct  0000557500310                                            0000557000000000
Precinct  0000558500320                                            0000558000000000
Precinct  0000559500340                                            0000559000000000
Precinct  0000560500400                                            0000560000000000
Precinct  0000561500410                                            0000561000000000
Precinct  0000562500500                                            0000562000000000
Precinct  0000563500600                                            0000563000000000
Precinct  0000564500700                                            0000564000000000
Precinct  0000565500910                                            0000565000000000
Precinct  0000566501000                                            0000566000000000
Precinct  0000567501200                                            0000567000000000
Precinct  0000568501300                                            0000568000000000
Precinct  0000569501400                                            0000569000000000
Precinct  0000570501410                                            0000570000000000
Precinct  0000571501600                                            0000571000000000
Precinct  0000572501610                                            0000572000000000
Precinct  0000573501620                                            0000573000000000
Precinct  0000574501630                                            0000574000000000
Precinct  0000575501640                                            0000575000000000
Precinct  0000576501800                                            0000576000000000
Precinct  0000577501830                                            0000577000000000
Precinct  0000578501840                                            0000578000000000
Precinct  0000579501910                                            0000579000000000
Precinct  0000580502000                                            0000580000000000
Precinct  0000581502010                                            0000581000000000
Precinct  0000582502020                                            0000582000000000
Precinct  0000583502030                                            0000583000000000
Precinct  0000584502100                                            0000584000000000
Precinct  0000585502200                                            0000585000000000
Precinct  0000586502210                                            0000586000000000
Precinct  0000587502220                                            0000587000000000
Precinct  0000588502400                                            0000588000000000
Precinct  0000589502410                                            0000589000000000
Precinct  0000590502500                                            0000590000000000
Precinct  0000591502600                                            0000591000000000
Precinct  0000592502710                                            0000592000000000
Precinct  0000593502720                                            0000593000000000
Precinct  0000594502740                                            0000594000000000
Precinct  0000595502800                                            0000595000000000
Precinct  0000596502900                                            0000596000000000
Precinct  0000597502920                                            0000597000000000
Precinct  0000598520110                                            0000598000000000
Precinct  0000599520210                                            0000599000000000
Precinct  0000600520220                                            0000600000000000
Precinct  0000601520230                                            0000601000000000
Precinct  0000602520240                                            0000602000000000
Precinct  0000603520300                                            0000603000000000
Precinct  0000604520310                                            0000604000000000
Precinct  0000605520320                                            0000605000000000
Precinct  0000606520400                                            0000606000000000
Precinct  0000607520420                                            0000607000000000
Precinct  0000608520500                                            0000608000000000
Precinct  0000609520600                                            0000609000000000
Precinct  0000610520610                                            0000610000000000
Precinct  0000611520630                                            0000611000000000
Precinct  0000612520700                                            0000612000000000
Precinct  0000613520710                                            0000613000000000
Precinct  0000614520810                                            0000614000000000
Precinct  0000615520820                                            0000615000000000
Precinct  0000616520840                                            0000616000000000
Precinct  0000617520860                                            0000617000000000
Precinct  0000618520870                                            0000618000000000
Precinct  0000619521100                                            0000619000000000
Precinct  0000620521110                                            0000620000000000
Precinct  0000621521300                                            0000621000000000
Precinct  0000622521500                                            0000622000000000
Precinct  0000623522000                                            0000623000000000
Precinct  0000624522020                                            0000624000000000
Precinct  0000625522110                                            0000625000000000
Precinct  0000626522120                                            0000626000000000
Precinct  0000627522130                                            0000627000000000
Precinct  0000628522140                                            0000628000000000
Precinct  0000629522150                                            0000629000000000
Precinct  0000630522200                                            0000630000000000
Precinct  0000631522400                                            0000631000000000
Precinct  0000632523100                                            0000632000000000
Precinct  0000633523110                                            0000633000000000
Precinct  0000634523300                                            0000634000000000
Precinct  0000635523700                                            0000635000000000
Precinct  0000636523710                                            0000636000000000
Precinct  0000637523720                                            0000637000000000
Precinct  0000638523800                                            0000638000000000
Precinct  0000639540300                                            0000639000000000
Precinct  0000640540500                                            0000640000000000
Precinct  0000641540600                                            0000641000000000
Precinct  0000642540700                                            0000642000000000
Precinct  0000643540800                                            0000643000000000
Precinct  0000644541100                                            0000644000000000
Precinct  0000645542000                                            0000645000000000
Precinct  0000646542200                                            0000646000000000
Precinct  0000647543300                                            0000647000000000
Precinct  0000648544400                                            0000648000000000
Precinct  0000649545000                                            0000649000000000
Precinct  0000650546000                                            0000650000000000
Precinct  0000651546100                                            0000651000000000
Precinct  0000652546600                                            0000652000000000
Precinct  0000653547700                                            0000653000000000
Precinct  0000654547710                                            0000654000000000
Precinct  0000655547740                                            0000655000000000
Precinct  0000656547750                                            0000656000000000
Precinct  0000657547780                                            0000657000000000
Precinct  0000658547790                                            0000658000000000
Precinct  0000659821100                                            0000659000000000
Precinct  0000660821110                                            0000660000000000
Precinct  0000661821140                                            0000661000000000
Precinct  0000662821200                                            0000662000000000
Precinct  0000663821210                                            0000663000000000
Precinct  0000664821400                                            0000664000000000
Precinct  0000665821500                                            0000665000000000
Precinct  0000666821600                                            0000666000000000
Precinct  0000667821710                                            0000667000000000
Precinct  0000668821730                                            0000668000000000
Precinct  0000669821800                                            0000669000000000
Precinct  0000670821900                                            0000670000000000
Precinct  0000671821910                                            0000671000000000
Precinct  0000672822000                                            0000672000000000
Precinct  0000673822010                                            0000673000000000
Precinct  0000674822200                                            0000674000000000
Precinct  0000675823000                                            0000675000000000
Precinct  0000676823100                                            0000676000000000
Precinct  0000677823200                                            0000677000000000
Precinct  0000678823400                                            0000678000000000
Precinct  0000679823500                                            0000679000000000
Precinct  0000680823510                                            0000680000000000
Precinct  0000681823600                                            0000681000000000
Precinct  0000682823610                                            0000682000000000
Precinct  0000683823700                                            0000683000000000
Precinct  0000684823710                                            0000684000000000
Precinct  0000685823720                                            0000685000000000
Precinct  0000686823730                                            0000686000000000
Precinct  0000687823800                                            0000687000000000
Precinct  0000688823810                                            0000688000000000
Precinct  0000689823900                                            0000689000000000
Precinct  0000690830100                                            0000690000000000
Precinct  0000691830200                                            0000691000000000
Precinct  0000692830210                                            0000692000000000
Precinct  0000693830300                                            0000693000000000
Precinct  0000694830500                                            0000694000000000
Precinct  0000695830700                                            0000695000000000
Precinct  0000696831000                                            0000696000000000
Precinct  0000697831100                                            0000697000000000
Precinct  0000698831200                                            0000698000000000
Precinct  0000699831210                                            0000699000000000
Precinct  0000700831230                                            0000700000000000
Precinct  0000701831300                                            0000701000000000
Precinct  0000702831400                                            0000702000000000
Precinct  0000703831410                                            0000703000000000
Precinct  0000704831500                                            0000704000000000
Precinct  0000705831510                                            0000705000000000
Precinct  0000706831610                                            0000706000000000
Precinct  0000707831700                                            0000707000000000
Precinct  0000708831710                                            0000708000000000
Precinct  0000709831810                                            0000709000000000
Precinct  0000710831830                                            0000710000000000
Precinct  0000711831900                                            0000711000000000
Precinct  0000712831920                                            0000712000000000
Precinct  0000713832000                                            0000713000000000
Precinct  0000714832010                                            0000714000000000
Precinct  0000715832200                                            0000715000000000
Precinct  0000716832210                                            0000716000000000
Precinct  0000717832300                                            0000717000000000
Precinct  0000718832500                                            0000718000000000
Precinct  0000719832510                                            0000719000000000
Precinct  0000720832600                                            0000720000000000
Precinct  0000721832620                                            0000721000000000
Precinct  0000722832800                                            0000722000000000
Precinct  0000723832810                                            0000723000000000
Precinct  0000724832900                                            0000724000000000
Precinct  0000725833000                                            0000725000000000
Precinct  0000726833100                                            0000726000000000
Precinct  0000727833200                                            0000727000000000
Precinct  0000728833210                                            0000728000000000
Precinct  0000729833300                                            0000729000000000
Precinct  0000730833310                                            0000730000000000
Precinct  0000731833400                                            0000731000000000
Precinct  0000732833500                                            0000732000000000
Precinct  0000733833610                                            0000733000000000
Precinct  0000734833700                                            0000734000000000
Precinct  0000735833710                                            0000735000000000
Precinct  0000736834000                                            0000736000000000
Precinct  0000737834200                                            0000737000000000
Precinct  0000738834400                                            0000738000000000
Precinct  0000739834600                                            0000739000000000
Precinct  0000740834700                                            0000740000000000
Precinct  0000741835000                                            0000741000000000
Precinct  0000742835100                                            0000742000000000
Precinct  0000743835300                                            0000743000000000
Precinct  0000744835310                                            0000744000000000
Precinct  0000745835500                                            0000745000000000
Precinct  0000746835600                                            0000746000000000
Precinct  0000747835610                                            0000747000000000
Precinct  0000748835730                                            0000748000000000
Precinct  0000749835800                                            0000749000000000
Precinct  0000750835820                                            0000750000000000
Precinct  0000751835900                                            0000751000000000
Precinct  0000752836000                                            0000752000000000
Precinct  0000753836110                                            0000753000000000
Precinct  0000754836200                                            0000754000000000
Precinct  0000755836210                                            0000755000000000
Precinct  0000756836400                                            0000756000000000
Precinct  0000757836500                                            0000757000000000
Precinct  0000758836600                                            0000758000000000
Precinct  0000759837000                                            0000759000000000
Precinct  0000760837100                                            0000760000000000
Precinct  0000761837200                                            0000761000000000
Precinct  0000762837300                                            0000762000000000
Precinct  0000763837400                                            0000763000000000
Precinct  0000764837500                                            0000764000000000
Precinct  0000765837600                                            0000765000000000
Precinct  0000766837700                                            0000766000000000
Precinct  0000767837710                                            0000767000000000
Precinct  0000768837800                                            0000768000000000
Precinct  0000769837900                                            0000769000000000
Precinct  0000770838000                                            0000770000000000
Precinct  0000771838110                                            0000771000000000
Precinct  0000772838300                                            0000772000000000
Precinct  0000773838500                                            0000773000000000
Precinct  0000774838600                                            0000774000000000
Precinct  0000775838700                                            0000775000000000
Precinct  0000776839530                                            0000776000000000
Precinct  0000777850300                                            0000777000000000
Precinct  0000778850320                                            0000778000000000
Precinct  0000779850330                                            0000779000000000
Precinct  0000780850400                                            0000780000000000
Precinct  0000781850410                                            0000781000000000
Precinct  0000782850500                                            0000782000000000
Precinct  0000783850600                                            0000783000000000
Precinct  0000784850800                                            0000784000000000
Precinct  0000785850810                                            0000785000000000
Precinct  0000786850900                                            0000786000000000
Precinct  0000787851000                                            0000787000000000
Precinct  0000788851200                                            0000788000000000
Precinct  0000789851300                                            0000789000000000
Precinct  0000790851500                                            0000790000000000
Precinct  0000791851510                                            0000791000000000
Precinct  0000792851520                                            0000792000000000
Precinct  0000793851600                                            0000793000000000
Precinct  0000794851700                                            0000794000000000
Precinct  0000795851800                                            0000795000000000
Precinct  0000796852010                                            0000796000000000
Precinct  0000797852100                                            0000797000000000
Precinct  0000798866800                                            0000798000000000
Precinct  00007999203900                                           0000799000000000
Precinct  00008009205510                                           0000800000000000
Precinct  00008019205550                                           0000801000000000
Precinct  00008029207610                                           0000802000000000
Precinct  00008039207620                                           0000803000000000
Precinct  00008049207630                                           0000804000000000
Precinct  00008059207640                                           0000805000000000
Precinct  00008069209910                                           0000806000000000
Precinct  00008079213000                                           0000807000000000
Precinct  00008089215630                                           0000808000000000
Precinct  00008099215810                                           0000809000000000
Precinct  00008109223100                                           0000810000000000
Precinct  00008119223110                                           0000811000000000
Precinct  00008129224300                                           0000812000000000
Precinct  00008139224420                                           0000813000000000
Precinct  00008149224440                                           0000814000000000
Precinct  00008159224810                                           0000815000000000
Precinct  00008169224910                                           0000816000000000
Precinct  00008179225500                                           0000817000000000
Precinct  00008189244910                                           0000818000000000
Precinct  00008199323400                                           0000819000000000
Precinct  00008209325000                                           0000820000000000
Precinct  00008219333300                                           0000821000000000
Precinct  00008229333420                                           0000822000000000
Precinct  00008239333910                                           0000823000000000
Precinct  00008249333920                                           0000824000000000
Precinct  00008259333930                                           0000825000000000
Precinct  00008269334510                                           0000826000000000
Precinct  00008279335110                                           0000827000000000
Precinct  00008289335600                                           0000828000000000
Precinct  00008299335800                                           0000829000000000
Precinct  00008309335910                                           0000830000000000
Precinct  00008319336300                                           0000831000000000
Precinct  00008329336810                                           0000832000000000
Precinct  00008339344020                                           0000833000000000
Precinct  00008349345710                                           0000834000000000
Precinct  00008359347210                                           0000835000000000
Precinct  00008369347220                                           0000836000000000
Precinct  00008379355210                                           0000837000000000
Precinct  00008389355220                                           0000838000000000
Precinct  00008399360900                                           0000839000000000
Precinct  00008409361100                                           0000840000000000
Precinct  00008419361210                                           0000841000000000
Precinct  00008429361400                                           0000842000000000
Precinct  00008439362000                                           0000843000000000
Precinct  00008449364020                                           0000844000000000
Precinct  00008459364030                                           0000845000000000
Precinct  00008469364210                                           0000846000000000
Precinct  00008479364320                                           0000847000000000
Precinct  00008489364330                                           0000848000000000
Precinct  00008499373000                                           0000849000000000
Precinct  00008509373010                                           0000850000000000
Precinct  00008519373020                                           0000851000000000
Precinct  00008529373030                                           0000852000000000
Precinct  00008539394000                                           0000853000000000
Precinct  00008549394100                                           0000854000000000
Precinct  00008559394200                                           0000855000000000
Precinct  00008569416220                                           0000856000000000
Precinct  00008579420010                                           0000857000000000
Precinct  00008589420030                                           0000858000000000
Precinct  00008599420040                                           0000859000000000
Precinct  00008609420050                                           0000860000000000
Precinct  00008619420200                                           0000861000000000
Precinct  00008629420210                                           0000862000000000
Precinct  00008639420220                                           0000863000000000
Precinct  00008649420230                                           0000864000000000
Precinct  00008659420240                                           0000865000000000
Precinct  00008669420250                                           0000866000000000
Precinct  00008679420300                                           0000867000000000
Precinct  00008689420310                                           0000868000000000
Precinct  00008699420320                                           0000869000000000
Precinct  00008709420610                                           0000870000000000
Precinct  00008719420800                                           0000871000000000
Precinct  00008729422930                                           0000872000000000
Precinct  00008739422940                                           0000873000000000
Precinct  00008749423620                                           0000874000000000
Precinct  00008759423800                                           0000875000000000
Precinct  00008769423810                                           0000876000000000
Precinct  00008779424200                                           0000877000000000
Precinct  00008789430010                                           0000878000000000
Precinct  00008799430020                                           0000879000000000
Precinct  00008809430110                                           0000880000000000
Precinct  00008819430120                                           0000881000000000
Precinct  00008829430130                                           0000882000000000
Precinct  00008839430140                                           0000883000000000
Precinct  00008849430150                                           0000884000000000
Precinct  00008859430160                                           0000885000000000
Precinct  00008869430410                                           0000886000000000
Precinct  00008879430420                                           0000887000000000
Precinct  00008889430500                                           0000888000000000
Precinct  00008899430510                                           0000889000000000
Precinct  00008909430710                                           0000890000000000
Precinct  00008919430720                                           0000891000000000
Precinct  00008929430800                                           0000892000000000
Precinct  00008939430820                                           0000893000000000
Precinct  00008949431110                                           0000894000000000
Precinct  00008959431120                                           0000895000000000
Precinct  00008969431200                                           0000896000000000
Precinct  00008979431210                                           0000897000000000
Precinct  00008989431300                                           0000898000000000
Precinct  00008999431310                                           0000899000000000
Precinct  00009009431400                                           0000900000000000
Precinct  00009019431500                                           0000901000000000
Precinct  00009029431610                                           0000902000000000
Precinct  00009039431620                                           0000903000000000
Precinct  00009049431700                                           0000904000000000
Precinct  00009059431900                                           0000905000000000
Precinct  00009069432910                                           0000906000000000
Precinct  00009079433630                                           0000907000000000
Precinct  00009089438120                                           0000908000000000
Precinct  00009099438500                                           0000909000000000
Precinct  00009109442610                                           0000910000000000
Precinct  00009119442800                                           0000911000000000
Precinct  00009129442810                                           0000912000000000
Precinct  00009139442820                                           0000913000000000
Precinct  00009149443110                                           0000914000000000
Precinct  00009159443600                                           0000915000000000
Precinct  00009169443700                                           0000916000000000
Precinct  00009179443720                                           0000917000000000
Precinct  00009189443800                                           0000918000000000
Precinct  00009199447020                                           0000919000000000
Precinct  00009209447040                                           0000920000000000
Precinct  00009219447100                                           0000921000000000
Precinct  00009229447110                                           0000922000000000
Precinct  00009239447120                                           0000923000000000
Precinct  00009249447210                                           0000924000000000
Precinct  00009259447220                                           0000925000000000
Precinct  00009269447300                                           0000926000000000
Precinct  00009279447510                                           0000927000000000
Precinct  00009289447620                                           0000928000000000
Precinct  00009299447700                                           0000929000000000
Precinct  00009309447720                                           0000930000000000
Precinct  00009319450920                                           0000931000000000
Precinct  00009329450930                                           0000932000000000
Precinct  00009339451500                                           0000933000000000
Precinct  00009349452000                                           0000934000000000
Precinct  00009359454220                                           0000935000000000
Precinct  00009369454230                                           0000936000000000
Precinct  00009379454600                                           0000937000000000
Precinct  00009389454700                                           0000938000000000
Precinct  00009399455010                                           0000939000000000
Precinct  00009409455200                                           0000940000000000
Precinct  00009419455410                                           0000941000000000
Precinct  00009429456610                                           0000942000000000
Precinct  00009439464000                                           0000943000000000
Precinct  00009449464010                                           0000944000000000
Precinct  00009459464020                                           0000945000000000
Precinct  00009469464030                                           0000946000000000
Precinct  00009479464100                                           0000947000000000
Precinct  00009489464200                                           0000948000000000
Precinct  00009499464300                                           0000949000000000
Precinct  00009509464320                                           0000950000000000
Precinct  00009519464500                                           0000951000000000
Precinct  00009529464600                                           0000952000000000
Precinct  00009539464700                                           0000953000000000
Precinct  00009549464710                                           0000954000000000
Precinct  00009559470100                                           0000955000000000
Precinct  00009569470310                                           0000956000000000
Precinct  00009579470700                                           0000957000000000
Precinct  00009589475010                                           0000958000000000
Precinct  00009599475210                                           0000959000000000
Precinct  00009609475300                                           0000960000000000
Precinct  00009619475600                                           0000961000000000
Precinct  00009629476120                                           0000962000000000
Precinct  00009639480010                                           0000963000000000
Precinct  00009649481110                                           0000964000000000
Precinct  00009659481310                                           0000965000000000
Precinct  00009669481430                                           0000966000000000
Precinct  00009679481520                                           0000967000000000
Precinct  00009689481530                                           0000968000000000
Precinct  00009699481540                                           0000969000000000
Precinct  00009709481550                                           0000970000000000
Precinct  00009719481810                                           0000971000000000
Precinct  00009729481900                                           0000972000000000
Precinct  00009739481910                                           0000973000000000
Precinct  00009749481940                                           0000974000000000
Precinct  00009759481950                                           0000975000000000
Precinct  00009769481960                                           0000976000000000
Precinct  00009779481970                                           0000977000000000
Precinct  00009789482000                                           0000978000000000
Precinct  00009799482040                                           0000979000000000
Precinct  00009809482050                                           0000980000000000
Precinct  00009819484000                                           0000981000000000
Precinct  00009829484010                                           0000982000000000
Precinct  00009839490040                                           0000983000000000
Precinct  00009849490100                                           0000984000000000
Precinct  00009859490200                                           0000985000000000
Precinct  00009869490300                                           0000986000000000
Precinct  00009879491010                                           0000987000000000
Precinct  00009889491020                                           0000988000000000
Precinct  00009899491040                                           0000989000000000
Precinct  00009909491050                                           0000990000000000
Precinct  00009919491080                                           0000991000000000
Precinct  00009929491410                                           0000992000000000
Precinct  00009939491600                                           0000993000000000
Precinct  00009949491630                                           0000994000000000
Precinct  00009959491650                                           0000995000000000
Precinct  00009969492000                                           0000996000000000
Precinct  00009979492040                                           0000997000000000
Precinct  00009989498200                                           0000998000000000
Precinct  00009999498220                                           0000999000000000
Precinct  00010009498300                                           0001000000000000
Precinct  00010019498320                                           0001001000000000
Precinct  00010029499000                                           0001002000000000
Precinct  00010039499010                                           0001003000000000
Precinct  00010049500220                                           0001004000000000
Precinct  00010059500510                                           0001005000000000
Precinct  00010069501710                                           0001006000000000
Precinct  00010079502910                                           0001007000000000
Precinct  00010089510100                                           0001008000000000
Precinct  00010099510110                                           0001009000000000
Precinct  00010109510120                                           0001010000000000
Precinct  00010119510140                                           0001011000000000
Precinct  00010129510150                                           0001012000000000
Precinct  00010139510300                                           0001013000000000
Precinct  00010149510320                                           0001014000000000
Precinct  00010159510410                                           0001015000000000
Precinct  00010169510500                                           0001016000000000
Precinct  00010179510610                                           0001017000000000
Precinct  00010189510700                                           0001018000000000
Precinct  00010199510720                                           0001019000000000
Precinct  00010209510730                                           0001020000000000
Precinct  00010219510800                                           0001021000000000
Precinct  00010229510810                                           0001022000000000
Precinct  00010239510840                                           0001023000000000
Precinct  00010249510890                                           0001024000000000
Precinct  00010259510910                                           0001025000000000
Precinct  00010269510920                                           0001026000000000
Precinct  00010279510950                                           0001027000000000
Precinct  00010289510960                                           0001028000000000
Precinct  00010299510970                                           0001029000000000
Precinct  00010309510980                                           0001030000000000
Precinct  00010319510990                                           0001031000000000
Precinct  00010329511000                                           0001032000000000
Precinct  00010339520250                                           0001033000000000
Precinct  00010349520720                                           0001034000000000
Precinct  00010359520730                                           0001035000000000
Precinct  00010369520900                                           0001036000000000
Precinct  00010379521700                                           0001037000000000
Precinct  00010389522160                                           0001038000000000
Precinct  00010399523120                                           0001039000000000
Precinct  00010409530200                                           0001040000000000
Precinct  00010419532000                                           0001041000000000
Precinct  00010429532100                                           0001042000000000
Precinct  00010439532200                                           0001043000000000
Precinct  00010449532400                                           0001044000000000
Precinct  00010459535000                                           0001045000000000
Precinct  00010469535020                                           0001046000000000
Precinct  00010479535030                                           0001047000000000
Precinct  00010489535040                                           0001048000000000
Precinct  00010499535050                                           0001049000000000
Precinct  00010509535060                                           0001050000000000
Precinct  00010519535070                                           0001051000000000
Precinct  00010529535090                                           0001052000000000
Precinct  00010539535200                                           0001053000000000
Precinct  00010549535300                                           0001054000000000
Precinct  00010559535400                                           0001055000000000
Precinct  00010569535500                                           0001056000000000
Precinct  00010579535600                                           0001057000000000
Precinct  00010589535700                                           0001058000000000
Precinct  00010599535900                                           0001059000000000
Precinct  00010609540400                                           0001060000000000
Precinct  00010619547720                                           0001061000000000
Precinct  00010629547770                                           0001062000000000
Precinct  00010639810900                                           0001063000000000
Precinct  00010649815110                                           0001064000000000
Precinct  00010659819020                                           0001065000000000
Precinct  00010669819110                                           0001066000000000
Precinct  00010679820000                                           0001067000000000
Precinct  00010689821010                                           0001068000000000
Precinct  00010699821020                                           0001069000000000
Precinct  00010709821310                                           0001070000000000
Precinct  00010719821720                                           0001071000000000
Precinct  00010729822020                                           0001072000000000
Precinct  00010739823030                                           0001073000000000
Precinct  00010749823040                                           0001074000000000
Precinct  00010759831220                                           0001075000000000
Precinct  00010769834020                                           0001076000000000
Precinct  00010779835700                                           0001077000000000
Precinct  00010789837020                                           0001078000000000
Precinct  00010799837030                                           0001079000000000
Precinct  00010809837410                                           0001080000000000
Precinct  00010819839000                                           0001081000000000
Precinct  00010829839030                                           0001082000000000
Precinct  00010839839060                                           0001083000000000
Precinct  00010849839120                                           0001084000000000
Precinct  00010859839200                                           0001085000000000
Precinct  00010869839210                                           0001086000000000
Precinct  00010879839220                                           0001087000000000
Precinct  00010889839230                                           0001088000000000
Precinct  00010899839240                                           0001089000000000
Precinct  00010909839300                                           0001090000000000
Precinct  00010919839310                                           0001091000000000
Precinct  00010929839330                                           0001092000000000
Precinct  00010939839350                                           0001093000000000
Precinct  00010949839360                                           0001094000000000
Precinct  00010959839400                                           0001095000000000
Precinct  00010969839500                                           0001096000000000
Precinct  00010979839510                                           0001097000000000
Precinct  00010989839520                                           0001098000000000
Precinct  00010999866900                                           0001099000000000
Precinct  00011009866910                                           0001100000000000
Precinct  00011019866920                                           0001101000000000
Precinct  00011029866930                                           0001102000000000
Precinct  00011039867100                                           0001103000000000
Precinct  00011049867110                                           0001104000000000
Precinct  00011059867200                                           0001105000000000
Precinct  00011069867320                                           0001106000000000
Precinct  00011079867330                                           0001107000000000
Precinct  00011089867400                                           0001108000000000
Precinct  00011099867410                                           0001109000000000
Precinct  00011109870000                                           0001110000000000
Precinct  00011119870010                                           0001111000000000
Precinct  00011129870100                                           0001112000000000
Precinct  00011139870110                                           0001113000000000
Precinct  00011149870120                                           0001114000000000
Precinct  00011159870150                                           0001115000000000
Precinct  00011169880200                                           0001116000000000
Precinct  00011179880400                                           0001117000000000
Precinct  00011189880500                                           0001118000000000
Tally Type0000001Election Day - Insight                            0000001000000000
Tally Type0000002Election Day - 400C                               0000002000000000
Tally Type0000003Vote by Mail - 400C                               0000003000000000
Tally Type0000004Provisional - 400C                                0000004000000000
Tally Type0000005Election Day - Edge                               0000005000000000
Tally Type0000006MVBM - 400C                                       0000006000000000
Tally Type0000007Election Day - External                           0000007000000000
Tally Type0000008Election Day Edge - 400C                          0000008000000000
Tally Type0000009Early Vote Edge - 400C                            0000009000000000
